{
  "_format": "hh-sol-artifact-1",
  "contractName": "TigerBot",
  "sourceName": "contracts/TigetBot.sol",
  "abi": [
    {
      "anonymous": false,
      "inputs": [
        {
          "indexed": true,
          "internalType": "address",
          "name": "previousOwner",
          "type": "address"
        },
        {
          "indexed": true,
          "internalType": "address",
          "name": "newOwner",
          "type": "address"
        }
      ],
      "name": "OwnershipTransferred",
      "type": "event"
    },
    {
      "anonymous": false,
      "inputs": [
        {
          "indexed": false,
          "internalType": "address",
          "name": "_address",
          "type": "address"
        },
        {
          "indexed": false,
          "internalType": "uint256[]",
          "name": "result",
          "type": "uint256[]"
        },
        {
          "indexed": false,
          "internalType": "bool",
          "name": "win",
          "type": "bool"
        }
      ],
      "name": "TigerResult",
      "type": "event"
    },
    {
      "anonymous": false,
      "inputs": [
        {
          "indexed": false,
          "internalType": "enum TigerBot.Status",
          "name": "status",
          "type": "uint8"
        }
      ],
      "name": "TigerStatusChanged",
      "type": "event"
    },
    {
      "anonymous": false,
      "inputs": [
        {
          "indexed": false,
          "internalType": "uint256",
          "name": "extra",
          "type": "uint256"
        }
      ],
      "name": "UserExtraChanged",
      "type": "event"
    },
    {
      "inputs": [],
      "name": "checkPoolFund",
      "outputs": [
        {
          "internalType": "uint256",
          "name": "",
          "type": "uint256"
        }
      ],
      "stateMutability": "view",
      "type": "function"
    },
    {
      "inputs": [
        {
          "internalType": "address",
          "name": "_address",
          "type": "address"
        }
      ],
      "name": "checkUser",
      "outputs": [
        {
          "components": [
            {
              "internalType": "uint256",
              "name": "winCount",
              "type": "uint256"
            },
            {
              "internalType": "uint256",
              "name": "playCount",
              "type": "uint256"
            },
            {
              "internalType": "uint256",
              "name": "extraCount",
              "type": "uint256"
            },
            {
              "internalType": "uint256",
              "name": "usedFund",
              "type": "uint256"
            },
            {
              "internalType": "uint256",
              "name": "readyTime",
              "type": "uint256"
            },
            {
              "internalType": "uint256",
              "name": "luckyNumber",
              "type": "uint256"
            },
            {
              "internalType": "bool",
              "name": "cantPlay",
              "type": "bool"
            },
            {
              "internalType": "address",
              "name": "_address",
              "type": "address"
            }
          ],
          "internalType": "struct TigerBot.UserInfo",
          "name": "",
          "type": "tuple"
        }
      ],
      "stateMutability": "view",
      "type": "function"
    },
    {
      "inputs": [
        {
          "internalType": "address",
          "name": "_address",
          "type": "address"
        }
      ],
      "name": "checkUserCantPlay",
      "outputs": [
        {
          "internalType": "bool",
          "name": "",
          "type": "bool"
        }
      ],
      "stateMutability": "view",
      "type": "function"
    },
    {
      "inputs": [
        {
          "internalType": "address",
          "name": "_address",
          "type": "address"
        }
      ],
      "name": "checkUserExtra",
      "outputs": [
        {
          "internalType": "uint256",
          "name": "",
          "type": "uint256"
        }
      ],
      "stateMutability": "view",
      "type": "function"
    },
    {
      "inputs": [
        {
          "internalType": "address",
          "name": "_address",
          "type": "address"
        }
      ],
      "name": "checkUserLuckyNumber",
      "outputs": [
        {
          "internalType": "uint256",
          "name": "",
          "type": "uint256"
        }
      ],
      "stateMutability": "view",
      "type": "function"
    },
    {
      "inputs": [
        {
          "internalType": "address",
          "name": "_address",
          "type": "address"
        }
      ],
      "name": "checkUserPlayCount",
      "outputs": [
        {
          "internalType": "uint256",
          "name": "",
          "type": "uint256"
        }
      ],
      "stateMutability": "view",
      "type": "function"
    },
    {
      "inputs": [
        {
          "internalType": "address",
          "name": "_address",
          "type": "address"
        }
      ],
      "name": "checkUserWinCount",
      "outputs": [
        {
          "internalType": "uint256",
          "name": "",
          "type": "uint256"
        }
      ],
      "stateMutability": "view",
      "type": "function"
    },
    {
      "inputs": [],
      "name": "checkUsers",
      "outputs": [
        {
          "components": [
            {
              "internalType": "uint256",
              "name": "winCount",
              "type": "uint256"
            },
            {
              "internalType": "uint256",
              "name": "playCount",
              "type": "uint256"
            },
            {
              "internalType": "uint256",
              "name": "extraCount",
              "type": "uint256"
            },
            {
              "internalType": "uint256",
              "name": "usedFund",
              "type": "uint256"
            },
            {
              "internalType": "uint256",
              "name": "readyTime",
              "type": "uint256"
            },
            {
              "internalType": "uint256",
              "name": "luckyNumber",
              "type": "uint256"
            },
            {
              "internalType": "bool",
              "name": "cantPlay",
              "type": "bool"
            },
            {
              "internalType": "address",
              "name": "_address",
              "type": "address"
            }
          ],
          "internalType": "struct TigerBot.UserInfo[]",
          "name": "",
          "type": "tuple[]"
        }
      ],
      "stateMutability": "view",
      "type": "function"
    },
    {
      "inputs": [],
      "name": "cooldownTime",
      "outputs": [
        {
          "internalType": "uint32",
          "name": "",
          "type": "uint32"
        }
      ],
      "stateMutability": "view",
      "type": "function"
    },
    {
      "inputs": [],
      "name": "difficulty",
      "outputs": [
        {
          "internalType": "uint256",
          "name": "",
          "type": "uint256"
        }
      ],
      "stateMutability": "view",
      "type": "function"
    },
    {
      "inputs": [],
      "name": "extraPrice",
      "outputs": [
        {
          "internalType": "uint256",
          "name": "",
          "type": "uint256"
        }
      ],
      "stateMutability": "view",
      "type": "function"
    },
    {
      "inputs": [],
      "name": "maxExtra",
      "outputs": [
        {
          "internalType": "uint256",
          "name": "",
          "type": "uint256"
        }
      ],
      "stateMutability": "view",
      "type": "function"
    },
    {
      "inputs": [],
      "name": "owner",
      "outputs": [
        {
          "internalType": "address",
          "name": "",
          "type": "address"
        }
      ],
      "stateMutability": "view",
      "type": "function"
    },
    {
      "inputs": [
        {
          "internalType": "uint256",
          "name": "_amount",
          "type": "uint256"
        },
        {
          "internalType": "uint256",
          "name": "_luckyNumber",
          "type": "uint256"
        }
      ],
      "name": "payForExtra",
      "outputs": [],
      "stateMutability": "payable",
      "type": "function"
    },
    {
      "inputs": [],
      "name": "play",
      "outputs": [],
      "stateMutability": "payable",
      "type": "function"
    },
    {
      "inputs": [],
      "name": "playPrice",
      "outputs": [
        {
          "internalType": "uint256",
          "name": "",
          "type": "uint256"
        }
      ],
      "stateMutability": "view",
      "type": "function"
    },
    {
      "inputs": [],
      "name": "pool",
      "outputs": [
        {
          "internalType": "uint256",
          "name": "",
          "type": "uint256"
        }
      ],
      "stateMutability": "view",
      "type": "function"
    },
    {
      "inputs": [],
      "name": "renounceOwnership",
      "outputs": [],
      "stateMutability": "nonpayable",
      "type": "function"
    },
    {
      "inputs": [],
      "name": "round",
      "outputs": [
        {
          "internalType": "uint256",
          "name": "",
          "type": "uint256"
        }
      ],
      "stateMutability": "view",
      "type": "function"
    },
    {
      "inputs": [
        {
          "internalType": "uint32",
          "name": "_uint",
          "type": "uint32"
        }
      ],
      "name": "setCooldownTime",
      "outputs": [],
      "stateMutability": "nonpayable",
      "type": "function"
    },
    {
      "inputs": [
        {
          "internalType": "uint256",
          "name": "_difficulty",
          "type": "uint256"
        }
      ],
      "name": "setDifficulty",
      "outputs": [],
      "stateMutability": "nonpayable",
      "type": "function"
    },
    {
      "inputs": [
        {
          "internalType": "uint256",
          "name": "_price",
          "type": "uint256"
        }
      ],
      "name": "setExtraPrice",
      "outputs": [],
      "stateMutability": "nonpayable",
      "type": "function"
    },
    {
      "inputs": [
        {
          "internalType": "uint256",
          "name": "_maxExtra",
          "type": "uint256"
        }
      ],
      "name": "setMaxExtra",
      "outputs": [],
      "stateMutability": "nonpayable",
      "type": "function"
    },
    {
      "inputs": [
        {
          "internalType": "uint256",
          "name": "_price",
          "type": "uint256"
        }
      ],
      "name": "setPlayPrice",
      "outputs": [],
      "stateMutability": "nonpayable",
      "type": "function"
    },
    {
      "inputs": [
        {
          "internalType": "uint256",
          "name": "_round",
          "type": "uint256"
        }
      ],
      "name": "setRound",
      "outputs": [],
      "stateMutability": "nonpayable",
      "type": "function"
    },
    {
      "inputs": [
        {
          "internalType": "enum TigerBot.Status",
          "name": "_status",
          "type": "uint8"
        }
      ],
      "name": "setTigerStatus",
      "outputs": [],
      "stateMutability": "nonpayable",
      "type": "function"
    },
    {
      "inputs": [
        {
          "internalType": "address",
          "name": "_address",
          "type": "address"
        },
        {
          "internalType": "bool",
          "name": "cantPlay",
          "type": "bool"
        }
      ],
      "name": "setUserCantPlay",
      "outputs": [],
      "stateMutability": "nonpayable",
      "type": "function"
    },
    {
      "inputs": [
        {
          "internalType": "address",
          "name": "_address",
          "type": "address"
        },
        {
          "internalType": "uint256",
          "name": "_luckyNumber",
          "type": "uint256"
        }
      ],
      "name": "setUserLuckyNumber",
      "outputs": [],
      "stateMutability": "nonpayable",
      "type": "function"
    },
    {
      "inputs": [],
      "name": "status",
      "outputs": [
        {
          "internalType": "enum TigerBot.Status",
          "name": "",
          "type": "uint8"
        }
      ],
      "stateMutability": "view",
      "type": "function"
    },
    {
      "inputs": [
        {
          "internalType": "address",
          "name": "newOwner",
          "type": "address"
        }
      ],
      "name": "transferOwnership",
      "outputs": [],
      "stateMutability": "nonpayable",
      "type": "function"
    },
    {
      "inputs": [
        {
          "internalType": "uint256",
          "name": "",
          "type": "uint256"
        }
      ],
      "name": "users",
      "outputs": [
        {
          "internalType": "uint256",
          "name": "winCount",
          "type": "uint256"
        },
        {
          "internalType": "uint256",
          "name": "playCount",
          "type": "uint256"
        },
        {
          "internalType": "uint256",
          "name": "extraCount",
          "type": "uint256"
        },
        {
          "internalType": "uint256",
          "name": "usedFund",
          "type": "uint256"
        },
        {
          "internalType": "uint256",
          "name": "readyTime",
          "type": "uint256"
        },
        {
          "internalType": "uint256",
          "name": "luckyNumber",
          "type": "uint256"
        },
        {
          "internalType": "bool",
          "name": "cantPlay",
          "type": "bool"
        },
        {
          "internalType": "address",
          "name": "_address",
          "type": "address"
        }
      ],
      "stateMutability": "view",
      "type": "function"
    },
    {
      "inputs": [
        {
          "internalType": "uint256",
          "name": "",
          "type": "uint256"
        }
      ],
      "name": "winners",
      "outputs": [
        {
          "internalType": "address",
          "name": "winnerAddress",
          "type": "address"
        },
        {
          "internalType": "uint256",
          "name": "bonus",
          "type": "uint256"
        }
      ],
      "stateMutability": "view",
      "type": "function"
    },
    {
      "inputs": [],
      "name": "withdraw",
      "outputs": [],
      "stateMutability": "nonpayable",
      "type": "function"
    }
  ],
  "bytecode": "0x6080604052606460015560028055662386f26fc10000600355662386f26fc10000600455610e10600660006101000a81548163ffffffff021916908363ffffffff16021790555060036007556000600860006101000a81548160ff0219169083600281111562000098577f4e487b7100000000000000000000000000000000000000000000000000000000600052602160045260246000fd5b0217905550348015620000aa57600080fd5b50620000cb620000bf620000d160201b60201c565b620000d960201b60201c565b6200019d565b600033905090565b60008060009054906101000a900473ffffffffffffffffffffffffffffffffffffffff169050816000806101000a81548173ffffffffffffffffffffffffffffffffffffffff021916908373ffffffffffffffffffffffffffffffffffffffff1602179055508173ffffffffffffffffffffffffffffffffffffffff168173ffffffffffffffffffffffffffffffffffffffff167f8be0079c531659141344cd1fd0a4f28419497f9722a3daafe3b4186f6b6457e060405160405180910390a35050565b61357380620001ad6000396000f3fe6080604052600436106101ee5760003560e01c8063798751861161010d578063a2fb1175116100a0578063c7616ae31161006f578063c7616ae3146106c7578063c86aecf0146106f0578063d4d9f7e01461071b578063d8b6512214610758578063f2fde38b14610781576101ee565b8063a2fb1175146105f8578063a761692814610636578063b319c6b71461065f578063c73c46c31461068a576101ee565b806393e84cd9116100dc57806393e84cd91461055d578063967f37bf14610567578063981c2717146105925780639b624e7b146105cf576101ee565b806379875186146104b05780637bcaddfd146104ed5780638da5cb5b14610509578063909ca3a214610534576101ee565b80633ccfd60b1161018557806369c1a7ed1161015457806369c1a7ed1461040657806370c93f1a14610431578063715018a61461045c578063744e026014610473576101ee565b80633ccfd60b1461037257806359a9ae11146103895780635d5cd79b146103b2578063602512e1146103dd576101ee565b8063200d2ed2116101c1578063200d2ed2146102b157806331b911c1146102dc578063360909d914610305578063365b98b21461032e576101ee565b8063146ca531146101f357806316f0115b1461021e57806319cae462146102495780631e9d48cf14610274575b600080fd5b3480156101ff57600080fd5b506102086107aa565b6040516102159190612df1565b60405180910390f35b34801561022a57600080fd5b506102336107b0565b6040516102409190612df1565b60405180910390f35b34801561025557600080fd5b5061025e6107b6565b60405161026b9190612df1565b60405180910390f35b34801561028057600080fd5b5061029b6004803603810190610296919061246a565b6107bc565b6040516102a89190612dd5565b60405180910390f35b3480156102bd57600080fd5b506102c66108c3565b6040516102d39190612bda565b60405180910390f35b3480156102e857600080fd5b5061030360048036038101906102fe9190612534565b6108d6565b005b34801561031157600080fd5b5061032c600480360381019061032791906124cf565b61095c565b005b34801561033a57600080fd5b5061035560048036038101906103509190612534565b610a2c565b604051610369989796959493929190612e0c565b60405180910390f35b34801561037e57600080fd5b50610387610ab1565b005b34801561039557600080fd5b506103b060048036038101906103ab9190612534565b610be9565b005b3480156103be57600080fd5b506103c7610cb9565b6040516103d49190612df1565b60405180910390f35b3480156103e957600080fd5b5061040460048036038101906103ff9190612534565b610cbf565b005b34801561041257600080fd5b5061041b610d90565b6040516104289190612df1565b60405180910390f35b34801561043d57600080fd5b50610446610d96565b6040516104539190612df1565b60405180910390f35b34801561046857600080fd5b50610471610d9c565b005b34801561047f57600080fd5b5061049a6004803603810190610495919061246a565b610e24565b6040516104a79190612bbf565b60405180910390f35b3480156104bc57600080fd5b506104d760048036038101906104d2919061246a565b610e7d565b6040516104e49190612df1565b60405180910390f35b6105076004803603810190610502919061255d565b610ec9565b005b34801561051557600080fd5b5061051e610fc4565b60405161052b9190612b1b565b60405180910390f35b34801561054057600080fd5b5061055b60048036038101906105569190612534565b610fed565b005b6105656110bd565b005b34801561057357600080fd5b5061057c6118f8565b6040516105899190612df1565b60405180910390f35b34801561059e57600080fd5b506105b960048036038101906105b4919061246a565b611902565b6040516105c69190612df1565b60405180910390f35b3480156105db57600080fd5b506105f660048036038101906105f19190612534565b61194e565b005b34801561060457600080fd5b5061061f600480360381019061061a9190612534565b611a18565b60405161062d929190612b74565b60405180910390f35b34801561064257600080fd5b5061065d60048036038101906106589190612493565b611a6c565b005b34801561066b57600080fd5b50610674611b4c565b6040516106819190612e8a565b60405180910390f35b34801561069657600080fd5b506106b160048036038101906106ac919061246a565b611b62565b6040516106be9190612df1565b60405180910390f35b3480156106d357600080fd5b506106ee60048036038101906106e99190612599565b611bae565b005b3480156106fc57600080fd5b50610705611c4e565b6040516107129190612b9d565b60405180910390f35b34801561072757600080fd5b50610742600480360381019061073d919061246a565b611d5b565b60405161074f9190612df1565b60405180910390f35b34801561076457600080fd5b5061077f600480360381019061077a919061250b565b611da7565b005b34801561078d57600080fd5b506107a860048036038101906107a3919061246a565b611ebc565b005b60075481565b60055481565b60015481565b6107c461233a565b600b60008373ffffffffffffffffffffffffffffffffffffffff1673ffffffffffffffffffffffffffffffffffffffff168152602001908152602001600020604051806101000160405290816000820154815260200160018201548152602001600282015481526020016003820154815260200160048201548152602001600582015481526020016006820160009054906101000a900460ff161515151581526020016006820160019054906101000a900473ffffffffffffffffffffffffffffffffffffffff1673ffffffffffffffffffffffffffffffffffffffff1673ffffffffffffffffffffffffffffffffffffffff16815250509050919050565b600860009054906101000a900460ff1681565b6108de611fb4565b73ffffffffffffffffffffffffffffffffffffffff166108fc610fc4565b73ffffffffffffffffffffffffffffffffffffffff1614610952576040517f08c379a000000000000000000000000000000000000000000000000000000000815260040161094990612d55565b60405180910390fd5b8060028190555050565b6000600b60008473ffffffffffffffffffffffffffffffffffffffff1673ffffffffffffffffffffffffffffffffffffffff16815260200190815260200160002060020154116109e1576040517f08c379a00000000000000000000000000000000000000000000000000000000081526004016109d890612d95565b60405180910390fd5b80600b60008473ffffffffffffffffffffffffffffffffffffffff1673ffffffffffffffffffffffffffffffffffffffff168152602001908152602001600020600501819055505050565b600a8181548110610a3c57600080fd5b90600052602060002090600702016000915090508060000154908060010154908060020154908060030154908060040154908060050154908060060160009054906101000a900460ff16908060060160019054906101000a900473ffffffffffffffffffffffffffffffffffffffff16905088565b610ab9611fb4565b73ffffffffffffffffffffffffffffffffffffffff16610ad7610fc4565b73ffffffffffffffffffffffffffffffffffffffff1614610b2d576040517f08c379a0000000000000000000000000000000000000000000000000000000008152600401610b2490612d55565b60405180910390fd5b60004790506000610b3c610fc4565b73ffffffffffffffffffffffffffffffffffffffff1682604051610b5f90612ac9565b60006040518083038185875af1925050503d8060008114610b9c576040519150601f19603f3d011682016040523d82523d6000602084013e610ba1565b606091505b5050905080610be5576040517f08c379a0000000000000000000000000000000000000000000000000000000008152600401610bdc90612c75565b60405180910390fd5b5050565b610bf1611fb4565b73ffffffffffffffffffffffffffffffffffffffff16610c0f610fc4565b73ffffffffffffffffffffffffffffffffffffffff1614610c65576040517f08c379a0000000000000000000000000000000000000000000000000000000008152600401610c5c90612d55565b60405180910390fd5b662386f26fc10000811015610caf576040517f08c379a0000000000000000000000000000000000000000000000000000000008152600401610ca690612c15565b60405180910390fd5b8060048190555050565b60025481565b610cc7611fb4565b73ffffffffffffffffffffffffffffffffffffffff16610ce5610fc4565b73ffffffffffffffffffffffffffffffffffffffff1614610d3b576040517f08c379a0000000000000000000000000000000000000000000000000000000008152600401610d3290612d55565b60405180910390fd5b678ac7230489e80000811015610d86576040517f08c379a0000000000000000000000000000000000000000000000000000000008152600401610d7d90612d35565b60405180910390fd5b8060018190555050565b60045481565b60035481565b610da4611fb4565b73ffffffffffffffffffffffffffffffffffffffff16610dc2610fc4565b73ffffffffffffffffffffffffffffffffffffffff1614610e18576040517f08c379a0000000000000000000000000000000000000000000000000000000008152600401610e0f90612d55565b60405180910390fd5b610e226000611fbc565b565b6000600b60008373ffffffffffffffffffffffffffffffffffffffff1673ffffffffffffffffffffffffffffffffffffffff16815260200190815260200160002060060160009054906101000a900460ff169050919050565b6000600b60008373ffffffffffffffffffffffffffffffffffffffff1673ffffffffffffffffffffffffffffffffffffffff168152602001908152602001600020600201549050919050565b33826000600b60008473ffffffffffffffffffffffffffffffffffffffff1673ffffffffffffffffffffffffffffffffffffffff1681526020019081526020016000209050600254828260020154610f219190612f33565b1115610f62576040517f08c379a0000000000000000000000000000000000000000000000000000000008152600401610f5990612db5565b60405180910390fd5b60035485610f709190612fba565b341015610fb2576040517f08c379a0000000000000000000000000000000000000000000000000000000008152600401610fa990612c35565b60405180910390fd5b610fbd338686612080565b5050505050565b60008060009054906101000a900473ffffffffffffffffffffffffffffffffffffffff16905090565b610ff5611fb4565b73ffffffffffffffffffffffffffffffffffffffff16611013610fc4565b73ffffffffffffffffffffffffffffffffffffffff1614611069576040517f08c379a000000000000000000000000000000000000000000000000000000000815260040161106090612d55565b60405180910390fd5b662386f26fc100008110156110b3576040517f08c379a00000000000000000000000000000000000000000000000000000000081526004016110aa90612c15565b60405180910390fd5b8060038190555050565b336000600b60008373ffffffffffffffffffffffffffffffffffffffff1673ffffffffffffffffffffffffffffffffffffffff168152602001908152602001600020604051806101000160405290816000820154815260200160018201548152602001600282015481526020016003820154815260200160048201548152602001600582015481526020016006820160009054906101000a900460ff161515151581526020016006820160019054906101000a900473ffffffffffffffffffffffffffffffffffffffff1673ffffffffffffffffffffffffffffffffffffffff1673ffffffffffffffffffffffffffffffffffffffff168152505090503373ffffffffffffffffffffffffffffffffffffffff163273ffffffffffffffffffffffffffffffffffffffff1614611228576040517f08c379a000000000000000000000000000000000000000000000000000000000815260040161121f90612cf5565b60405180910390fd5b60006002811115611262577f4e487b7100000000000000000000000000000000000000000000000000000000600052602160045260246000fd5b600860009054906101000a900460ff1660028111156112aa577f4e487b7100000000000000000000000000000000000000000000000000000000600052602160045260246000fd5b146112ea576040517f08c379a00000000000000000000000000000000000000000000000000000000081526004016112e190612cd5565b60405180910390fd5b8060800151421015611331576040517f08c379a000000000000000000000000000000000000000000000000000000000815260040161132890612c95565b60405180910390fd5b600115158160c001511515141561137d576040517f08c379a000000000000000000000000000000000000000000000000000000000815260040161137490612d15565b60405180910390fd5b3373ffffffffffffffffffffffffffffffffffffffff163273ffffffffffffffffffffffffffffffffffffffff16146113eb576040517f08c379a00000000000000000000000000000000000000000000000000000000081526004016113e290612cf5565b60405180910390fd5b600454341015611430576040517f08c379a000000000000000000000000000000000000000000000000000000000815260040161142790612cb5565b60405180910390fd5b600061143b33610e7d565b9050600061144833611b62565b9050600060075467ffffffffffffffff81111561148e577f4e487b7100000000000000000000000000000000000000000000000000000000600052604160045260246000fd5b6040519080825280602002602001820160405280156114bc5781602001602082028036833780820191505090505b509050600083111561152e5760005b8381101561152c578282828151811061150d577f4e487b7100000000000000000000000000000000000000000000000000000000600052603260045260246000fd5b6020026020010181815250508080611524906130c5565b9150506114cb565b505b6000808490505b6007548110156115e657600060015442338560405160200161155993929190612ade565b6040516020818303038152906040528051906020012060001c61157c919061313c565b9050808483815181106115b8577f4e487b7100000000000000000000000000000000000000000000000000000000600052603260045260246000fd5b60200260200101818152505082806115cf906130c5565b9350505080806115de906130c5565b915050611535565b5060006115f2836121c1565b90506000600b60003373ffffffffffffffffffffffffffffffffffffffff1673ffffffffffffffffffffffffffffffffffffffff1681526020019081526020016000209050338160060160016101000a81548173ffffffffffffffffffffffffffffffffffffffff021916908373ffffffffffffffffffffffffffffffffffffffff16021790555080600101600081548092919061168f906130c5565b91905055503481600301546116a49190612f33565b8160030181905550346005546116ba9190612f33565b60058190555081156117b557600181600001546116d79190612f33565b8160000181905550600960405180606001604052803373ffffffffffffffffffffffffffffffffffffffff16815260200186815260200147815250908060018154018082558091505060019003906000526020600020906003020160009091909190915060008201518160000160006101000a81548173ffffffffffffffffffffffffffffffffffffffff021916908373ffffffffffffffffffffffffffffffffffffffff160217905550602082015181600101908051906020019061179e929190612397565b506040820151816002015550506117b43361229f565b5b600a8190806001815401808255809150506001900390600052602060002090600702016000909190919091506000820154816000015560018201548160010155600282015481600201556003820154816003015560048201548160040155600582015481600501556006820160009054906101000a900460ff168160060160006101000a81548160ff0219169083151502179055506006820160019054906101000a900473ffffffffffffffffffffffffffffffffffffffff168160060160016101000a81548173ffffffffffffffffffffffffffffffffffffffff021916908373ffffffffffffffffffffffffffffffffffffffff16021790555050507ff103f48cd1a06a225ec496cfab15da5565875a229474c348793ca919c551ecec3385846040516118e693929190612b36565b60405180910390a15050505050505050565b6000600554905090565b6000600b60008373ffffffffffffffffffffffffffffffffffffffff1673ffffffffffffffffffffffffffffffffffffffff168152602001908152602001600020600101549050919050565b611956611fb4565b73ffffffffffffffffffffffffffffffffffffffff16611974610fc4565b73ffffffffffffffffffffffffffffffffffffffff16146119ca576040517f08c379a00000000000000000000000000000000000000000000000000000000081526004016119c190612d55565b60405180910390fd5b6003811015611a0e576040517f08c379a0000000000000000000000000000000000000000000000000000000008152600401611a0590612d75565b60405180910390fd5b8060078190555050565b60098181548110611a2857600080fd5b90600052602060002090600302016000915090508060000160009054906101000a900473ffffffffffffffffffffffffffffffffffffffff16908060020154905082565b611a74611fb4565b73ffffffffffffffffffffffffffffffffffffffff16611a92610fc4565b73ffffffffffffffffffffffffffffffffffffffff1614611ae8576040517f08c379a0000000000000000000000000000000000000000000000000000000008152600401611adf90612d55565b60405180910390fd5b6000600b60008473ffffffffffffffffffffffffffffffffffffffff1673ffffffffffffffffffffffffffffffffffffffff1681526020019081526020016000209050818160060160006101000a81548160ff021916908315150217905550505050565b600660009054906101000a900463ffffffff1681565b6000600b60008373ffffffffffffffffffffffffffffffffffffffff1673ffffffffffffffffffffffffffffffffffffffff168152602001908152602001600020600501549050919050565b611bb6611fb4565b73ffffffffffffffffffffffffffffffffffffffff16611bd4610fc4565b73ffffffffffffffffffffffffffffffffffffffff1614611c2a576040517f08c379a0000000000000000000000000000000000000000000000000000000008152600401611c2190612d55565b60405180910390fd5b80600660006101000a81548163ffffffff021916908363ffffffff16021790555050565b6060600a805480602002602001604051908101604052809291908181526020016000905b82821015611d525783829060005260206000209060070201604051806101000160405290816000820154815260200160018201548152602001600282015481526020016003820154815260200160048201548152602001600582015481526020016006820160009054906101000a900460ff161515151581526020016006820160019054906101000a900473ffffffffffffffffffffffffffffffffffffffff1673ffffffffffffffffffffffffffffffffffffffff1673ffffffffffffffffffffffffffffffffffffffff168152505081526020019060010190611c72565b50505050905090565b6000600b60008373ffffffffffffffffffffffffffffffffffffffff1673ffffffffffffffffffffffffffffffffffffffff168152602001908152602001600020600001549050919050565b611daf611fb4565b73ffffffffffffffffffffffffffffffffffffffff16611dcd610fc4565b73ffffffffffffffffffffffffffffffffffffffff1614611e23576040517f08c379a0000000000000000000000000000000000000000000000000000000008152600401611e1a90612d55565b60405180910390fd5b80600860006101000a81548160ff02191690836002811115611e6e577f4e487b7100000000000000000000000000000000000000000000000000000000600052602160045260246000fd5b02179055507f6e9ac4e81e412c55b7babb21cefa7547e4263d3b9b81ae4e7212f0c77725af7c600860009054906101000a900460ff16604051611eb19190612bda565b60405180910390a150565b611ec4611fb4565b73ffffffffffffffffffffffffffffffffffffffff16611ee2610fc4565b73ffffffffffffffffffffffffffffffffffffffff1614611f38576040517f08c379a0000000000000000000000000000000000000000000000000000000008152600401611f2f90612d55565b60405180910390fd5b600073ffffffffffffffffffffffffffffffffffffffff168173ffffffffffffffffffffffffffffffffffffffff161415611fa8576040517f08c379a0000000000000000000000000000000000000000000000000000000008152600401611f9f90612c55565b60405180910390fd5b611fb181611fbc565b50565b600033905090565b60008060009054906101000a900473ffffffffffffffffffffffffffffffffffffffff169050816000806101000a81548173ffffffffffffffffffffffffffffffffffffffff021916908373ffffffffffffffffffffffffffffffffffffffff1602179055508173ffffffffffffffffffffffffffffffffffffffff168173ffffffffffffffffffffffffffffffffffffffff167f8be0079c531659141344cd1fd0a4f28419497f9722a3daafe3b4186f6b6457e060405160405180910390a35050565b82826000600b60008473ffffffffffffffffffffffffffffffffffffffff1673ffffffffffffffffffffffffffffffffffffffff16815260200190815260200160002090506002548282600201546120d89190612f33565b1115612119576040517f08c379a000000000000000000000000000000000000000000000000000000000815260040161211090612db5565b60405180910390fd5b6000600b60008873ffffffffffffffffffffffffffffffffffffffff1673ffffffffffffffffffffffffffffffffffffffff168152602001908152602001600020905085816002015461216c9190612f33565b81600201819055508481600501819055507f82411ec5c9138b73765206b968383a11defd56a0d9791b3234f332519d37d05a81600201546040516121b09190612df1565b60405180910390a150505050505050565b600080826000815181106121fe577f4e487b7100000000000000000000000000000000000000000000000000000000600052603260045260246000fd5b60200260200101519050600080600090505b6001855161221e9190613014565b8110156122865784818151811061225e577f4e487b7100000000000000000000000000000000000000000000000000000000600052603260045260246000fd5b6020026020010151826122719190612f33565b9150808061227e906130c5565b915050612210565b50818451826122959190612f89565b1492505050919050565b6000479050600081116122e7576040517f08c379a00000000000000000000000000000000000000000000000000000000081526004016122de90612bf5565b60405180910390fd5b8173ffffffffffffffffffffffffffffffffffffffff166108fc829081150290604051600060405180830381858888f1935050505015801561232d573d6000803e3d6000fd5b5060006005819055505050565b604051806101000160405280600081526020016000815260200160008152602001600081526020016000815260200160008152602001600015158152602001600073ffffffffffffffffffffffffffffffffffffffff1681525090565b8280548282559060005260206000209081019282156123d3579160200282015b828111156123d25782518255916020019190600101906123b7565b5b5090506123e091906123e4565b5090565b5b808211156123fd5760008160009055506001016123e5565b5090565b600081359050612410816134d1565b92915050565b600081359050612425816134e8565b92915050565b60008135905061243a816134ff565b92915050565b60008135905061244f8161350f565b92915050565b60008135905061246481613526565b92915050565b60006020828403121561247c57600080fd5b600061248a84828501612401565b91505092915050565b600080604083850312156124a657600080fd5b60006124b485828601612401565b92505060206124c585828601612416565b9150509250929050565b600080604083850312156124e257600080fd5b60006124f085828601612401565b925050602061250185828601612440565b9150509250929050565b60006020828403121561251d57600080fd5b600061252b8482850161242b565b91505092915050565b60006020828403121561254657600080fd5b600061255484828501612440565b91505092915050565b6000806040838503121561257057600080fd5b600061257e85828601612440565b925050602061258f85828601612440565b9150509250929050565b6000602082840312156125ab57600080fd5b60006125b984828501612455565b91505092915050565b60006125ce8383612941565b6101008301905092915050565b60006125e78383612a85565b60208301905092915050565b6125fc81613048565b82525050565b61260b81613048565b82525050565b61262261261d82613048565b61310e565b82525050565b600061263382612ec5565b61263d8185612ef5565b935061264883612ea5565b8060005b8381101561267957815161266088826125c2565b975061266b83612edb565b92505060018101905061264c565b5085935050505092915050565b600061269182612ed0565b61269b8185612f06565b93506126a683612eb5565b8060005b838110156126d75781516126be88826125db565b97506126c983612ee8565b9250506001810190506126aa565b5085935050505092915050565b6126ed8161305a565b82525050565b6126fc8161305a565b82525050565b61270b816130b3565b82525050565b600061271e601b83612f22565b915061272982613207565b602082019050919050565b6000612741601383612f22565b915061274c82613230565b602082019050919050565b6000612764600f83612f22565b915061276f82613259565b602082019050919050565b6000612787602683612f22565b915061279282613282565b604082019050919050565b60006127aa601483612f22565b91506127b5826132d1565b602082019050919050565b60006127cd601e83612f22565b91506127d8826132fa565b602082019050919050565b60006127f0601283612f22565b91506127fb82613323565b602082019050919050565b6000612813601283612f22565b915061281e8261334c565b602082019050919050565b6000612836601983612f22565b915061284182613375565b602082019050919050565b6000612859600e83612f22565b91506128648261339e565b602082019050919050565b600061287c601183612f22565b9150612887826133c7565b602082019050919050565b600061289f602083612f22565b91506128aa826133f0565b602082019050919050565b60006128c2601083612f22565b91506128cd82613419565b602082019050919050565b60006128e5600083612f17565b91506128f082613442565b600082019050919050565b6000612908602883612f22565b915061291382613445565b604082019050919050565b600061292b601a83612f22565b915061293682613494565b602082019050919050565b610100820160008201516129586000850182612a85565b50602082015161296b6020850182612a85565b50604082015161297e6040850182612a85565b5060608201516129916060850182612a85565b5060808201516129a46080850182612a85565b5060a08201516129b760a0850182612a85565b5060c08201516129ca60c08501826126e4565b5060e08201516129dd60e08501826125f3565b50505050565b610100820160008201516129fa6000850182612a85565b506020820151612a0d6020850182612a85565b506040820151612a206040850182612a85565b506060820151612a336060850182612a85565b506080820151612a466080850182612a85565b5060a0820151612a5960a0850182612a85565b5060c0820151612a6c60c08501826126e4565b5060e0820151612a7f60e08501826125f3565b50505050565b612a8e81613099565b82525050565b612a9d81613099565b82525050565b612ab4612aaf82613099565b613132565b82525050565b612ac3816130a3565b82525050565b6000612ad4826128d8565b9150819050919050565b6000612aea8286612aa3565b602082019150612afa8285612611565b601482019150612b0a8284612aa3565b602082019150819050949350505050565b6000602082019050612b306000830184612602565b92915050565b6000606082019050612b4b6000830186612602565b8181036020830152612b5d8185612686565b9050612b6c60408301846126f3565b949350505050565b6000604082019050612b896000830185612602565b612b966020830184612a94565b9392505050565b60006020820190508181036000830152612bb78184612628565b905092915050565b6000602082019050612bd460008301846126f3565b92915050565b6000602082019050612bef6000830184612702565b92915050565b60006020820190508181036000830152612c0e81612711565b9050919050565b60006020820190508181036000830152612c2e81612734565b9050919050565b60006020820190508181036000830152612c4e81612757565b9050919050565b60006020820190508181036000830152612c6e8161277a565b9050919050565b60006020820190508181036000830152612c8e8161279d565b9050919050565b60006020820190508181036000830152612cae816127c0565b9050919050565b60006020820190508181036000830152612cce816127e3565b9050919050565b60006020820190508181036000830152612cee81612806565b9050919050565b60006020820190508181036000830152612d0e81612829565b9050919050565b60006020820190508181036000830152612d2e8161284c565b9050919050565b60006020820190508181036000830152612d4e8161286f565b9050919050565b60006020820190508181036000830152612d6e81612892565b9050919050565b60006020820190508181036000830152612d8e816128b5565b9050919050565b60006020820190508181036000830152612dae816128fb565b9050919050565b60006020820190508181036000830152612dce8161291e565b9050919050565b600061010082019050612deb60008301846129e3565b92915050565b6000602082019050612e066000830184612a94565b92915050565b600061010082019050612e22600083018b612a94565b612e2f602083018a612a94565b612e3c6040830189612a94565b612e496060830188612a94565b612e566080830187612a94565b612e6360a0830186612a94565b612e7060c08301856126f3565b612e7d60e0830184612602565b9998505050505050505050565b6000602082019050612e9f6000830184612aba565b92915050565b6000819050602082019050919050565b6000819050602082019050919050565b600081519050919050565b600081519050919050565b6000602082019050919050565b6000602082019050919050565b600082825260208201905092915050565b600082825260208201905092915050565b600081905092915050565b600082825260208201905092915050565b6000612f3e82613099565b9150612f4983613099565b9250827fffffffffffffffffffffffffffffffffffffffffffffffffffffffffffffffff03821115612f7e57612f7d61316d565b5b828201905092915050565b6000612f9482613099565b9150612f9f83613099565b925082612faf57612fae61319c565b5b828204905092915050565b6000612fc582613099565b9150612fd083613099565b9250817fffffffffffffffffffffffffffffffffffffffffffffffffffffffffffffffff04831182151516156130095761300861316d565b5b828202905092915050565b600061301f82613099565b915061302a83613099565b92508282101561303d5761303c61316d565b5b828203905092915050565b600061305382613079565b9050919050565b60008115159050919050565b6000819050613074826134bd565b919050565b600073ffffffffffffffffffffffffffffffffffffffff82169050919050565b6000819050919050565b600063ffffffff82169050919050565b60006130be82613066565b9050919050565b60006130d082613099565b91507fffffffffffffffffffffffffffffffffffffffffffffffffffffffffffffffff8214156131035761310261316d565b5b600182019050919050565b600061311982613120565b9050919050565b600061312b826131fa565b9050919050565b6000819050919050565b600061314782613099565b915061315283613099565b9250826131625761316161319c565b5b828206905092915050565b7f4e487b7100000000000000000000000000000000000000000000000000000000600052601160045260246000fd5b7f4e487b7100000000000000000000000000000000000000000000000000000000600052601260045260246000fd5b7f4e487b7100000000000000000000000000000000000000000000000000000000600052602160045260246000fd5b60008160601b9050919050565b7f5468652063757272656e74207072697a6520706f6f6c20697320300000000000600082015250565b7f4d696e696d756d2073657420746f20302e303100000000000000000000000000600082015250565b7f4e6f74207269676874206d6f6e65790000000000000000000000000000000000600082015250565b7f4f776e61626c653a206e6577206f776e657220697320746865207a65726f206160008201527f6464726573730000000000000000000000000000000000000000000000000000602082015250565b7f4661696c656420746f2073656e64204574686572000000000000000000000000600082015250565b7f5374696c6c206e65656420746f207761697420666f722061207768696c650000600082015250565b7f4d696e696d756d20302e30312065746865720000000000000000000000000000600082015250565b7f5469676572206973206e6f742072656164790000000000000000000000000000600082015250565b7f4e6f7420616c6c6f77656420636f6e74726163742063616c6c00000000000000600082015250565b7f43616e277420706c6179206e6f77000000000000000000000000000000000000600082015250565b7f4d696e696d756d2073657420746f203130000000000000000000000000000000600082015250565b7f4f776e61626c653a2063616c6c6572206973206e6f7420746865206f776e6572600082015250565b7f4d696e696d756d2073657420746f203300000000000000000000000000000000600082015250565b50565b7f596f7520646f6e2774206861766520657874726120746f20736574206c75636b60008201527f79206e756d626572000000000000000000000000000000000000000000000000602082015250565b7f596f752068617665206f776e656420757020746f206578747261000000000000600082015250565b600381106134ce576134cd6131cb565b5b50565b6134da81613048565b81146134e557600080fd5b50565b6134f18161305a565b81146134fc57600080fd5b50565b6003811061350c57600080fd5b50565b61351881613099565b811461352357600080fd5b50565b61352f816130a3565b811461353a57600080fd5b5056fea2646970667358221220d901d8dc75505c314be8c6cbea92af668e8fc4cb667029160bd2be238d5974b064736f6c63430008040033",
  "linkReferences": {},
  "deployedLinkReferences": {}
}