{
  "_format": "hh-sol-artifact-1",
  "contractName": "Task",
  "sourceName": "contracts/Task.sol",
  "abi": [
    {
      "inputs": [],
      "stateMutability": "nonpayable",
      "type": "constructor"
    },
    {
      "anonymous": false,
      "inputs": [
        {
          "indexed": true,
          "internalType": "address",
          "name": "owner",
          "type": "address"
        },
        {
          "indexed": true,
          "internalType": "address",
          "name": "spender",
          "type": "address"
        },
        {
          "indexed": false,
          "internalType": "uint256",
          "name": "value",
          "type": "uint256"
        }
      ],
      "name": "Approval",
      "type": "event"
    },
    {
      "anonymous": false,
      "inputs": [
        {
          "indexed": true,
          "internalType": "address",
          "name": "previousOwner",
          "type": "address"
        },
        {
          "indexed": true,
          "internalType": "address",
          "name": "newOwner",
          "type": "address"
        }
      ],
      "name": "OwnershipTransferred",
      "type": "event"
    },
    {
      "anonymous": false,
      "inputs": [
        {
          "indexed": true,
          "internalType": "address",
          "name": "from",
          "type": "address"
        },
        {
          "indexed": true,
          "internalType": "address",
          "name": "to",
          "type": "address"
        },
        {
          "indexed": false,
          "internalType": "uint256",
          "name": "value",
          "type": "uint256"
        }
      ],
      "name": "Transfer",
      "type": "event"
    },
    {
      "inputs": [
        {
          "internalType": "address",
          "name": "owner",
          "type": "address"
        },
        {
          "internalType": "address",
          "name": "spender",
          "type": "address"
        }
      ],
      "name": "allowance",
      "outputs": [
        {
          "internalType": "uint256",
          "name": "",
          "type": "uint256"
        }
      ],
      "stateMutability": "view",
      "type": "function"
    },
    {
      "inputs": [
        {
          "internalType": "address",
          "name": "spender",
          "type": "address"
        },
        {
          "internalType": "uint256",
          "name": "amount",
          "type": "uint256"
        }
      ],
      "name": "approve",
      "outputs": [
        {
          "internalType": "bool",
          "name": "",
          "type": "bool"
        }
      ],
      "stateMutability": "nonpayable",
      "type": "function"
    },
    {
      "inputs": [
        {
          "internalType": "address",
          "name": "account",
          "type": "address"
        }
      ],
      "name": "balanceOf",
      "outputs": [
        {
          "internalType": "uint256",
          "name": "",
          "type": "uint256"
        }
      ],
      "stateMutability": "view",
      "type": "function"
    },
    {
      "inputs": [],
      "name": "claim",
      "outputs": [],
      "stateMutability": "nonpayable",
      "type": "function"
    },
    {
      "inputs": [
        {
          "internalType": "address",
          "name": "",
          "type": "address"
        }
      ],
      "name": "claimUsers",
      "outputs": [
        {
          "internalType": "bool",
          "name": "",
          "type": "bool"
        }
      ],
      "stateMutability": "view",
      "type": "function"
    },
    {
      "inputs": [],
      "name": "decimals",
      "outputs": [
        {
          "internalType": "uint8",
          "name": "",
          "type": "uint8"
        }
      ],
      "stateMutability": "view",
      "type": "function"
    },
    {
      "inputs": [
        {
          "internalType": "address",
          "name": "spender",
          "type": "address"
        },
        {
          "internalType": "uint256",
          "name": "subtractedValue",
          "type": "uint256"
        }
      ],
      "name": "decreaseAllowance",
      "outputs": [
        {
          "internalType": "bool",
          "name": "",
          "type": "bool"
        }
      ],
      "stateMutability": "nonpayable",
      "type": "function"
    },
    {
      "inputs": [
        {
          "internalType": "address",
          "name": "spender",
          "type": "address"
        },
        {
          "internalType": "uint256",
          "name": "addedValue",
          "type": "uint256"
        }
      ],
      "name": "increaseAllowance",
      "outputs": [
        {
          "internalType": "bool",
          "name": "",
          "type": "bool"
        }
      ],
      "stateMutability": "nonpayable",
      "type": "function"
    },
    {
      "inputs": [
        {
          "internalType": "address",
          "name": "_address",
          "type": "address"
        }
      ],
      "name": "isClaimed",
      "outputs": [
        {
          "internalType": "bool",
          "name": "",
          "type": "bool"
        }
      ],
      "stateMutability": "view",
      "type": "function"
    },
    {
      "inputs": [],
      "name": "name",
      "outputs": [
        {
          "internalType": "string",
          "name": "",
          "type": "string"
        }
      ],
      "stateMutability": "view",
      "type": "function"
    },
    {
      "inputs": [],
      "name": "owner",
      "outputs": [
        {
          "internalType": "address",
          "name": "",
          "type": "address"
        }
      ],
      "stateMutability": "view",
      "type": "function"
    },
    {
      "inputs": [],
      "name": "renounceOwnership",
      "outputs": [],
      "stateMutability": "nonpayable",
      "type": "function"
    },
    {
      "inputs": [],
      "name": "symbol",
      "outputs": [
        {
          "internalType": "string",
          "name": "",
          "type": "string"
        }
      ],
      "stateMutability": "view",
      "type": "function"
    },
    {
      "inputs": [],
      "name": "totalSupply",
      "outputs": [
        {
          "internalType": "uint256",
          "name": "",
          "type": "uint256"
        }
      ],
      "stateMutability": "view",
      "type": "function"
    },
    {
      "inputs": [
        {
          "internalType": "address",
          "name": "to",
          "type": "address"
        },
        {
          "internalType": "uint256",
          "name": "amount",
          "type": "uint256"
        }
      ],
      "name": "transfer",
      "outputs": [
        {
          "internalType": "bool",
          "name": "",
          "type": "bool"
        }
      ],
      "stateMutability": "nonpayable",
      "type": "function"
    },
    {
      "inputs": [
        {
          "internalType": "address",
          "name": "from",
          "type": "address"
        },
        {
          "internalType": "address",
          "name": "to",
          "type": "address"
        },
        {
          "internalType": "uint256",
          "name": "amount",
          "type": "uint256"
        }
      ],
      "name": "transferFrom",
      "outputs": [
        {
          "internalType": "bool",
          "name": "",
          "type": "bool"
        }
      ],
      "stateMutability": "nonpayable",
      "type": "function"
    },
    {
      "inputs": [
        {
          "internalType": "address",
          "name": "newOwner",
          "type": "address"
        }
      ],
      "name": "transferOwnership",
      "outputs": [],
      "stateMutability": "nonpayable",
      "type": "function"
    }
  ],
  "bytecode": "0x60806040526802b5e3af16b188000060065542600760006101000a81548163ffffffff021916908363ffffffff1602179055503480156200003f57600080fd5b506040518060400160405280600c81526020017f5441534b203120544f4b454e00000000000000000000000000000000000000008152506040518060400160405280600381526020017f54315400000000000000000000000000000000000000000000000000000000008152508160039080519060200190620000c4929190620005cf565b508060049080519060200190620000dd929190620005cf565b50505062000100620000f46200014e60201b60201c565b6200015660201b60201c565b6200012b620001146200021c60201b60201c565b69021e19e0c9bab24000006200024660201b60201c565b620001473069021e19e0c9bab2400000620003bf60201b60201c565b506200095b565b600033905090565b6000600560009054906101000a900473ffffffffffffffffffffffffffffffffffffffff16905081600560006101000a81548173ffffffffffffffffffffffffffffffffffffffff021916908373ffffffffffffffffffffffffffffffffffffffff1602179055508173ffffffffffffffffffffffffffffffffffffffff168173ffffffffffffffffffffffffffffffffffffffff167f8be0079c531659141344cd1fd0a4f28419497f9722a3daafe3b4186f6b6457e060405160405180910390a35050565b6000600560009054906101000a900473ffffffffffffffffffffffffffffffffffffffff16905090565b600073ffffffffffffffffffffffffffffffffffffffff168273ffffffffffffffffffffffffffffffffffffffff161415620002b9576040517f08c379a0000000000000000000000000000000000000000000000000000000008152600401620002b09062000749565b60405180910390fd5b620002cd60008383620003f260201b60201c565b8060026000828254620002e1919062000799565b92505081905550806000808473ffffffffffffffffffffffffffffffffffffffff1673ffffffffffffffffffffffffffffffffffffffff168152602001908152602001600020600082825462000338919062000799565b925050819055508173ffffffffffffffffffffffffffffffffffffffff16600073ffffffffffffffffffffffffffffffffffffffff167fddf252ad1be2c89b69c2b068fc378daa952ba7f163c4a11628f55a4df523b3ef836040516200039f91906200076b565b60405180910390a3620003bb60008383620003f760201b60201c565b5050565b600080620003d26200014e60201b60201c565b9050620003e7818585620003fc60201b60201c565b600191505092915050565b505050565b505050565b600073ffffffffffffffffffffffffffffffffffffffff168373ffffffffffffffffffffffffffffffffffffffff1614156200046f576040517f08c379a0000000000000000000000000000000000000000000000000000000008152600401620004669062000727565b60405180910390fd5b600073ffffffffffffffffffffffffffffffffffffffff168273ffffffffffffffffffffffffffffffffffffffff161415620004e2576040517f08c379a0000000000000000000000000000000000000000000000000000000008152600401620004d99062000705565b60405180910390fd5b80600160008573ffffffffffffffffffffffffffffffffffffffff1673ffffffffffffffffffffffffffffffffffffffff16815260200190815260200160002060008473ffffffffffffffffffffffffffffffffffffffff1673ffffffffffffffffffffffffffffffffffffffff168152602001908152602001600020819055508173ffffffffffffffffffffffffffffffffffffffff168373ffffffffffffffffffffffffffffffffffffffff167f8c5be1e5ebec7d5bd14f71427d1e84f3dd0314c0f7b2291e5b200ac8c7c3b92583604051620005c291906200076b565b60405180910390a3505050565b828054620005dd9062000800565b90600052602060002090601f0160209004810192826200060157600085556200064d565b82601f106200061c57805160ff19168380011785556200064d565b828001600101855582156200064d579182015b828111156200064c5782518255916020019190600101906200062f565b5b5090506200065c919062000660565b5090565b5b808211156200067b57600081600090555060010162000661565b5090565b60006200068e60228362000788565b91506200069b8262000894565b604082019050919050565b6000620006b560248362000788565b9150620006c282620008e3565b604082019050919050565b6000620006dc601f8362000788565b9150620006e98262000932565b602082019050919050565b620006ff81620007f6565b82525050565b6000602082019050818103600083015262000720816200067f565b9050919050565b600060208201905081810360008301526200074281620006a6565b9050919050565b600060208201905081810360008301526200076481620006cd565b9050919050565b6000602082019050620007826000830184620006f4565b92915050565b600082825260208201905092915050565b6000620007a682620007f6565b9150620007b383620007f6565b9250827fffffffffffffffffffffffffffffffffffffffffffffffffffffffffffffffff03821115620007eb57620007ea62000836565b5b828201905092915050565b6000819050919050565b600060028204905060018216806200081957607f821691505b6020821081141562000830576200082f62000865565b5b50919050565b7f4e487b7100000000000000000000000000000000000000000000000000000000600052601160045260246000fd5b7f4e487b7100000000000000000000000000000000000000000000000000000000600052602260045260246000fd5b7f45524332303a20617070726f766520746f20746865207a65726f20616464726560008201527f7373000000000000000000000000000000000000000000000000000000000000602082015250565b7f45524332303a20617070726f76652066726f6d20746865207a65726f2061646460008201527f7265737300000000000000000000000000000000000000000000000000000000602082015250565b7f45524332303a206d696e7420746f20746865207a65726f206164647265737300600082015250565b611baa806200096b6000396000f3fe608060405234801561001057600080fd5b506004361061010b5760003560e01c8063715018a6116100a2578063a457c2d711610071578063a457c2d7146102aa578063a9059cbb146102da578063bb4c41741461030a578063dd62ed3e1461033a578063f2fde38b1461036a5761010b565b8063715018a6146102345780638cc080251461023e5780638da5cb5b1461026e57806395d89b411461028c5761010b565b8063313ce567116100de578063313ce567146101ac57806339509351146101ca5780634e71d92d146101fa57806370a08231146102045761010b565b806306fdde0314610110578063095ea7b31461012e57806318160ddd1461015e57806323b872dd1461017c575b600080fd5b610118610386565b60405161012591906114c5565b60405180910390f35b610148600480360381019061014391906111fd565b610418565b60405161015591906114aa565b60405180910390f35b61016661043b565b6040516101739190611647565b60405180910390f35b610196600480360381019061019191906111ae565b610445565b6040516101a391906114aa565b60405180910390f35b6101b4610474565b6040516101c19190611662565b60405180910390f35b6101e460048036038101906101df91906111fd565b61047d565b6040516101f191906114aa565b60405180910390f35b610202610527565b005b61021e60048036038101906102199190611149565b6106cc565b60405161022b9190611647565b60405180910390f35b61023c610714565b005b61025860048036038101906102539190611149565b61079c565b60405161026591906114aa565b60405180910390f35b6102766107f2565b6040516102839190611458565b60405180910390f35b61029461081c565b6040516102a191906114c5565b60405180910390f35b6102c460048036038101906102bf91906111fd565b6108ae565b6040516102d191906114aa565b60405180910390f35b6102f460048036038101906102ef91906111fd565b610998565b60405161030191906114aa565b60405180910390f35b610324600480360381019061031f9190611149565b6109bb565b60405161033191906114aa565b60405180910390f35b610354600480360381019061034f9190611172565b6109db565b6040516103619190611647565b60405180910390f35b610384600480360381019061037f9190611149565b610a62565b005b606060038054610395906117c1565b80601f01602080910402602001604051908101604052809291908181526020018280546103c1906117c1565b801561040e5780601f106103e35761010080835404028352916020019161040e565b820191906000526020600020905b8154815290600101906020018083116103f157829003601f168201915b5050505050905090565b600080610423610b5a565b9050610430818585610b62565b600191505092915050565b6000600254905090565b600080610450610b5a565b905061045d858285610d2d565b610468858585610db9565b60019150509392505050565b60006012905090565b600080610488610b5a565b905061051c818585600160008673ffffffffffffffffffffffffffffffffffffffff1673ffffffffffffffffffffffffffffffffffffffff16815260200190815260200160002060008973ffffffffffffffffffffffffffffffffffffffff1673ffffffffffffffffffffffffffffffffffffffff168152602001908152602001600020546105179190611699565b610b62565b600191505092915050565b6301e13380600760009054906101000a900463ffffffff1661054991906116ef565b63ffffffff164210610590576040517f08c379a000000000000000000000000000000000000000000000000000000000815260040161058790611507565b60405180910390fd5b6105993361079c565b156105d9576040517f08c379a00000000000000000000000000000000000000000000000000000000081526004016105d0906115c7565b60405180910390fd5b6001600860003373ffffffffffffffffffffffffffffffffffffffff1673ffffffffffffffffffffffffffffffffffffffff16815260200190815260200160002060006101000a81548160ff0219169083151502179055503073ffffffffffffffffffffffffffffffffffffffff166323b872dd6106556107f2565b336006546040518463ffffffff1660e01b815260040161067793929190611473565b602060405180830381600087803b15801561069157600080fd5b505af11580156106a5573d6000803e3d6000fd5b505050506040513d601f19601f820116820180604052508101906106c99190611239565b50565b60008060008373ffffffffffffffffffffffffffffffffffffffff1673ffffffffffffffffffffffffffffffffffffffff168152602001908152602001600020549050919050565b61071c610b5a565b73ffffffffffffffffffffffffffffffffffffffff1661073a6107f2565b73ffffffffffffffffffffffffffffffffffffffff1614610790576040517f08c379a0000000000000000000000000000000000000000000000000000000008152600401610787906115a7565b60405180910390fd5b61079a600061103a565b565b6000600860008373ffffffffffffffffffffffffffffffffffffffff1673ffffffffffffffffffffffffffffffffffffffff16815260200190815260200160002060009054906101000a900460ff169050919050565b6000600560009054906101000a900473ffffffffffffffffffffffffffffffffffffffff16905090565b60606004805461082b906117c1565b80601f0160208091040260200160405190810160405280929190818152602001828054610857906117c1565b80156108a45780601f10610879576101008083540402835291602001916108a4565b820191906000526020600020905b81548152906001019060200180831161088757829003601f168201915b5050505050905090565b6000806108b9610b5a565b90506000600160008373ffffffffffffffffffffffffffffffffffffffff1673ffffffffffffffffffffffffffffffffffffffff16815260200190815260200160002060008673ffffffffffffffffffffffffffffffffffffffff1673ffffffffffffffffffffffffffffffffffffffff1681526020019081526020016000205490508381101561097f576040517f08c379a000000000000000000000000000000000000000000000000000000000815260040161097690611627565b60405180910390fd5b61098c8286868403610b62565b60019250505092915050565b6000806109a3610b5a565b90506109b0818585610db9565b600191505092915050565b60086020528060005260406000206000915054906101000a900460ff1681565b6000600160008473ffffffffffffffffffffffffffffffffffffffff1673ffffffffffffffffffffffffffffffffffffffff16815260200190815260200160002060008373ffffffffffffffffffffffffffffffffffffffff1673ffffffffffffffffffffffffffffffffffffffff16815260200190815260200160002054905092915050565b610a6a610b5a565b73ffffffffffffffffffffffffffffffffffffffff16610a886107f2565b73ffffffffffffffffffffffffffffffffffffffff1614610ade576040517f08c379a0000000000000000000000000000000000000000000000000000000008152600401610ad5906115a7565b60405180910390fd5b600073ffffffffffffffffffffffffffffffffffffffff168173ffffffffffffffffffffffffffffffffffffffff161415610b4e576040517f08c379a0000000000000000000000000000000000000000000000000000000008152600401610b4590611527565b60405180910390fd5b610b578161103a565b50565b600033905090565b600073ffffffffffffffffffffffffffffffffffffffff168373ffffffffffffffffffffffffffffffffffffffff161415610bd2576040517f08c379a0000000000000000000000000000000000000000000000000000000008152600401610bc990611607565b60405180910390fd5b600073ffffffffffffffffffffffffffffffffffffffff168273ffffffffffffffffffffffffffffffffffffffff161415610c42576040517f08c379a0000000000000000000000000000000000000000000000000000000008152600401610c3990611547565b60405180910390fd5b80600160008573ffffffffffffffffffffffffffffffffffffffff1673ffffffffffffffffffffffffffffffffffffffff16815260200190815260200160002060008473ffffffffffffffffffffffffffffffffffffffff1673ffffffffffffffffffffffffffffffffffffffff168152602001908152602001600020819055508173ffffffffffffffffffffffffffffffffffffffff168373ffffffffffffffffffffffffffffffffffffffff167f8c5be1e5ebec7d5bd14f71427d1e84f3dd0314c0f7b2291e5b200ac8c7c3b92583604051610d209190611647565b60405180910390a3505050565b6000610d3984846109db565b90507fffffffffffffffffffffffffffffffffffffffffffffffffffffffffffffffff8114610db35781811015610da5576040517f08c379a0000000000000000000000000000000000000000000000000000000008152600401610d9c90611567565b60405180910390fd5b610db28484848403610b62565b5b50505050565b600073ffffffffffffffffffffffffffffffffffffffff168373ffffffffffffffffffffffffffffffffffffffff161415610e29576040517f08c379a0000000000000000000000000000000000000000000000000000000008152600401610e20906115e7565b60405180910390fd5b600073ffffffffffffffffffffffffffffffffffffffff168273ffffffffffffffffffffffffffffffffffffffff161415610e99576040517f08c379a0000000000000000000000000000000000000000000000000000000008152600401610e90906114e7565b60405180910390fd5b610ea4838383611100565b60008060008573ffffffffffffffffffffffffffffffffffffffff1673ffffffffffffffffffffffffffffffffffffffff16815260200190815260200160002054905081811015610f2a576040517f08c379a0000000000000000000000000000000000000000000000000000000008152600401610f2190611587565b60405180910390fd5b8181036000808673ffffffffffffffffffffffffffffffffffffffff1673ffffffffffffffffffffffffffffffffffffffff16815260200190815260200160002081905550816000808573ffffffffffffffffffffffffffffffffffffffff1673ffffffffffffffffffffffffffffffffffffffff1681526020019081526020016000206000828254610fbd9190611699565b925050819055508273ffffffffffffffffffffffffffffffffffffffff168473ffffffffffffffffffffffffffffffffffffffff167fddf252ad1be2c89b69c2b068fc378daa952ba7f163c4a11628f55a4df523b3ef846040516110219190611647565b60405180910390a3611034848484611105565b50505050565b6000600560009054906101000a900473ffffffffffffffffffffffffffffffffffffffff16905081600560006101000a81548173ffffffffffffffffffffffffffffffffffffffff021916908373ffffffffffffffffffffffffffffffffffffffff1602179055508173ffffffffffffffffffffffffffffffffffffffff168173ffffffffffffffffffffffffffffffffffffffff167f8be0079c531659141344cd1fd0a4f28419497f9722a3daafe3b4186f6b6457e060405160405180910390a35050565b505050565b505050565b60008135905061111981611b2f565b92915050565b60008151905061112e81611b46565b92915050565b60008135905061114381611b5d565b92915050565b60006020828403121561115b57600080fd5b60006111698482850161110a565b91505092915050565b6000806040838503121561118557600080fd5b60006111938582860161110a565b92505060206111a48582860161110a565b9150509250929050565b6000806000606084860312156111c357600080fd5b60006111d18682870161110a565b93505060206111e28682870161110a565b92505060406111f386828701611134565b9150509250925092565b6000806040838503121561121057600080fd5b600061121e8582860161110a565b925050602061122f85828601611134565b9150509250929050565b60006020828403121561124b57600080fd5b60006112598482850161111f565b91505092915050565b61126b81611729565b82525050565b61127a8161173b565b82525050565b600061128b8261167d565b6112958185611688565b93506112a581856020860161178e565b6112ae81611851565b840191505092915050565b60006112c6602383611688565b91506112d182611862565b604082019050919050565b60006112e9601383611688565b91506112f4826118b1565b602082019050919050565b600061130c602683611688565b9150611317826118da565b604082019050919050565b600061132f602283611688565b915061133a82611929565b604082019050919050565b6000611352601d83611688565b915061135d82611978565b602082019050919050565b6000611375602683611688565b9150611380826119a1565b604082019050919050565b6000611398602083611688565b91506113a3826119f0565b602082019050919050565b60006113bb600783611688565b91506113c682611a19565b602082019050919050565b60006113de602583611688565b91506113e982611a42565b604082019050919050565b6000611401602483611688565b915061140c82611a91565b604082019050919050565b6000611424602583611688565b915061142f82611ae0565b604082019050919050565b61144381611767565b82525050565b61145281611781565b82525050565b600060208201905061146d6000830184611262565b92915050565b60006060820190506114886000830186611262565b6114956020830185611262565b6114a2604083018461143a565b949350505050565b60006020820190506114bf6000830184611271565b92915050565b600060208201905081810360008301526114df8184611280565b905092915050565b60006020820190508181036000830152611500816112b9565b9050919050565b60006020820190508181036000830152611520816112dc565b9050919050565b60006020820190508181036000830152611540816112ff565b9050919050565b6000602082019050818103600083015261156081611322565b9050919050565b6000602082019050818103600083015261158081611345565b9050919050565b600060208201905081810360008301526115a081611368565b9050919050565b600060208201905081810360008301526115c08161138b565b9050919050565b600060208201905081810360008301526115e0816113ae565b9050919050565b60006020820190508181036000830152611600816113d1565b9050919050565b60006020820190508181036000830152611620816113f4565b9050919050565b6000602082019050818103600083015261164081611417565b9050919050565b600060208201905061165c600083018461143a565b92915050565b60006020820190506116776000830184611449565b92915050565b600081519050919050565b600082825260208201905092915050565b60006116a482611767565b91506116af83611767565b9250827fffffffffffffffffffffffffffffffffffffffffffffffffffffffffffffffff038211156116e4576116e36117f3565b5b828201905092915050565b60006116fa82611771565b915061170583611771565b92508263ffffffff0382111561171e5761171d6117f3565b5b828201905092915050565b600061173482611747565b9050919050565b60008115159050919050565b600073ffffffffffffffffffffffffffffffffffffffff82169050919050565b6000819050919050565b600063ffffffff82169050919050565b600060ff82169050919050565b60005b838110156117ac578082015181840152602081019050611791565b838111156117bb576000848401525b50505050565b600060028204905060018216806117d957607f821691505b602082108114156117ed576117ec611822565b5b50919050565b7f4e487b7100000000000000000000000000000000000000000000000000000000600052601160045260246000fd5b7f4e487b7100000000000000000000000000000000000000000000000000000000600052602260045260246000fd5b6000601f19601f8301169050919050565b7f45524332303a207472616e7366657220746f20746865207a65726f206164647260008201527f6573730000000000000000000000000000000000000000000000000000000000602082015250565b7f436c61696d2054696d656f75742c536f72727900000000000000000000000000600082015250565b7f4f776e61626c653a206e6577206f776e657220697320746865207a65726f206160008201527f6464726573730000000000000000000000000000000000000000000000000000602082015250565b7f45524332303a20617070726f766520746f20746865207a65726f20616464726560008201527f7373000000000000000000000000000000000000000000000000000000000000602082015250565b7f45524332303a20696e73756666696369656e7420616c6c6f77616e6365000000600082015250565b7f45524332303a207472616e7366657220616d6f756e742065786365656473206260008201527f616c616e63650000000000000000000000000000000000000000000000000000602082015250565b7f4f776e61626c653a2063616c6c6572206973206e6f7420746865206f776e6572600082015250565b7f436c61696d656400000000000000000000000000000000000000000000000000600082015250565b7f45524332303a207472616e736665722066726f6d20746865207a65726f20616460008201527f6472657373000000000000000000000000000000000000000000000000000000602082015250565b7f45524332303a20617070726f76652066726f6d20746865207a65726f2061646460008201527f7265737300000000000000000000000000000000000000000000000000000000602082015250565b7f45524332303a2064656372656173656420616c6c6f77616e63652062656c6f7760008201527f207a65726f000000000000000000000000000000000000000000000000000000602082015250565b611b3881611729565b8114611b4357600080fd5b50565b611b4f8161173b565b8114611b5a57600080fd5b50565b611b6681611767565b8114611b7157600080fd5b5056fea26469706673582212201a78590c23cabf174a2184f47282a5ddec11d99f90188916e8ca9ea1caad600964736f6c63430008040033",
  "linkReferences": {},
  "deployedLinkReferences": {}
}