{
  "_format": "hh-sol-artifact-1",
  "contractName": "TASKNFT",
  "sourceName": "contracts/TaskNft.sol",
  "abi": [
    {
      "inputs": [
        {
          "internalType": "string",
          "name": "initBaseURI",
          "type": "string"
        }
      ],
      "stateMutability": "nonpayable",
      "type": "constructor"
    },
    {
      "inputs": [],
      "name": "ApprovalCallerNotOwnerNorApproved",
      "type": "error"
    },
    {
      "inputs": [],
      "name": "ApprovalQueryForNonexistentToken",
      "type": "error"
    },
    {
      "inputs": [],
      "name": "ApprovalToCurrentOwner",
      "type": "error"
    },
    {
      "inputs": [],
      "name": "ApproveToCaller",
      "type": "error"
    },
    {
      "inputs": [],
      "name": "BalanceQueryForZeroAddress",
      "type": "error"
    },
    {
      "inputs": [],
      "name": "MintToZeroAddress",
      "type": "error"
    },
    {
      "inputs": [],
      "name": "MintZeroQuantity",
      "type": "error"
    },
    {
      "inputs": [],
      "name": "MintedQueryForZeroAddress",
      "type": "error"
    },
    {
      "inputs": [],
      "name": "OwnerQueryForNonexistentToken",
      "type": "error"
    },
    {
      "inputs": [],
      "name": "TransferCallerNotOwnerNorApproved",
      "type": "error"
    },
    {
      "inputs": [],
      "name": "TransferFromIncorrectOwner",
      "type": "error"
    },
    {
      "inputs": [],
      "name": "TransferToNonERC721ReceiverImplementer",
      "type": "error"
    },
    {
      "inputs": [],
      "name": "TransferToZeroAddress",
      "type": "error"
    },
    {
      "inputs": [],
      "name": "URIQueryForNonexistentToken",
      "type": "error"
    },
    {
      "anonymous": false,
      "inputs": [
        {
          "indexed": true,
          "internalType": "address",
          "name": "owner",
          "type": "address"
        },
        {
          "indexed": true,
          "internalType": "address",
          "name": "approved",
          "type": "address"
        },
        {
          "indexed": true,
          "internalType": "uint256",
          "name": "tokenId",
          "type": "uint256"
        }
      ],
      "name": "Approval",
      "type": "event"
    },
    {
      "anonymous": false,
      "inputs": [
        {
          "indexed": true,
          "internalType": "address",
          "name": "owner",
          "type": "address"
        },
        {
          "indexed": true,
          "internalType": "address",
          "name": "operator",
          "type": "address"
        },
        {
          "indexed": false,
          "internalType": "bool",
          "name": "approved",
          "type": "bool"
        }
      ],
      "name": "ApprovalForAll",
      "type": "event"
    },
    {
      "anonymous": false,
      "inputs": [
        {
          "indexed": false,
          "internalType": "string",
          "name": "newBaseURI",
          "type": "string"
        }
      ],
      "name": "BaseURIChanged",
      "type": "event"
    },
    {
      "anonymous": false,
      "inputs": [
        {
          "indexed": false,
          "internalType": "address",
          "name": "minter",
          "type": "address"
        },
        {
          "indexed": false,
          "internalType": "uint256",
          "name": "amount",
          "type": "uint256"
        }
      ],
      "name": "Minted",
      "type": "event"
    },
    {
      "anonymous": false,
      "inputs": [
        {
          "indexed": true,
          "internalType": "address",
          "name": "previousOwner",
          "type": "address"
        },
        {
          "indexed": true,
          "internalType": "address",
          "name": "newOwner",
          "type": "address"
        }
      ],
      "name": "OwnershipTransferred",
      "type": "event"
    },
    {
      "anonymous": false,
      "inputs": [
        {
          "indexed": false,
          "internalType": "enum TASKNFT.Status",
          "name": "status",
          "type": "uint8"
        }
      ],
      "name": "StatusChanged",
      "type": "event"
    },
    {
      "anonymous": false,
      "inputs": [
        {
          "indexed": true,
          "internalType": "address",
          "name": "from",
          "type": "address"
        },
        {
          "indexed": true,
          "internalType": "address",
          "name": "to",
          "type": "address"
        },
        {
          "indexed": true,
          "internalType": "uint256",
          "name": "tokenId",
          "type": "uint256"
        }
      ],
      "name": "Transfer",
      "type": "event"
    },
    {
      "inputs": [],
      "name": "MAX_MINT_PER_ADDR",
      "outputs": [
        {
          "internalType": "uint256",
          "name": "",
          "type": "uint256"
        }
      ],
      "stateMutability": "view",
      "type": "function"
    },
    {
      "inputs": [],
      "name": "MAX_SUPPLY",
      "outputs": [
        {
          "internalType": "uint256",
          "name": "",
          "type": "uint256"
        }
      ],
      "stateMutability": "view",
      "type": "function"
    },
    {
      "inputs": [],
      "name": "PRICE",
      "outputs": [
        {
          "internalType": "uint256",
          "name": "",
          "type": "uint256"
        }
      ],
      "stateMutability": "view",
      "type": "function"
    },
    {
      "inputs": [
        {
          "internalType": "address",
          "name": "to",
          "type": "address"
        },
        {
          "internalType": "uint256",
          "name": "tokenId",
          "type": "uint256"
        }
      ],
      "name": "approve",
      "outputs": [],
      "stateMutability": "nonpayable",
      "type": "function"
    },
    {
      "inputs": [
        {
          "internalType": "address",
          "name": "owner",
          "type": "address"
        }
      ],
      "name": "balanceOf",
      "outputs": [
        {
          "internalType": "uint256",
          "name": "",
          "type": "uint256"
        }
      ],
      "stateMutability": "view",
      "type": "function"
    },
    {
      "inputs": [],
      "name": "baseURI",
      "outputs": [
        {
          "internalType": "string",
          "name": "",
          "type": "string"
        }
      ],
      "stateMutability": "view",
      "type": "function"
    },
    {
      "inputs": [],
      "name": "checkTotalMined",
      "outputs": [
        {
          "internalType": "uint256",
          "name": "",
          "type": "uint256"
        }
      ],
      "stateMutability": "view",
      "type": "function"
    },
    {
      "inputs": [
        {
          "internalType": "uint256",
          "name": "tokenId",
          "type": "uint256"
        }
      ],
      "name": "getApproved",
      "outputs": [
        {
          "internalType": "address",
          "name": "",
          "type": "address"
        }
      ],
      "stateMutability": "view",
      "type": "function"
    },
    {
      "inputs": [
        {
          "internalType": "address",
          "name": "owner",
          "type": "address"
        },
        {
          "internalType": "address",
          "name": "operator",
          "type": "address"
        }
      ],
      "name": "isApprovedForAll",
      "outputs": [
        {
          "internalType": "bool",
          "name": "",
          "type": "bool"
        }
      ],
      "stateMutability": "view",
      "type": "function"
    },
    {
      "inputs": [
        {
          "internalType": "uint256",
          "name": "quantity",
          "type": "uint256"
        }
      ],
      "name": "mint",
      "outputs": [],
      "stateMutability": "payable",
      "type": "function"
    },
    {
      "inputs": [],
      "name": "name",
      "outputs": [
        {
          "internalType": "string",
          "name": "",
          "type": "string"
        }
      ],
      "stateMutability": "view",
      "type": "function"
    },
    {
      "inputs": [
        {
          "internalType": "address",
          "name": "owner",
          "type": "address"
        }
      ],
      "name": "numberMinted",
      "outputs": [
        {
          "internalType": "uint256",
          "name": "",
          "type": "uint256"
        }
      ],
      "stateMutability": "view",
      "type": "function"
    },
    {
      "inputs": [],
      "name": "owner",
      "outputs": [
        {
          "internalType": "address",
          "name": "",
          "type": "address"
        }
      ],
      "stateMutability": "view",
      "type": "function"
    },
    {
      "inputs": [
        {
          "internalType": "uint256",
          "name": "tokenId",
          "type": "uint256"
        }
      ],
      "name": "ownerOf",
      "outputs": [
        {
          "internalType": "address",
          "name": "",
          "type": "address"
        }
      ],
      "stateMutability": "view",
      "type": "function"
    },
    {
      "inputs": [],
      "name": "renounceOwnership",
      "outputs": [],
      "stateMutability": "nonpayable",
      "type": "function"
    },
    {
      "inputs": [
        {
          "internalType": "address",
          "name": "from",
          "type": "address"
        },
        {
          "internalType": "address",
          "name": "to",
          "type": "address"
        },
        {
          "internalType": "uint256",
          "name": "tokenId",
          "type": "uint256"
        }
      ],
      "name": "safeTransferFrom",
      "outputs": [],
      "stateMutability": "nonpayable",
      "type": "function"
    },
    {
      "inputs": [
        {
          "internalType": "address",
          "name": "from",
          "type": "address"
        },
        {
          "internalType": "address",
          "name": "to",
          "type": "address"
        },
        {
          "internalType": "uint256",
          "name": "tokenId",
          "type": "uint256"
        },
        {
          "internalType": "bytes",
          "name": "_data",
          "type": "bytes"
        }
      ],
      "name": "safeTransferFrom",
      "outputs": [],
      "stateMutability": "nonpayable",
      "type": "function"
    },
    {
      "inputs": [
        {
          "internalType": "address",
          "name": "operator",
          "type": "address"
        },
        {
          "internalType": "bool",
          "name": "approved",
          "type": "bool"
        }
      ],
      "name": "setApprovalForAll",
      "outputs": [],
      "stateMutability": "nonpayable",
      "type": "function"
    },
    {
      "inputs": [
        {
          "internalType": "string",
          "name": "newBaseURI",
          "type": "string"
        }
      ],
      "name": "setBaseURI",
      "outputs": [],
      "stateMutability": "nonpayable",
      "type": "function"
    },
    {
      "inputs": [
        {
          "internalType": "enum TASKNFT.Status",
          "name": "_status",
          "type": "uint8"
        }
      ],
      "name": "setStatus",
      "outputs": [],
      "stateMutability": "nonpayable",
      "type": "function"
    },
    {
      "inputs": [],
      "name": "status",
      "outputs": [
        {
          "internalType": "enum TASKNFT.Status",
          "name": "",
          "type": "uint8"
        }
      ],
      "stateMutability": "view",
      "type": "function"
    },
    {
      "inputs": [
        {
          "internalType": "bytes4",
          "name": "interfaceId",
          "type": "bytes4"
        }
      ],
      "name": "supportsInterface",
      "outputs": [
        {
          "internalType": "bool",
          "name": "",
          "type": "bool"
        }
      ],
      "stateMutability": "view",
      "type": "function"
    },
    {
      "inputs": [],
      "name": "symbol",
      "outputs": [
        {
          "internalType": "string",
          "name": "",
          "type": "string"
        }
      ],
      "stateMutability": "view",
      "type": "function"
    },
    {
      "inputs": [],
      "name": "token",
      "outputs": [
        {
          "internalType": "contract ERC20",
          "name": "",
          "type": "address"
        }
      ],
      "stateMutability": "view",
      "type": "function"
    },
    {
      "inputs": [
        {
          "internalType": "uint256",
          "name": "tokenId",
          "type": "uint256"
        }
      ],
      "name": "tokenURI",
      "outputs": [
        {
          "internalType": "string",
          "name": "",
          "type": "string"
        }
      ],
      "stateMutability": "view",
      "type": "function"
    },
    {
      "inputs": [],
      "name": "totalSupply",
      "outputs": [
        {
          "internalType": "uint256",
          "name": "",
          "type": "uint256"
        }
      ],
      "stateMutability": "view",
      "type": "function"
    },
    {
      "inputs": [
        {
          "internalType": "address",
          "name": "from",
          "type": "address"
        },
        {
          "internalType": "address",
          "name": "to",
          "type": "address"
        },
        {
          "internalType": "uint256",
          "name": "tokenId",
          "type": "uint256"
        }
      ],
      "name": "transferFrom",
      "outputs": [],
      "stateMutability": "nonpayable",
      "type": "function"
    },
    {
      "inputs": [
        {
          "internalType": "address",
          "name": "newOwner",
          "type": "address"
        }
      ],
      "name": "transferOwnership",
      "outputs": [],
      "stateMutability": "nonpayable",
      "type": "function"
    },
    {
      "inputs": [
        {
          "internalType": "address payable",
          "name": "recipient",
          "type": "address"
        }
      ],
      "name": "withdraw",
      "outputs": [],
      "stateMutability": "nonpayable",
      "type": "function"
    }
  ],
  "bytecode": "0x608060405242600a60006101000a81548163ffffffff021916908363ffffffff1602179055503480156200003257600080fd5b506040516200455a3803806200455a833981810160405281019062000058919062000398565b6040518060400160405280600781526020017f5441534b4e4654000000000000000000000000000000000000000000000000008152506040518060400160405280600781526020017f5441534b4e4654000000000000000000000000000000000000000000000000008152508160029080519060200190620000dc92919062000276565b508060039080519060200190620000f592919062000276565b5062000106620001a360201b60201c565b60008190555050506200012e62000122620001a860201b60201c565b620001b060201b60201c565b80600990805190602001906200014692919062000276565b50736cb075bc3151f7fdad6a9841aedf54219a6720f6600a60046101000a81548173ffffffffffffffffffffffffffffffffffffffff021916908373ffffffffffffffffffffffffffffffffffffffff160217905550506200054d565b600090565b600033905090565b6000600860009054906101000a900473ffffffffffffffffffffffffffffffffffffffff16905081600860006101000a81548173ffffffffffffffffffffffffffffffffffffffff021916908373ffffffffffffffffffffffffffffffffffffffff1602179055508173ffffffffffffffffffffffffffffffffffffffff168173ffffffffffffffffffffffffffffffffffffffff167f8be0079c531659141344cd1fd0a4f28419497f9722a3daafe3b4186f6b6457e060405160405180910390a35050565b828054620002849062000472565b90600052602060002090601f016020900481019282620002a85760008555620002f4565b82601f10620002c357805160ff1916838001178555620002f4565b82800160010185558215620002f4579182015b82811115620002f3578251825591602001919060010190620002d6565b5b50905062000303919062000307565b5090565b5b808211156200032257600081600090555060010162000308565b5090565b60006200033d620003378462000406565b620003dd565b9050828152602081018484840111156200035657600080fd5b620003638482856200043c565b509392505050565b600082601f8301126200037d57600080fd5b81516200038f84826020860162000326565b91505092915050565b600060208284031215620003ab57600080fd5b600082015167ffffffffffffffff811115620003c657600080fd5b620003d4848285016200036b565b91505092915050565b6000620003e9620003fc565b9050620003f78282620004a8565b919050565b6000604051905090565b600067ffffffffffffffff8211156200042457620004236200050d565b5b6200042f826200053c565b9050602081019050919050565b60005b838110156200045c5780820151818401526020810190506200043f565b838111156200046c576000848401525b50505050565b600060028204905060018216806200048b57607f821691505b60208210811415620004a257620004a1620004de565b5b50919050565b620004b3826200053c565b810181811067ffffffffffffffff82111715620004d557620004d46200050d565b5b80604052505050565b7f4e487b7100000000000000000000000000000000000000000000000000000000600052602260045260246000fd5b7f4e487b7100000000000000000000000000000000000000000000000000000000600052604160045260246000fd5b6000601f19601f8301169050919050565b613ffd806200055d6000396000f3fe6080604052600436106101c25760003560e01c80636c0360eb116100f7578063a22cb46511610095578063dc33e68111610064578063dc33e68114610621578063e985e9c51461065e578063f2fde38b1461069b578063fc0c546a146106c4576101c2565b8063a22cb46514610567578063b88d4fde14610590578063c629efd7146105b9578063c87b56dd146105e4576101c2565b80638d859f3e116100d15780638d859f3e146104ca5780638da5cb5b146104f557806395d89b4114610520578063a0712d681461054b576101c2565b80636c0360eb1461044b57806370a0823114610476578063715018a6146104b3576101c2565b806323b872dd1161016457806342842e0e1161013e57806342842e0e1461039357806351cff8d9146103bc57806355f804b3146103e55780636352211e1461040e576101c2565b806323b872dd146103165780632e49d78b1461033f57806332cb6b0c14610368576101c2565b8063095ea7b3116101a0578063095ea7b31461026c578063161548621461029557806318160ddd146102c0578063200d2ed2146102eb576101c2565b806301ffc9a7146101c757806306fdde0314610204578063081812fc1461022f575b600080fd5b3480156101d357600080fd5b506101ee60048036038101906101e99190613113565b6106ef565b6040516101fb9190613630565b60405180910390f35b34801561021057600080fd5b506102196107d1565b60405161022691906136a5565b60405180910390f35b34801561023b57600080fd5b50610256600480360381019061025191906131d3565b610863565b6040516102639190613509565b60405180910390f35b34801561027857600080fd5b50610293600480360381019061028e91906130ae565b6108df565b005b3480156102a157600080fd5b506102aa6109ea565b6040516102b79190613807565b60405180910390f35b3480156102cc57600080fd5b506102d56109ef565b6040516102e29190613807565b60405180910390f35b3480156102f757600080fd5b50610300610a06565b60405161030d9190613666565b60405180910390f35b34801561032257600080fd5b5061033d60048036038101906103389190612fa8565b610a19565b005b34801561034b57600080fd5b5061036660048036038101906103619190613165565b610a29565b005b34801561037457600080fd5b5061037d610b3e565b60405161038a9190613807565b60405180910390f35b34801561039f57600080fd5b506103ba60048036038101906103b59190612fa8565b610b44565b005b3480156103c857600080fd5b506103e360048036038101906103de9190612f43565b610b64565b005b3480156103f157600080fd5b5061040c6004803603810190610407919061318e565b610d4e565b005b34801561041a57600080fd5b50610435600480360381019061043091906131d3565b610e19565b6040516104429190613509565b60405180910390f35b34801561045757600080fd5b50610460610e2f565b60405161046d91906136a5565b60405180910390f35b34801561048257600080fd5b5061049d60048036038101906104989190612f1a565b610ebd565b6040516104aa9190613807565b60405180910390f35b3480156104bf57600080fd5b506104c8610f8d565b005b3480156104d657600080fd5b506104df611015565b6040516104ec9190613807565b60405180910390f35b34801561050157600080fd5b5061050a61101a565b6040516105179190613509565b60405180910390f35b34801561052c57600080fd5b50610535611044565b60405161054291906136a5565b60405180910390f35b610565600480360381019061056091906131d3565b6110d6565b005b34801561057357600080fd5b5061058e60048036038101906105899190613072565b611552565b005b34801561059c57600080fd5b506105b760048036038101906105b29190612ff7565b6116ca565b005b3480156105c557600080fd5b506105ce611746565b6040516105db9190613807565b60405180910390f35b3480156105f057600080fd5b5061060b600480360381019061060691906131d3565b611755565b60405161061891906136a5565b60405180910390f35b34801561062d57600080fd5b5061064860048036038101906106439190612f1a565b6117f4565b6040516106559190613807565b60405180910390f35b34801561066a57600080fd5b5061068560048036038101906106809190612f6c565b611806565b6040516106929190613630565b60405180910390f35b3480156106a757600080fd5b506106c260048036038101906106bd9190612f1a565b61189a565b005b3480156106d057600080fd5b506106d9611992565b6040516106e6919061364b565b60405180910390f35b60007f80ac58cd000000000000000000000000000000000000000000000000000000007bffffffffffffffffffffffffffffffffffffffffffffffffffffffff1916827bffffffffffffffffffffffffffffffffffffffffffffffffffffffff191614806107ba57507f5b5e139f000000000000000000000000000000000000000000000000000000007bffffffffffffffffffffffffffffffffffffffffffffffffffffffff1916827bffffffffffffffffffffffffffffffffffffffffffffffffffffffff1916145b806107ca57506107c9826119b8565b5b9050919050565b6060600280546107e090613b48565b80601f016020809104026020016040519081016040528092919081815260200182805461080c90613b48565b80156108595780601f1061082e57610100808354040283529160200191610859565b820191906000526020600020905b81548152906001019060200180831161083c57829003601f168201915b5050505050905090565b600061086e82611a22565b6108a4576040517fcf4700e400000000000000000000000000000000000000000000000000000000815260040160405180910390fd5b6006600083815260200190815260200160002060009054906101000a900473ffffffffffffffffffffffffffffffffffffffff169050919050565b60006108ea82610e19565b90508073ffffffffffffffffffffffffffffffffffffffff168373ffffffffffffffffffffffffffffffffffffffff161415610952576040517f943f7b8c00000000000000000000000000000000000000000000000000000000815260040160405180910390fd5b8073ffffffffffffffffffffffffffffffffffffffff16610971611a70565b73ffffffffffffffffffffffffffffffffffffffff16141580156109a357506109a18161099c611a70565b611806565b155b156109da576040517fcfb3b94200000000000000000000000000000000000000000000000000000000815260040160405180910390fd5b6109e5838383611a78565b505050565b600181565b60006109f9611b2a565b6001546000540303905090565b600860149054906101000a900460ff1681565b610a24838383611b2f565b505050565b610a31611a70565b73ffffffffffffffffffffffffffffffffffffffff16610a4f61101a565b73ffffffffffffffffffffffffffffffffffffffff1614610aa5576040517f08c379a0000000000000000000000000000000000000000000000000000000008152600401610a9c90613767565b60405180910390fd5b80600860146101000a81548160ff02191690836000811115610af0577f4e487b7100000000000000000000000000000000000000000000000000000000600052602160045260246000fd5b02179055507fafa725e7f44cadb687a7043853fa1a7e7b8f0da74ce87ec546e9420f04da8c1e600860149054906101000a900460ff16604051610b339190613666565b60405180910390a150565b6103e881565b610b5f838383604051806020016040528060008152506116ca565b505050565b610b6c611a70565b73ffffffffffffffffffffffffffffffffffffffff16610b8a61101a565b73ffffffffffffffffffffffffffffffffffffffff1614610be0576040517f08c379a0000000000000000000000000000000000000000000000000000000008152600401610bd790613767565b60405180910390fd5b60004790506000479050600a60049054906101000a900473ffffffffffffffffffffffffffffffffffffffff1673ffffffffffffffffffffffffffffffffffffffff166323b872dd3033846040518463ffffffff1660e01b8152600401610c4993929190613584565b602060405180830381600087803b158015610c6357600080fd5b505af1158015610c77573d6000803e3d6000fd5b505050506040513d601f19601f82011682018060405250810190610c9b91906130ea565b5060008373ffffffffffffffffffffffffffffffffffffffff1683604051610cc2906134f4565b60006040518083038185875af1925050503d8060008114610cff576040519150601f19603f3d011682016040523d82523d6000602084013e610d04565b606091505b5050905080610d48576040517f08c379a0000000000000000000000000000000000000000000000000000000008152600401610d3f906137a7565b60405180910390fd5b50505050565b610d56611a70565b73ffffffffffffffffffffffffffffffffffffffff16610d7461101a565b73ffffffffffffffffffffffffffffffffffffffff1614610dca576040517f08c379a0000000000000000000000000000000000000000000000000000000008152600401610dc190613767565b60405180910390fd5b818160099190610ddb929190612cc5565b507f5411e8ebf1636d9e83d5fc4900bf80cbac82e8790da2a4c94db4895e889eedf68282604051610e0d929190613681565b60405180910390a15050565b6000610e2482612020565b600001519050919050565b60098054610e3c90613b48565b80601f0160208091040260200160405190810160405280929190818152602001828054610e6890613b48565b8015610eb55780601f10610e8a57610100808354040283529160200191610eb5565b820191906000526020600020905b815481529060010190602001808311610e9857829003601f168201915b505050505081565b60008073ffffffffffffffffffffffffffffffffffffffff168273ffffffffffffffffffffffffffffffffffffffff161415610f25576040517f8f4eb60400000000000000000000000000000000000000000000000000000000815260040160405180910390fd5b600560008373ffffffffffffffffffffffffffffffffffffffff1673ffffffffffffffffffffffffffffffffffffffff16815260200190815260200160002060000160009054906101000a900467ffffffffffffffff1667ffffffffffffffff169050919050565b610f95611a70565b73ffffffffffffffffffffffffffffffffffffffff16610fb361101a565b73ffffffffffffffffffffffffffffffffffffffff1614611009576040517f08c379a000000000000000000000000000000000000000000000000000000000815260040161100090613767565b60405180910390fd5b61101360006122af565b565b600081565b6000600860009054906101000a900473ffffffffffffffffffffffffffffffffffffffff16905090565b60606003805461105390613b48565b80601f016020809104026020016040519081016040528092919081815260200182805461107f90613b48565b80156110cc5780601f106110a1576101008083540402835291602001916110cc565b820191906000526020600020905b8154815290600101906020018083116110af57829003601f168201915b5050505050905090565b6000600a60049054906101000a900473ffffffffffffffffffffffffffffffffffffffff1673ffffffffffffffffffffffffffffffffffffffff166370a08231336040518263ffffffff1660e01b81526004016111339190613509565b60206040518083038186803b15801561114b57600080fd5b505afa15801561115f573d6000803e3d6000fd5b505050506040513d601f19601f8201168201806040525081019061118391906131fc565b90506000600a60049054906101000a900473ffffffffffffffffffffffffffffffffffffffff1673ffffffffffffffffffffffffffffffffffffffff1663dd62ed3e33306040518363ffffffff1660e01b81526004016111e4929190613524565b60206040518083038186803b1580156111fc57600080fd5b505afa158015611210573d6000803e3d6000fd5b505050506040513d601f19601f8201168201806040525081019061123491906131fc565b9050603282101561127a576040517f08c379a000000000000000000000000000000000000000000000000000000000815260040161127190613787565b60405180910390fd5b818111156112bd576040517f08c379a00000000000000000000000000000000000000000000000000000000081526004016112b490613727565b60405180910390fd5b6301e13380600a60009054906101000a900463ffffffff166112df919061391c565b63ffffffff164210611326576040517f08c379a000000000000000000000000000000000000000000000000000000000815260040161131d906136c7565b60405180910390fd5b3373ffffffffffffffffffffffffffffffffffffffff163273ffffffffffffffffffffffffffffffffffffffff1614611394576040517f08c379a000000000000000000000000000000000000000000000000000000000815260040161138b90613747565b60405180910390fd5b6001836113a0336117f4565b6113aa91906138c6565b11156113eb576040517f08c379a00000000000000000000000000000000000000000000000000000000081526004016113e290613707565b60405180910390fd5b6103e8836113f76109ef565b61140191906138c6565b1115611442576040517f08c379a0000000000000000000000000000000000000000000000000000000008152600401611439906137c7565b60405180910390fd5b61144c3384612375565b61146183600061145c9190613987565b612393565b600a60049054906101000a900473ffffffffffffffffffffffffffffffffffffffff1673ffffffffffffffffffffffffffffffffffffffff166323b872dd333060326040518463ffffffff1660e01b81526004016114c19392919061354d565b602060405180830381600087803b1580156114db57600080fd5b505af11580156114ef573d6000803e3d6000fd5b505050506040513d601f19601f8201168201806040525081019061151391906130ea565b507f30385c845b448a36257a6a1716e6ad2e1bc2cbe333cde1e69fe849ad6511adfe3384604051611545929190613607565b60405180910390a1505050565b61155a611a70565b73ffffffffffffffffffffffffffffffffffffffff168273ffffffffffffffffffffffffffffffffffffffff1614156115bf576040517fb06307db00000000000000000000000000000000000000000000000000000000815260040160405180910390fd5b80600760006115cc611a70565b73ffffffffffffffffffffffffffffffffffffffff1673ffffffffffffffffffffffffffffffffffffffff16815260200190815260200160002060008473ffffffffffffffffffffffffffffffffffffffff1673ffffffffffffffffffffffffffffffffffffffff16815260200190815260200160002060006101000a81548160ff0219169083151502179055508173ffffffffffffffffffffffffffffffffffffffff16611679611a70565b73ffffffffffffffffffffffffffffffffffffffff167f17307eab39ab6107e8899845ad3d59bd9653f200f220920489ca2b5937696c31836040516116be9190613630565b60405180910390a35050565b6116d5848484611b2f565b6116f48373ffffffffffffffffffffffffffffffffffffffff16612434565b8015611709575061170784848484612457565b155b15611740576040517fd1a57ed600000000000000000000000000000000000000000000000000000000815260040160405180910390fd5b50505050565b60006117506125b7565b905090565b606061176082611a22565b611796576040517fa14c4b5000000000000000000000000000000000000000000000000000000000815260040160405180910390fd5b60006117a06125ca565b90506000815114156117c157604051806020016040528060008152506117ec565b806117cb8461265c565b6040516020016117dc9291906134d0565b6040516020818303038152906040525b915050919050565b60006117ff82612809565b9050919050565b6000600760008473ffffffffffffffffffffffffffffffffffffffff1673ffffffffffffffffffffffffffffffffffffffff16815260200190815260200160002060008373ffffffffffffffffffffffffffffffffffffffff1673ffffffffffffffffffffffffffffffffffffffff16815260200190815260200160002060009054906101000a900460ff16905092915050565b6118a2611a70565b73ffffffffffffffffffffffffffffffffffffffff166118c061101a565b73ffffffffffffffffffffffffffffffffffffffff1614611916576040517f08c379a000000000000000000000000000000000000000000000000000000000815260040161190d90613767565b60405180910390fd5b600073ffffffffffffffffffffffffffffffffffffffff168173ffffffffffffffffffffffffffffffffffffffff161415611986576040517f08c379a000000000000000000000000000000000000000000000000000000000815260040161197d906136e7565b60405180910390fd5b61198f816122af565b50565b600a60049054906101000a900473ffffffffffffffffffffffffffffffffffffffff1681565b60007f01ffc9a7000000000000000000000000000000000000000000000000000000007bffffffffffffffffffffffffffffffffffffffffffffffffffffffff1916827bffffffffffffffffffffffffffffffffffffffffffffffffffffffff1916149050919050565b600081611a2d611b2a565b11158015611a3c575060005482105b8015611a69575060046000838152602001908152602001600020600001601c9054906101000a900460ff16155b9050919050565b600033905090565b826006600084815260200190815260200160002060006101000a81548173ffffffffffffffffffffffffffffffffffffffff021916908373ffffffffffffffffffffffffffffffffffffffff160217905550818373ffffffffffffffffffffffffffffffffffffffff168273ffffffffffffffffffffffffffffffffffffffff167f8c5be1e5ebec7d5bd14f71427d1e84f3dd0314c0f7b2291e5b200ac8c7c3b92560405160405180910390a4505050565b600090565b6000611b3a82612020565b90506000816000015173ffffffffffffffffffffffffffffffffffffffff16611b61611a70565b73ffffffffffffffffffffffffffffffffffffffff161480611b945750611b938260000151611b8e611a70565b611806565b5b80611bd95750611ba2611a70565b73ffffffffffffffffffffffffffffffffffffffff16611bc184610863565b73ffffffffffffffffffffffffffffffffffffffff16145b905080611c12576040517f59c896be00000000000000000000000000000000000000000000000000000000815260040160405180910390fd5b8473ffffffffffffffffffffffffffffffffffffffff16826000015173ffffffffffffffffffffffffffffffffffffffff1614611c7b576040517fa114810000000000000000000000000000000000000000000000000000000000815260040160405180910390fd5b600073ffffffffffffffffffffffffffffffffffffffff168473ffffffffffffffffffffffffffffffffffffffff161415611ce2576040517fea553b3400000000000000000000000000000000000000000000000000000000815260040160405180910390fd5b611cef85858560016128d9565b611cff6000848460000151611a78565b6001600560008773ffffffffffffffffffffffffffffffffffffffff1673ffffffffffffffffffffffffffffffffffffffff16815260200190815260200160002060000160008282829054906101000a900467ffffffffffffffff160392506101000a81548167ffffffffffffffff021916908367ffffffffffffffff1602179055506001600560008673ffffffffffffffffffffffffffffffffffffffff1673ffffffffffffffffffffffffffffffffffffffff16815260200190815260200160002060000160008282829054906101000a900467ffffffffffffffff160192506101000a81548167ffffffffffffffff021916908367ffffffffffffffff160217905550836004600085815260200190815260200160002060000160006101000a81548173ffffffffffffffffffffffffffffffffffffffff021916908373ffffffffffffffffffffffffffffffffffffffff160217905550426004600085815260200190815260200160002060000160146101000a81548167ffffffffffffffff021916908367ffffffffffffffff1602179055506000600184019050600073ffffffffffffffffffffffffffffffffffffffff166004600083815260200190815260200160002060000160009054906101000a900473ffffffffffffffffffffffffffffffffffffffff1673ffffffffffffffffffffffffffffffffffffffff161415611fb057600054811015611faf5782600001516004600083815260200190815260200160002060000160006101000a81548173ffffffffffffffffffffffffffffffffffffffff021916908373ffffffffffffffffffffffffffffffffffffffff16021790555082602001516004600083815260200190815260200160002060000160146101000a81548167ffffffffffffffff021916908367ffffffffffffffff1602179055505b5b50828473ffffffffffffffffffffffffffffffffffffffff168673ffffffffffffffffffffffffffffffffffffffff167fddf252ad1be2c89b69c2b068fc378daa952ba7f163c4a11628f55a4df523b3ef60405160405180910390a461201985858560016128df565b5050505050565b612028612d4b565b600082905080612036611b2a565b11158015612045575060005481105b15612278576000600460008381526020019081526020016000206040518060600160405290816000820160009054906101000a900473ffffffffffffffffffffffffffffffffffffffff1673ffffffffffffffffffffffffffffffffffffffff1673ffffffffffffffffffffffffffffffffffffffff1681526020016000820160149054906101000a900467ffffffffffffffff1667ffffffffffffffff1667ffffffffffffffff16815260200160008201601c9054906101000a900460ff1615151515815250509050806040015161227657600073ffffffffffffffffffffffffffffffffffffffff16816000015173ffffffffffffffffffffffffffffffffffffffff161461215a5780925050506122aa565b5b60011561227557818060019003925050600460008381526020019081526020016000206040518060600160405290816000820160009054906101000a900473ffffffffffffffffffffffffffffffffffffffff1673ffffffffffffffffffffffffffffffffffffffff1673ffffffffffffffffffffffffffffffffffffffff1681526020016000820160149054906101000a900467ffffffffffffffff1667ffffffffffffffff1667ffffffffffffffff16815260200160008201601c9054906101000a900460ff1615151515815250509050600073ffffffffffffffffffffffffffffffffffffffff16816000015173ffffffffffffffffffffffffffffffffffffffff16146122705780925050506122aa565b61215b565b5b505b6040517fdf2d9b4200000000000000000000000000000000000000000000000000000000815260040160405180910390fd5b919050565b6000600860009054906101000a900473ffffffffffffffffffffffffffffffffffffffff16905081600860006101000a81548173ffffffffffffffffffffffffffffffffffffffff021916908373ffffffffffffffffffffffffffffffffffffffff1602179055508173ffffffffffffffffffffffffffffffffffffffff168173ffffffffffffffffffffffffffffffffffffffff167f8be0079c531659141344cd1fd0a4f28419497f9722a3daafe3b4186f6b6457e060405160405180910390a35050565b61238f8282604051806020016040528060008152506128e5565b5050565b803410156123d6576040517f08c379a00000000000000000000000000000000000000000000000000000000081526004016123cd906137e7565b60405180910390fd5b80341115612431573373ffffffffffffffffffffffffffffffffffffffff166108fc823461240491906139e1565b9081150290604051600060405180830381858888f1935050505015801561242f573d6000803e3d6000fd5b505b50565b6000808273ffffffffffffffffffffffffffffffffffffffff163b119050919050565b60008373ffffffffffffffffffffffffffffffffffffffff1663150b7a0261247d611a70565b8786866040518563ffffffff1660e01b815260040161249f94939291906135bb565b602060405180830381600087803b1580156124b957600080fd5b505af19250505080156124ea57506040513d601f19601f820116820180604052508101906124e7919061313c565b60015b612564573d806000811461251a576040519150601f19603f3d011682016040523d82523d6000602084013e61251f565b606091505b5060008151141561255c576040517fd1a57ed600000000000000000000000000000000000000000000000000000000815260040160405180910390fd5b805181602001fd5b63150b7a0260e01b7bffffffffffffffffffffffffffffffffffffffffffffffffffffffff1916817bffffffffffffffffffffffffffffffffffffffffffffffffffffffff191614915050949350505050565b60006125c1611b2a565b60005403905090565b6060600980546125d990613b48565b80601f016020809104026020016040519081016040528092919081815260200182805461260590613b48565b80156126525780601f1061262757610100808354040283529160200191612652565b820191906000526020600020905b81548152906001019060200180831161263557829003601f168201915b5050505050905090565b606060008214156126a4576040518060400160405280600181526020017f30000000000000000000000000000000000000000000000000000000000000008152509050612804565b600082905060005b600082146126d65780806126bf90613bab565b915050600a826126cf9190613956565b91506126ac565b60008167ffffffffffffffff811115612718577f4e487b7100000000000000000000000000000000000000000000000000000000600052604160045260246000fd5b6040519080825280601f01601f19166020018201604052801561274a5781602001600182028036833780820191505090505b5090505b600085146127fd5760018261276391906139e1565b9150600a856127729190613bf4565b603061277e91906138c6565b60f81b8183815181106127ba577f4e487b7100000000000000000000000000000000000000000000000000000000600052603260045260246000fd5b60200101907effffffffffffffffffffffffffffffffffffffffffffffffffffffffffffff1916908160001a905350600a856127f69190613956565b945061274e565b8093505050505b919050565b60008073ffffffffffffffffffffffffffffffffffffffff168273ffffffffffffffffffffffffffffffffffffffff161415612871576040517f35ebb31900000000000000000000000000000000000000000000000000000000815260040160405180910390fd5b600560008373ffffffffffffffffffffffffffffffffffffffff1673ffffffffffffffffffffffffffffffffffffffff16815260200190815260200160002060000160089054906101000a900467ffffffffffffffff1667ffffffffffffffff169050919050565b50505050565b50505050565b6128f283838360016128f7565b505050565b600080549050600073ffffffffffffffffffffffffffffffffffffffff168573ffffffffffffffffffffffffffffffffffffffff161415612964576040517f2e07630000000000000000000000000000000000000000000000000000000000815260040160405180910390fd5b600084141561299f576040517fb562e8dd00000000000000000000000000000000000000000000000000000000815260040160405180910390fd5b6129ac60008683876128d9565b83600560008773ffffffffffffffffffffffffffffffffffffffff1673ffffffffffffffffffffffffffffffffffffffff16815260200190815260200160002060000160008282829054906101000a900467ffffffffffffffff160192506101000a81548167ffffffffffffffff021916908367ffffffffffffffff16021790555083600560008773ffffffffffffffffffffffffffffffffffffffff1673ffffffffffffffffffffffffffffffffffffffff16815260200190815260200160002060000160088282829054906101000a900467ffffffffffffffff160192506101000a81548167ffffffffffffffff021916908367ffffffffffffffff160217905550846004600083815260200190815260200160002060000160006101000a81548173ffffffffffffffffffffffffffffffffffffffff021916908373ffffffffffffffffffffffffffffffffffffffff160217905550426004600083815260200190815260200160002060000160146101000a81548167ffffffffffffffff021916908367ffffffffffffffff160217905550600081905060008582019050838015612b765750612b758773ffffffffffffffffffffffffffffffffffffffff16612434565b5b15612c3c575b818773ffffffffffffffffffffffffffffffffffffffff16600073ffffffffffffffffffffffffffffffffffffffff167fddf252ad1be2c89b69c2b068fc378daa952ba7f163c4a11628f55a4df523b3ef60405160405180910390a4612beb6000888480600101955088612457565b612c21576040517fd1a57ed600000000000000000000000000000000000000000000000000000000815260040160405180910390fd5b80821415612b7c578260005414612c3757600080fd5b612ca8565b5b818060010192508773ffffffffffffffffffffffffffffffffffffffff16600073ffffffffffffffffffffffffffffffffffffffff167fddf252ad1be2c89b69c2b068fc378daa952ba7f163c4a11628f55a4df523b3ef60405160405180910390a480821415612c3d575b816000819055505050612cbe60008683876128df565b5050505050565b828054612cd190613b48565b90600052602060002090601f016020900481019282612cf35760008555612d3a565b82601f10612d0c57803560ff1916838001178555612d3a565b82800160010185558215612d3a579182015b82811115612d39578235825591602001919060010190612d1e565b5b509050612d479190612d8e565b5090565b6040518060600160405280600073ffffffffffffffffffffffffffffffffffffffff168152602001600067ffffffffffffffff1681526020016000151581525090565b5b80821115612da7576000816000905550600101612d8f565b5090565b6000612dbe612db984613847565b613822565b905082815260208101848484011115612dd657600080fd5b612de1848285613b06565b509392505050565b600081359050612df881613f44565b92915050565b600081359050612e0d81613f5b565b92915050565b600081359050612e2281613f72565b92915050565b600081519050612e3781613f72565b92915050565b600081359050612e4c81613f89565b92915050565b600081519050612e6181613f89565b92915050565b600082601f830112612e7857600080fd5b8135612e88848260208601612dab565b91505092915050565b600081359050612ea081613fa0565b92915050565b60008083601f840112612eb857600080fd5b8235905067ffffffffffffffff811115612ed157600080fd5b602083019150836001820283011115612ee957600080fd5b9250929050565b600081359050612eff81613fb0565b92915050565b600081519050612f1481613fb0565b92915050565b600060208284031215612f2c57600080fd5b6000612f3a84828501612de9565b91505092915050565b600060208284031215612f5557600080fd5b6000612f6384828501612dfe565b91505092915050565b60008060408385031215612f7f57600080fd5b6000612f8d85828601612de9565b9250506020612f9e85828601612de9565b9150509250929050565b600080600060608486031215612fbd57600080fd5b6000612fcb86828701612de9565b9350506020612fdc86828701612de9565b9250506040612fed86828701612ef0565b9150509250925092565b6000806000806080858703121561300d57600080fd5b600061301b87828801612de9565b945050602061302c87828801612de9565b935050604061303d87828801612ef0565b925050606085013567ffffffffffffffff81111561305a57600080fd5b61306687828801612e67565b91505092959194509250565b6000806040838503121561308557600080fd5b600061309385828601612de9565b92505060206130a485828601612e13565b9150509250929050565b600080604083850312156130c157600080fd5b60006130cf85828601612de9565b92505060206130e085828601612ef0565b9150509250929050565b6000602082840312156130fc57600080fd5b600061310a84828501612e28565b91505092915050565b60006020828403121561312557600080fd5b600061313384828501612e3d565b91505092915050565b60006020828403121561314e57600080fd5b600061315c84828501612e52565b91505092915050565b60006020828403121561317757600080fd5b600061318584828501612e91565b91505092915050565b600080602083850312156131a157600080fd5b600083013567ffffffffffffffff8111156131bb57600080fd5b6131c785828601612ea6565b92509250509250929050565b6000602082840312156131e557600080fd5b60006131f384828501612ef0565b91505092915050565b60006020828403121561320e57600080fd5b600061321c84828501612f05565b91505092915050565b61322e81613a15565b82525050565b61323d81613a39565b82525050565b600061324e82613878565b613258818561388e565b9350613268818560208601613b15565b61327181613d10565b840191505092915050565b61328581613abe565b82525050565b61329481613ae2565b82525050565b6132a381613af4565b82525050565b60006132b583856138aa565b93506132c2838584613b06565b6132cb83613d10565b840190509392505050565b60006132e182613883565b6132eb81856138aa565b93506132fb818560208601613b15565b61330481613d10565b840191505092915050565b600061331a82613883565b61332481856138bb565b9350613334818560208601613b15565b80840191505092915050565b600061334d600d836138aa565b915061335882613d21565b602082019050919050565b60006133706026836138aa565b915061337b82613d4a565b604082019050919050565b60006133936020836138aa565b915061339e82613d99565b602082019050919050565b60006133b66022836138aa565b91506133c182613dc2565b604082019050919050565b60006133d9600f836138aa565b91506133e482613e11565b602082019050919050565b60006133fc6020836138aa565b915061340782613e3a565b602082019050919050565b600061341f6025836138aa565b915061342a82613e63565b604082019050919050565b60006134426012836138aa565b915061344d82613eb2565b602082019050919050565b60006134656012836138aa565b915061347082613edb565b602082019050919050565b600061348860008361389f565b915061349382613f04565b600082019050919050565b60006134ab6010836138aa565b91506134b682613f07565b602082019050919050565b6134ca81613aa4565b82525050565b60006134dc828561330f565b91506134e8828461330f565b91508190509392505050565b60006134ff8261347b565b9150819050919050565b600060208201905061351e6000830184613225565b92915050565b60006040820190506135396000830185613225565b6135466020830184613225565b9392505050565b60006060820190506135626000830186613225565b61356f6020830185613225565b61357c604083018461329a565b949350505050565b60006060820190506135996000830186613225565b6135a66020830185613225565b6135b360408301846134c1565b949350505050565b60006080820190506135d06000830187613225565b6135dd6020830186613225565b6135ea60408301856134c1565b81810360608301526135fc8184613243565b905095945050505050565b600060408201905061361c6000830185613225565b61362960208301846134c1565b9392505050565b60006020820190506136456000830184613234565b92915050565b6000602082019050613660600083018461327c565b92915050565b600060208201905061367b600083018461328b565b92915050565b6000602082019050818103600083015261369c8184866132a9565b90509392505050565b600060208201905081810360008301526136bf81846132d6565b905092915050565b600060208201905081810360008301526136e081613340565b9050919050565b6000602082019050818103600083015261370081613363565b9050919050565b6000602082019050818103600083015261372081613386565b9050919050565b60006020820190508181036000830152613740816133a9565b9050919050565b60006020820190508181036000830152613760816133cc565b9050919050565b60006020820190508181036000830152613780816133ef565b9050919050565b600060208201905081810360008301526137a081613412565b9050919050565b600060208201905081810360008301526137c081613435565b9050919050565b600060208201905081810360008301526137e081613458565b9050919050565b600060208201905081810360008301526138008161349e565b9050919050565b600060208201905061381c60008301846134c1565b92915050565b600061382c61383d565b90506138388282613b7a565b919050565b6000604051905090565b600067ffffffffffffffff82111561386257613861613ce1565b5b61386b82613d10565b9050602081019050919050565b600081519050919050565b600081519050919050565b600082825260208201905092915050565b600081905092915050565b600082825260208201905092915050565b600081905092915050565b60006138d182613aa4565b91506138dc83613aa4565b9250827fffffffffffffffffffffffffffffffffffffffffffffffffffffffffffffffff0382111561391157613910613c25565b5b828201905092915050565b600061392782613aae565b915061393283613aae565b92508263ffffffff0382111561394b5761394a613c25565b5b828201905092915050565b600061396182613aa4565b915061396c83613aa4565b92508261397c5761397b613c54565b5b828204905092915050565b600061399282613aa4565b915061399d83613aa4565b9250817fffffffffffffffffffffffffffffffffffffffffffffffffffffffffffffffff04831182151516156139d6576139d5613c25565b5b828202905092915050565b60006139ec82613aa4565b91506139f783613aa4565b925082821015613a0a57613a09613c25565b5b828203905092915050565b6000613a2082613a84565b9050919050565b6000613a3282613a84565b9050919050565b60008115159050919050565b60007fffffffff0000000000000000000000000000000000000000000000000000000082169050919050565b6000819050613a7f82613f30565b919050565b600073ffffffffffffffffffffffffffffffffffffffff82169050919050565b6000819050919050565b600063ffffffff82169050919050565b6000613ac982613ad0565b9050919050565b6000613adb82613a84565b9050919050565b6000613aed82613a71565b9050919050565b6000613aff82613aa4565b9050919050565b82818337600083830152505050565b60005b83811015613b33578082015181840152602081019050613b18565b83811115613b42576000848401525b50505050565b60006002820490506001821680613b6057607f821691505b60208210811415613b7457613b73613cb2565b5b50919050565b613b8382613d10565b810181811067ffffffffffffffff82111715613ba257613ba1613ce1565b5b80604052505050565b6000613bb682613aa4565b91507fffffffffffffffffffffffffffffffffffffffffffffffffffffffffffffffff821415613be957613be8613c25565b5b600182019050919050565b6000613bff82613aa4565b9150613c0a83613aa4565b925082613c1a57613c19613c54565b5b828206905092915050565b7f4e487b7100000000000000000000000000000000000000000000000000000000600052601160045260246000fd5b7f4e487b7100000000000000000000000000000000000000000000000000000000600052601260045260246000fd5b7f4e487b7100000000000000000000000000000000000000000000000000000000600052602160045260246000fd5b7f4e487b7100000000000000000000000000000000000000000000000000000000600052602260045260246000fd5b7f4e487b7100000000000000000000000000000000000000000000000000000000600052604160045260246000fd5b6000601f19601f8301169050919050565b7f5441534b4e46543a20656e642e00000000000000000000000000000000000000600082015250565b7f4f776e61626c653a206e6577206f776e657220697320746865207a65726f206160008201527f6464726573730000000000000000000000000000000000000000000000000000602082015250565b7f5441534b4e46543a206d6178206d696e7420706572206164647220697320312e600082015250565b7f5441534b4e46543a20636865636b2074686520746f6b656e20616c6c6f77616e60008201527f6365000000000000000000000000000000000000000000000000000000000000602082015250565b7f5441534b4e46543a2063616e27742e0000000000000000000000000000000000600082015250565b7f4f776e61626c653a2063616c6c6572206973206e6f7420746865206f776e6572600082015250565b7f5441534b4e46543a20796f752068617665206174206c6561737420353020353060008201527f205441534b000000000000000000000000000000000000000000000000000000602082015250565b7f5441534b4e46543a2077697468647261772e0000000000000000000000000000600082015250565b7f5441534b4e46543a20736f6c64206f75742e0000000000000000000000000000600082015250565b50565b7f5441534b4e46543a20726566756e642e00000000000000000000000000000000600082015250565b60018110613f4157613f40613c83565b5b50565b613f4d81613a15565b8114613f5857600080fd5b50565b613f6481613a27565b8114613f6f57600080fd5b50565b613f7b81613a39565b8114613f8657600080fd5b50565b613f9281613a45565b8114613f9d57600080fd5b50565b60018110613fad57600080fd5b50565b613fb981613aa4565b8114613fc457600080fd5b5056fea26469706673582212200f35f05ed312aa3c4602f6dddf3da633722dd8b528aa3353e0417b0c03914ffc64736f6c63430008040033",
  "linkReferences": {},
  "deployedLinkReferences": {}
}