{
  "_format": "hh-sol-artifact-1",
  "contractName": "Task",
  "sourceName": "contracts/Task.sol",
  "abi": [
    {
      "inputs": [],
      "stateMutability": "nonpayable",
      "type": "constructor"
    },
    {
      "anonymous": false,
      "inputs": [
        {
          "indexed": true,
          "internalType": "address",
          "name": "owner",
          "type": "address"
        },
        {
          "indexed": true,
          "internalType": "address",
          "name": "spender",
          "type": "address"
        },
        {
          "indexed": false,
          "internalType": "uint256",
          "name": "value",
          "type": "uint256"
        }
      ],
      "name": "Approval",
      "type": "event"
    },
    {
      "anonymous": false,
      "inputs": [
        {
          "indexed": true,
          "internalType": "address",
          "name": "from",
          "type": "address"
        },
        {
          "indexed": true,
          "internalType": "address",
          "name": "to",
          "type": "address"
        },
        {
          "indexed": false,
          "internalType": "uint256",
          "name": "value",
          "type": "uint256"
        }
      ],
      "name": "Transfer",
      "type": "event"
    },
    {
      "inputs": [
        {
          "internalType": "address",
          "name": "owner",
          "type": "address"
        },
        {
          "internalType": "address",
          "name": "spender",
          "type": "address"
        }
      ],
      "name": "allowance",
      "outputs": [
        {
          "internalType": "uint256",
          "name": "",
          "type": "uint256"
        }
      ],
      "stateMutability": "view",
      "type": "function"
    },
    {
      "inputs": [
        {
          "internalType": "address",
          "name": "spender",
          "type": "address"
        },
        {
          "internalType": "uint256",
          "name": "amount",
          "type": "uint256"
        }
      ],
      "name": "approve",
      "outputs": [
        {
          "internalType": "bool",
          "name": "",
          "type": "bool"
        }
      ],
      "stateMutability": "nonpayable",
      "type": "function"
    },
    {
      "inputs": [
        {
          "internalType": "address",
          "name": "account",
          "type": "address"
        }
      ],
      "name": "balanceOf",
      "outputs": [
        {
          "internalType": "uint256",
          "name": "",
          "type": "uint256"
        }
      ],
      "stateMutability": "view",
      "type": "function"
    },
    {
      "inputs": [],
      "name": "claim",
      "outputs": [],
      "stateMutability": "nonpayable",
      "type": "function"
    },
    {
      "inputs": [
        {
          "internalType": "address",
          "name": "",
          "type": "address"
        }
      ],
      "name": "claimUsers",
      "outputs": [
        {
          "internalType": "bool",
          "name": "",
          "type": "bool"
        }
      ],
      "stateMutability": "view",
      "type": "function"
    },
    {
      "inputs": [],
      "name": "decimals",
      "outputs": [
        {
          "internalType": "uint8",
          "name": "",
          "type": "uint8"
        }
      ],
      "stateMutability": "view",
      "type": "function"
    },
    {
      "inputs": [
        {
          "internalType": "address",
          "name": "spender",
          "type": "address"
        },
        {
          "internalType": "uint256",
          "name": "subtractedValue",
          "type": "uint256"
        }
      ],
      "name": "decreaseAllowance",
      "outputs": [
        {
          "internalType": "bool",
          "name": "",
          "type": "bool"
        }
      ],
      "stateMutability": "nonpayable",
      "type": "function"
    },
    {
      "inputs": [
        {
          "internalType": "address",
          "name": "spender",
          "type": "address"
        },
        {
          "internalType": "uint256",
          "name": "addedValue",
          "type": "uint256"
        }
      ],
      "name": "increaseAllowance",
      "outputs": [
        {
          "internalType": "bool",
          "name": "",
          "type": "bool"
        }
      ],
      "stateMutability": "nonpayable",
      "type": "function"
    },
    {
      "inputs": [
        {
          "internalType": "address",
          "name": "_address",
          "type": "address"
        }
      ],
      "name": "isClaimed",
      "outputs": [
        {
          "internalType": "bool",
          "name": "",
          "type": "bool"
        }
      ],
      "stateMutability": "view",
      "type": "function"
    },
    {
      "inputs": [],
      "name": "name",
      "outputs": [
        {
          "internalType": "string",
          "name": "",
          "type": "string"
        }
      ],
      "stateMutability": "view",
      "type": "function"
    },
    {
      "inputs": [],
      "name": "symbol",
      "outputs": [
        {
          "internalType": "string",
          "name": "",
          "type": "string"
        }
      ],
      "stateMutability": "view",
      "type": "function"
    },
    {
      "inputs": [],
      "name": "totalSupply",
      "outputs": [
        {
          "internalType": "uint256",
          "name": "",
          "type": "uint256"
        }
      ],
      "stateMutability": "view",
      "type": "function"
    },
    {
      "inputs": [
        {
          "internalType": "address",
          "name": "to",
          "type": "address"
        },
        {
          "internalType": "uint256",
          "name": "amount",
          "type": "uint256"
        }
      ],
      "name": "transfer",
      "outputs": [
        {
          "internalType": "bool",
          "name": "",
          "type": "bool"
        }
      ],
      "stateMutability": "nonpayable",
      "type": "function"
    },
    {
      "inputs": [
        {
          "internalType": "address",
          "name": "from",
          "type": "address"
        },
        {
          "internalType": "address",
          "name": "to",
          "type": "address"
        },
        {
          "internalType": "uint256",
          "name": "amount",
          "type": "uint256"
        }
      ],
      "name": "transferFrom",
      "outputs": [
        {
          "internalType": "bool",
          "name": "",
          "type": "bool"
        }
      ],
      "stateMutability": "nonpayable",
      "type": "function"
    }
  ],
  "bytecode": "0x6080604052603260055542600660006101000a81548163ffffffff021916908363ffffffff1602179055503480156200003757600080fd5b506040518060400160405280600c81526020017f5441534b203120544f4b454e00000000000000000000000000000000000000008152506040518060400160405280600381526020017f54315400000000000000000000000000000000000000000000000000000000008152508160039080519060200190620000bc9291906200029f565b508060049080519060200190620000d59291906200029f565b50505062000116735100f54ad9fb0653327d523cf62c30bd1543388a600269021e19e0c9bab24000006200010a919062000434565b6200011c60201b60201c565b62000562565b600073ffffffffffffffffffffffffffffffffffffffff168273ffffffffffffffffffffffffffffffffffffffff1614156200018f576040517f08c379a0000000000000000000000000000000000000000000000000000000008152600401620001869062000387565b60405180910390fd5b620001a3600083836200029560201b60201c565b8060026000828254620001b79190620003d7565b92505081905550806000808473ffffffffffffffffffffffffffffffffffffffff1673ffffffffffffffffffffffffffffffffffffffff16815260200190815260200160002060008282546200020e9190620003d7565b925050819055508173ffffffffffffffffffffffffffffffffffffffff16600073ffffffffffffffffffffffffffffffffffffffff167fddf252ad1be2c89b69c2b068fc378daa952ba7f163c4a11628f55a4df523b3ef83604051620002759190620003a9565b60405180910390a362000291600083836200029a60201b60201c565b5050565b505050565b505050565b828054620002ad9062000476565b90600052602060002090601f016020900481019282620002d157600085556200031d565b82601f10620002ec57805160ff19168380011785556200031d565b828001600101855582156200031d579182015b828111156200031c578251825591602001919060010190620002ff565b5b5090506200032c919062000330565b5090565b5b808211156200034b57600081600090555060010162000331565b5090565b60006200035e601f83620003c6565b91506200036b8262000539565b602082019050919050565b62000381816200046c565b82525050565b60006020820190508181036000830152620003a2816200034f565b9050919050565b6000602082019050620003c0600083018462000376565b92915050565b600082825260208201905092915050565b6000620003e4826200046c565b9150620003f1836200046c565b9250827fffffffffffffffffffffffffffffffffffffffffffffffffffffffffffffffff03821115620004295762000428620004ac565b5b828201905092915050565b600062000441826200046c565b91506200044e836200046c565b925082620004615762000460620004db565b5b828204905092915050565b6000819050919050565b600060028204905060018216806200048f57607f821691505b60208210811415620004a657620004a56200050a565b5b50919050565b7f4e487b7100000000000000000000000000000000000000000000000000000000600052601160045260246000fd5b7f4e487b7100000000000000000000000000000000000000000000000000000000600052601260045260246000fd5b7f4e487b7100000000000000000000000000000000000000000000000000000000600052602260045260246000fd5b7f45524332303a206d696e7420746f20746865207a65726f206164647265737300600082015250565b61186080620005726000396000f3fe608060405234801561001057600080fd5b50600436106100ea5760003560e01c806370a082311161008c578063a457c2d711610066578063a457c2d714610261578063a9059cbb14610291578063bb4c4174146102c1578063dd62ed3e146102f1576100ea565b806370a08231146101e35780638cc080251461021357806395d89b4114610243576100ea565b806323b872dd116100c857806323b872dd1461015b578063313ce5671461018b57806339509351146101a95780634e71d92d146101d9576100ea565b806306fdde03146100ef578063095ea7b31461010d57806318160ddd1461013d575b600080fd5b6100f7610321565b6040516101049190611201565b60405180910390f35b61012760048036038101906101229190610fe6565b6103b3565b60405161013491906111e6565b60405180910390f35b6101456103d6565b6040516101529190611363565b60405180910390f35b61017560048036038101906101709190610f97565b6103e0565b60405161018291906111e6565b60405180910390f35b61019361040f565b6040516101a0919061137e565b60405180910390f35b6101c360048036038101906101be9190610fe6565b610418565b6040516101d091906111e6565b60405180910390f35b6101e16104c2565b005b6101fd60048036038101906101f89190610f32565b6105da565b60405161020a9190611363565b60405180910390f35b61022d60048036038101906102289190610f32565b610622565b60405161023a91906111e6565b60405180910390f35b61024b610678565b6040516102589190611201565b60405180910390f35b61027b60048036038101906102769190610fe6565b61070a565b60405161028891906111e6565b60405180910390f35b6102ab60048036038101906102a69190610fe6565b6107f4565b6040516102b891906111e6565b60405180910390f35b6102db60048036038101906102d69190610f32565b610817565b6040516102e891906111e6565b60405180910390f35b61030b60048036038101906103069190610f5b565b610837565b6040516103189190611363565b60405180910390f35b606060038054610330906114dd565b80601f016020809104026020016040519081016040528092919081815260200182805461035c906114dd565b80156103a95780601f1061037e576101008083540402835291602001916103a9565b820191906000526020600020905b81548152906001019060200180831161038c57829003601f168201915b5050505050905090565b6000806103be6108be565b90506103cb8185856108c6565b600191505092915050565b6000600254905090565b6000806103eb6108be565b90506103f8858285610a91565b610403858585610b1d565b60019150509392505050565b60006012905090565b6000806104236108be565b90506104b7818585600160008673ffffffffffffffffffffffffffffffffffffffff1673ffffffffffffffffffffffffffffffffffffffff16815260200190815260200160002060008973ffffffffffffffffffffffffffffffffffffffff1673ffffffffffffffffffffffffffffffffffffffff168152602001908152602001600020546104b291906113b5565b6108c6565b600191505092915050565b6301e13380600660009054906101000a900463ffffffff166104e4919061140b565b63ffffffff16421161052b576040517f08c379a0000000000000000000000000000000000000000000000000000000008152600401610522906112c3565b60405180910390fd5b61053433610622565b15610574576040517f08c379a000000000000000000000000000000000000000000000000000000000815260040161056b906112a3565b60405180910390fd5b6001600760003373ffffffffffffffffffffffffffffffffffffffff1673ffffffffffffffffffffffffffffffffffffffff16815260200190815260200160002060006101000a81548160ff0219169083151502179055506105d833600554610d9e565b565b60008060008373ffffffffffffffffffffffffffffffffffffffff1673ffffffffffffffffffffffffffffffffffffffff168152602001908152602001600020549050919050565b6000600760008373ffffffffffffffffffffffffffffffffffffffff1673ffffffffffffffffffffffffffffffffffffffff16815260200190815260200160002060009054906101000a900460ff169050919050565b606060048054610687906114dd565b80601f01602080910402602001604051908101604052809291908181526020018280546106b3906114dd565b80156107005780601f106106d557610100808354040283529160200191610700565b820191906000526020600020905b8154815290600101906020018083116106e357829003601f168201915b5050505050905090565b6000806107156108be565b90506000600160008373ffffffffffffffffffffffffffffffffffffffff1673ffffffffffffffffffffffffffffffffffffffff16815260200190815260200160002060008673ffffffffffffffffffffffffffffffffffffffff1673ffffffffffffffffffffffffffffffffffffffff168152602001908152602001600020549050838110156107db576040517f08c379a00000000000000000000000000000000000000000000000000000000081526004016107d290611323565b60405180910390fd5b6107e882868684036108c6565b60019250505092915050565b6000806107ff6108be565b905061080c818585610b1d565b600191505092915050565b60076020528060005260406000206000915054906101000a900460ff1681565b6000600160008473ffffffffffffffffffffffffffffffffffffffff1673ffffffffffffffffffffffffffffffffffffffff16815260200190815260200160002060008373ffffffffffffffffffffffffffffffffffffffff1673ffffffffffffffffffffffffffffffffffffffff16815260200190815260200160002054905092915050565b600033905090565b600073ffffffffffffffffffffffffffffffffffffffff168373ffffffffffffffffffffffffffffffffffffffff161415610936576040517f08c379a000000000000000000000000000000000000000000000000000000000815260040161092d90611303565b60405180910390fd5b600073ffffffffffffffffffffffffffffffffffffffff168273ffffffffffffffffffffffffffffffffffffffff1614156109a6576040517f08c379a000000000000000000000000000000000000000000000000000000000815260040161099d90611243565b60405180910390fd5b80600160008573ffffffffffffffffffffffffffffffffffffffff1673ffffffffffffffffffffffffffffffffffffffff16815260200190815260200160002060008473ffffffffffffffffffffffffffffffffffffffff1673ffffffffffffffffffffffffffffffffffffffff168152602001908152602001600020819055508173ffffffffffffffffffffffffffffffffffffffff168373ffffffffffffffffffffffffffffffffffffffff167f8c5be1e5ebec7d5bd14f71427d1e84f3dd0314c0f7b2291e5b200ac8c7c3b92583604051610a849190611363565b60405180910390a3505050565b6000610a9d8484610837565b90507fffffffffffffffffffffffffffffffffffffffffffffffffffffffffffffffff8114610b175781811015610b09576040517f08c379a0000000000000000000000000000000000000000000000000000000008152600401610b0090611263565b60405180910390fd5b610b1684848484036108c6565b5b50505050565b600073ffffffffffffffffffffffffffffffffffffffff168373ffffffffffffffffffffffffffffffffffffffff161415610b8d576040517f08c379a0000000000000000000000000000000000000000000000000000000008152600401610b84906112e3565b60405180910390fd5b600073ffffffffffffffffffffffffffffffffffffffff168273ffffffffffffffffffffffffffffffffffffffff161415610bfd576040517f08c379a0000000000000000000000000000000000000000000000000000000008152600401610bf490611223565b60405180910390fd5b610c08838383610efe565b60008060008573ffffffffffffffffffffffffffffffffffffffff1673ffffffffffffffffffffffffffffffffffffffff16815260200190815260200160002054905081811015610c8e576040517f08c379a0000000000000000000000000000000000000000000000000000000008152600401610c8590611283565b60405180910390fd5b8181036000808673ffffffffffffffffffffffffffffffffffffffff1673ffffffffffffffffffffffffffffffffffffffff16815260200190815260200160002081905550816000808573ffffffffffffffffffffffffffffffffffffffff1673ffffffffffffffffffffffffffffffffffffffff1681526020019081526020016000206000828254610d2191906113b5565b925050819055508273ffffffffffffffffffffffffffffffffffffffff168473ffffffffffffffffffffffffffffffffffffffff167fddf252ad1be2c89b69c2b068fc378daa952ba7f163c4a11628f55a4df523b3ef84604051610d859190611363565b60405180910390a3610d98848484610f03565b50505050565b600073ffffffffffffffffffffffffffffffffffffffff168273ffffffffffffffffffffffffffffffffffffffff161415610e0e576040517f08c379a0000000000000000000000000000000000000000000000000000000008152600401610e0590611343565b60405180910390fd5b610e1a60008383610efe565b8060026000828254610e2c91906113b5565b92505081905550806000808473ffffffffffffffffffffffffffffffffffffffff1673ffffffffffffffffffffffffffffffffffffffff1681526020019081526020016000206000828254610e8191906113b5565b925050819055508173ffffffffffffffffffffffffffffffffffffffff16600073ffffffffffffffffffffffffffffffffffffffff167fddf252ad1be2c89b69c2b068fc378daa952ba7f163c4a11628f55a4df523b3ef83604051610ee69190611363565b60405180910390a3610efa60008383610f03565b5050565b505050565b505050565b600081359050610f17816117fc565b92915050565b600081359050610f2c81611813565b92915050565b600060208284031215610f4457600080fd5b6000610f5284828501610f08565b91505092915050565b60008060408385031215610f6e57600080fd5b6000610f7c85828601610f08565b9250506020610f8d85828601610f08565b9150509250929050565b600080600060608486031215610fac57600080fd5b6000610fba86828701610f08565b9350506020610fcb86828701610f08565b9250506040610fdc86828701610f1d565b9150509250925092565b60008060408385031215610ff957600080fd5b600061100785828601610f08565b925050602061101885828601610f1d565b9150509250929050565b61102b81611457565b82525050565b600061103c82611399565b61104681856113a4565b93506110568185602086016114aa565b61105f8161156d565b840191505092915050565b60006110776023836113a4565b91506110828261157e565b604082019050919050565b600061109a6022836113a4565b91506110a5826115cd565b604082019050919050565b60006110bd601d836113a4565b91506110c88261161c565b602082019050919050565b60006110e06026836113a4565b91506110eb82611645565b604082019050919050565b60006111036007836113a4565b915061110e82611694565b602082019050919050565b60006111266011836113a4565b9150611131826116bd565b602082019050919050565b60006111496025836113a4565b9150611154826116e6565b604082019050919050565b600061116c6024836113a4565b915061117782611735565b604082019050919050565b600061118f6025836113a4565b915061119a82611784565b604082019050919050565b60006111b2601f836113a4565b91506111bd826117d3565b602082019050919050565b6111d181611483565b82525050565b6111e08161149d565b82525050565b60006020820190506111fb6000830184611022565b92915050565b6000602082019050818103600083015261121b8184611031565b905092915050565b6000602082019050818103600083015261123c8161106a565b9050919050565b6000602082019050818103600083015261125c8161108d565b9050919050565b6000602082019050818103600083015261127c816110b0565b9050919050565b6000602082019050818103600083015261129c816110d3565b9050919050565b600060208201905081810360008301526112bc816110f6565b9050919050565b600060208201905081810360008301526112dc81611119565b9050919050565b600060208201905081810360008301526112fc8161113c565b9050919050565b6000602082019050818103600083015261131c8161115f565b9050919050565b6000602082019050818103600083015261133c81611182565b9050919050565b6000602082019050818103600083015261135c816111a5565b9050919050565b600060208201905061137860008301846111c8565b92915050565b600060208201905061139360008301846111d7565b92915050565b600081519050919050565b600082825260208201905092915050565b60006113c082611483565b91506113cb83611483565b9250827fffffffffffffffffffffffffffffffffffffffffffffffffffffffffffffffff03821115611400576113ff61150f565b5b828201905092915050565b60006114168261148d565b91506114218361148d565b92508263ffffffff0382111561143a5761143961150f565b5b828201905092915050565b600061145082611463565b9050919050565b60008115159050919050565b600073ffffffffffffffffffffffffffffffffffffffff82169050919050565b6000819050919050565b600063ffffffff82169050919050565b600060ff82169050919050565b60005b838110156114c85780820151818401526020810190506114ad565b838111156114d7576000848401525b50505050565b600060028204905060018216806114f557607f821691505b602082108114156115095761150861153e565b5b50919050565b7f4e487b7100000000000000000000000000000000000000000000000000000000600052601160045260246000fd5b7f4e487b7100000000000000000000000000000000000000000000000000000000600052602260045260246000fd5b6000601f19601f8301169050919050565b7f45524332303a207472616e7366657220746f20746865207a65726f206164647260008201527f6573730000000000000000000000000000000000000000000000000000000000602082015250565b7f45524332303a20617070726f766520746f20746865207a65726f20616464726560008201527f7373000000000000000000000000000000000000000000000000000000000000602082015250565b7f45524332303a20696e73756666696369656e7420616c6c6f77616e6365000000600082015250565b7f45524332303a207472616e7366657220616d6f756e742065786365656473206260008201527f616c616e63650000000000000000000000000000000000000000000000000000602082015250565b7f636c61696d656400000000000000000000000000000000000000000000000000600082015250565b7f636c61696d2074696d656f75742c737279000000000000000000000000000000600082015250565b7f45524332303a207472616e736665722066726f6d20746865207a65726f20616460008201527f6472657373000000000000000000000000000000000000000000000000000000602082015250565b7f45524332303a20617070726f76652066726f6d20746865207a65726f2061646460008201527f7265737300000000000000000000000000000000000000000000000000000000602082015250565b7f45524332303a2064656372656173656420616c6c6f77616e63652062656c6f7760008201527f207a65726f000000000000000000000000000000000000000000000000000000602082015250565b7f45524332303a206d696e7420746f20746865207a65726f206164647265737300600082015250565b61180581611445565b811461181057600080fd5b50565b61181c81611483565b811461182757600080fd5b5056fea26469706673582212208a5cafa5ffb215e76fbda98a5a71192cfa2be613c95dceb226122cb8edeba62264736f6c63430008040033",
  "linkReferences": {},
  "deployedLinkReferences": {}
}