{
  "_format": "hh-sol-artifact-1",
  "contractName": "Task",
  "sourceName": "contracts/Task.sol",
  "abi": [
    {
      "inputs": [],
      "stateMutability": "nonpayable",
      "type": "constructor"
    },
    {
      "anonymous": false,
      "inputs": [
        {
          "indexed": true,
          "internalType": "address",
          "name": "owner",
          "type": "address"
        },
        {
          "indexed": true,
          "internalType": "address",
          "name": "spender",
          "type": "address"
        },
        {
          "indexed": false,
          "internalType": "uint256",
          "name": "value",
          "type": "uint256"
        }
      ],
      "name": "Approval",
      "type": "event"
    },
    {
      "anonymous": false,
      "inputs": [
        {
          "indexed": true,
          "internalType": "address",
          "name": "from",
          "type": "address"
        },
        {
          "indexed": true,
          "internalType": "address",
          "name": "to",
          "type": "address"
        },
        {
          "indexed": false,
          "internalType": "uint256",
          "name": "value",
          "type": "uint256"
        }
      ],
      "name": "Transfer",
      "type": "event"
    },
    {
      "inputs": [
        {
          "internalType": "address",
          "name": "owner",
          "type": "address"
        },
        {
          "internalType": "address",
          "name": "spender",
          "type": "address"
        }
      ],
      "name": "allowance",
      "outputs": [
        {
          "internalType": "uint256",
          "name": "",
          "type": "uint256"
        }
      ],
      "stateMutability": "view",
      "type": "function"
    },
    {
      "inputs": [
        {
          "internalType": "address",
          "name": "spender",
          "type": "address"
        },
        {
          "internalType": "uint256",
          "name": "amount",
          "type": "uint256"
        }
      ],
      "name": "approve",
      "outputs": [
        {
          "internalType": "bool",
          "name": "",
          "type": "bool"
        }
      ],
      "stateMutability": "nonpayable",
      "type": "function"
    },
    {
      "inputs": [
        {
          "internalType": "address",
          "name": "account",
          "type": "address"
        }
      ],
      "name": "balanceOf",
      "outputs": [
        {
          "internalType": "uint256",
          "name": "",
          "type": "uint256"
        }
      ],
      "stateMutability": "view",
      "type": "function"
    },
    {
      "inputs": [],
      "name": "claim",
      "outputs": [],
      "stateMutability": "nonpayable",
      "type": "function"
    },
    {
      "inputs": [
        {
          "internalType": "address",
          "name": "",
          "type": "address"
        }
      ],
      "name": "claimUsers",
      "outputs": [
        {
          "internalType": "bool",
          "name": "",
          "type": "bool"
        }
      ],
      "stateMutability": "view",
      "type": "function"
    },
    {
      "inputs": [],
      "name": "decimals",
      "outputs": [
        {
          "internalType": "uint8",
          "name": "",
          "type": "uint8"
        }
      ],
      "stateMutability": "view",
      "type": "function"
    },
    {
      "inputs": [
        {
          "internalType": "address",
          "name": "spender",
          "type": "address"
        },
        {
          "internalType": "uint256",
          "name": "subtractedValue",
          "type": "uint256"
        }
      ],
      "name": "decreaseAllowance",
      "outputs": [
        {
          "internalType": "bool",
          "name": "",
          "type": "bool"
        }
      ],
      "stateMutability": "nonpayable",
      "type": "function"
    },
    {
      "inputs": [
        {
          "internalType": "address",
          "name": "spender",
          "type": "address"
        },
        {
          "internalType": "uint256",
          "name": "addedValue",
          "type": "uint256"
        }
      ],
      "name": "increaseAllowance",
      "outputs": [
        {
          "internalType": "bool",
          "name": "",
          "type": "bool"
        }
      ],
      "stateMutability": "nonpayable",
      "type": "function"
    },
    {
      "inputs": [
        {
          "internalType": "address",
          "name": "_address",
          "type": "address"
        }
      ],
      "name": "isClaimed",
      "outputs": [
        {
          "internalType": "bool",
          "name": "",
          "type": "bool"
        }
      ],
      "stateMutability": "view",
      "type": "function"
    },
    {
      "inputs": [],
      "name": "name",
      "outputs": [
        {
          "internalType": "string",
          "name": "",
          "type": "string"
        }
      ],
      "stateMutability": "view",
      "type": "function"
    },
    {
      "inputs": [],
      "name": "symbol",
      "outputs": [
        {
          "internalType": "string",
          "name": "",
          "type": "string"
        }
      ],
      "stateMutability": "view",
      "type": "function"
    },
    {
      "inputs": [],
      "name": "totalSupply",
      "outputs": [
        {
          "internalType": "uint256",
          "name": "",
          "type": "uint256"
        }
      ],
      "stateMutability": "view",
      "type": "function"
    },
    {
      "inputs": [
        {
          "internalType": "address",
          "name": "to",
          "type": "address"
        },
        {
          "internalType": "uint256",
          "name": "amount",
          "type": "uint256"
        }
      ],
      "name": "transfer",
      "outputs": [
        {
          "internalType": "bool",
          "name": "",
          "type": "bool"
        }
      ],
      "stateMutability": "nonpayable",
      "type": "function"
    },
    {
      "inputs": [
        {
          "internalType": "address",
          "name": "from",
          "type": "address"
        },
        {
          "internalType": "address",
          "name": "to",
          "type": "address"
        },
        {
          "internalType": "uint256",
          "name": "amount",
          "type": "uint256"
        }
      ],
      "name": "transferFrom",
      "outputs": [
        {
          "internalType": "bool",
          "name": "",
          "type": "bool"
        }
      ],
      "stateMutability": "nonpayable",
      "type": "function"
    }
  ],
  "bytecode": "0x60806040526802b5e3af16b188000060055542600660006101000a81548163ffffffff021916908363ffffffff1602179055503480156200003f57600080fd5b506040518060400160405280600c81526020017f5441534b203120544f4b454e00000000000000000000000000000000000000008152506040518060400160405280600381526020017f54315400000000000000000000000000000000000000000000000000000000008152508160039080519060200190620000c4929190620002a7565b508060049080519060200190620000dd929190620002a7565b5050506200011e735100f54ad9fb0653327d523cf62c30bd1543388a600269021e19e0c9bab24000006200011291906200043c565b6200012460201b60201c565b6200056a565b600073ffffffffffffffffffffffffffffffffffffffff168273ffffffffffffffffffffffffffffffffffffffff16141562000197576040517f08c379a00000000000000000000000000000000000000000000000000000000081526004016200018e906200038f565b60405180910390fd5b620001ab600083836200029d60201b60201c565b8060026000828254620001bf9190620003df565b92505081905550806000808473ffffffffffffffffffffffffffffffffffffffff1673ffffffffffffffffffffffffffffffffffffffff1681526020019081526020016000206000828254620002169190620003df565b925050819055508173ffffffffffffffffffffffffffffffffffffffff16600073ffffffffffffffffffffffffffffffffffffffff167fddf252ad1be2c89b69c2b068fc378daa952ba7f163c4a11628f55a4df523b3ef836040516200027d9190620003b1565b60405180910390a36200029960008383620002a260201b60201c565b5050565b505050565b505050565b828054620002b5906200047e565b90600052602060002090601f016020900481019282620002d9576000855562000325565b82601f10620002f457805160ff191683800117855562000325565b8280016001018555821562000325579182015b828111156200032457825182559160200191906001019062000307565b5b50905062000334919062000338565b5090565b5b808211156200035357600081600090555060010162000339565b5090565b600062000366601f83620003ce565b9150620003738262000541565b602082019050919050565b620003898162000474565b82525050565b60006020820190508181036000830152620003aa8162000357565b9050919050565b6000602082019050620003c860008301846200037e565b92915050565b600082825260208201905092915050565b6000620003ec8262000474565b9150620003f98362000474565b9250827fffffffffffffffffffffffffffffffffffffffffffffffffffffffffffffffff03821115620004315762000430620004b4565b5b828201905092915050565b6000620004498262000474565b9150620004568362000474565b925082620004695762000468620004e3565b5b828204905092915050565b6000819050919050565b600060028204905060018216806200049757607f821691505b60208210811415620004ae57620004ad62000512565b5b50919050565b7f4e487b7100000000000000000000000000000000000000000000000000000000600052601160045260246000fd5b7f4e487b7100000000000000000000000000000000000000000000000000000000600052601260045260246000fd5b7f4e487b7100000000000000000000000000000000000000000000000000000000600052602260045260246000fd5b7f45524332303a206d696e7420746f20746865207a65726f206164647265737300600082015250565b611695806200057a6000396000f3fe608060405234801561001057600080fd5b50600436106100ea5760003560e01c806370a082311161008c578063a457c2d711610066578063a457c2d714610261578063a9059cbb14610291578063bb4c4174146102c1578063dd62ed3e146102f1576100ea565b806370a08231146101e35780638cc080251461021357806395d89b4114610243576100ea565b806323b872dd116100c857806323b872dd1461015b578063313ce5671461018b57806339509351146101a95780634e71d92d146101d9576100ea565b806306fdde03146100ef578063095ea7b31461010d57806318160ddd1461013d575b600080fd5b6100f7610321565b604051610104919061107f565b60405180910390f35b61012760048036038101906101229190610e87565b6103b3565b6040516101349190611064565b60405180910390f35b6101456103d6565b60405161015291906111c1565b60405180910390f35b61017560048036038101906101709190610e38565b6103e0565b6040516101829190611064565b60405180910390f35b61019361040f565b6040516101a091906111dc565b60405180910390f35b6101c360048036038101906101be9190610e87565b610418565b6040516101d09190611064565b60405180910390f35b6101e16104c2565b005b6101fd60048036038101906101f89190610dd3565b6105db565b60405161020a91906111c1565b60405180910390f35b61022d60048036038101906102289190610dd3565b610623565b60405161023a9190611064565b60405180910390f35b61024b610679565b604051610258919061107f565b60405180910390f35b61027b60048036038101906102769190610e87565b61070b565b6040516102889190611064565b60405180910390f35b6102ab60048036038101906102a69190610e87565b6107f5565b6040516102b89190611064565b60405180910390f35b6102db60048036038101906102d69190610dd3565b610818565b6040516102e89190611064565b60405180910390f35b61030b60048036038101906103069190610dfc565b610838565b60405161031891906111c1565b60405180910390f35b6060600380546103309061133b565b80601f016020809104026020016040519081016040528092919081815260200182805461035c9061133b565b80156103a95780601f1061037e576101008083540402835291602001916103a9565b820191906000526020600020905b81548152906001019060200180831161038c57829003601f168201915b5050505050905090565b6000806103be6108bf565b90506103cb8185856108c7565b600191505092915050565b6000600254905090565b6000806103eb6108bf565b90506103f8858285610a92565b610403858585610b1e565b60019150509392505050565b60006012905090565b6000806104236108bf565b90506104b7818585600160008673ffffffffffffffffffffffffffffffffffffffff1673ffffffffffffffffffffffffffffffffffffffff16815260200190815260200160002060008973ffffffffffffffffffffffffffffffffffffffff1673ffffffffffffffffffffffffffffffffffffffff168152602001908152602001600020546104b29190611213565b6108c7565b600191505092915050565b6301e13380600660009054906101000a900463ffffffff166104e49190611269565b63ffffffff16421061052b576040517f08c379a000000000000000000000000000000000000000000000000000000000815260040161052290611141565b60405180910390fd5b61053433610623565b15610574576040517f08c379a000000000000000000000000000000000000000000000000000000000815260040161056b90611121565b60405180910390fd5b6001600760003373ffffffffffffffffffffffffffffffffffffffff1673ffffffffffffffffffffffffffffffffffffffff16815260200190815260200160002060006101000a81548160ff0219169083151502179055506105d8336005546107f5565b50565b60008060008373ffffffffffffffffffffffffffffffffffffffff1673ffffffffffffffffffffffffffffffffffffffff168152602001908152602001600020549050919050565b6000600760008373ffffffffffffffffffffffffffffffffffffffff1673ffffffffffffffffffffffffffffffffffffffff16815260200190815260200160002060009054906101000a900460ff169050919050565b6060600480546106889061133b565b80601f01602080910402602001604051908101604052809291908181526020018280546106b49061133b565b80156107015780601f106106d657610100808354040283529160200191610701565b820191906000526020600020905b8154815290600101906020018083116106e457829003601f168201915b5050505050905090565b6000806107166108bf565b90506000600160008373ffffffffffffffffffffffffffffffffffffffff1673ffffffffffffffffffffffffffffffffffffffff16815260200190815260200160002060008673ffffffffffffffffffffffffffffffffffffffff1673ffffffffffffffffffffffffffffffffffffffff168152602001908152602001600020549050838110156107dc576040517f08c379a00000000000000000000000000000000000000000000000000000000081526004016107d3906111a1565b60405180910390fd5b6107e982868684036108c7565b60019250505092915050565b6000806108006108bf565b905061080d818585610b1e565b600191505092915050565b60076020528060005260406000206000915054906101000a900460ff1681565b6000600160008473ffffffffffffffffffffffffffffffffffffffff1673ffffffffffffffffffffffffffffffffffffffff16815260200190815260200160002060008373ffffffffffffffffffffffffffffffffffffffff1673ffffffffffffffffffffffffffffffffffffffff16815260200190815260200160002054905092915050565b600033905090565b600073ffffffffffffffffffffffffffffffffffffffff168373ffffffffffffffffffffffffffffffffffffffff161415610937576040517f08c379a000000000000000000000000000000000000000000000000000000000815260040161092e90611181565b60405180910390fd5b600073ffffffffffffffffffffffffffffffffffffffff168273ffffffffffffffffffffffffffffffffffffffff1614156109a7576040517f08c379a000000000000000000000000000000000000000000000000000000000815260040161099e906110c1565b60405180910390fd5b80600160008573ffffffffffffffffffffffffffffffffffffffff1673ffffffffffffffffffffffffffffffffffffffff16815260200190815260200160002060008473ffffffffffffffffffffffffffffffffffffffff1673ffffffffffffffffffffffffffffffffffffffff168152602001908152602001600020819055508173ffffffffffffffffffffffffffffffffffffffff168373ffffffffffffffffffffffffffffffffffffffff167f8c5be1e5ebec7d5bd14f71427d1e84f3dd0314c0f7b2291e5b200ac8c7c3b92583604051610a8591906111c1565b60405180910390a3505050565b6000610a9e8484610838565b90507fffffffffffffffffffffffffffffffffffffffffffffffffffffffffffffffff8114610b185781811015610b0a576040517f08c379a0000000000000000000000000000000000000000000000000000000008152600401610b01906110e1565b60405180910390fd5b610b1784848484036108c7565b5b50505050565b600073ffffffffffffffffffffffffffffffffffffffff168373ffffffffffffffffffffffffffffffffffffffff161415610b8e576040517f08c379a0000000000000000000000000000000000000000000000000000000008152600401610b8590611161565b60405180910390fd5b600073ffffffffffffffffffffffffffffffffffffffff168273ffffffffffffffffffffffffffffffffffffffff161415610bfe576040517f08c379a0000000000000000000000000000000000000000000000000000000008152600401610bf5906110a1565b60405180910390fd5b610c09838383610d9f565b60008060008573ffffffffffffffffffffffffffffffffffffffff1673ffffffffffffffffffffffffffffffffffffffff16815260200190815260200160002054905081811015610c8f576040517f08c379a0000000000000000000000000000000000000000000000000000000008152600401610c8690611101565b60405180910390fd5b8181036000808673ffffffffffffffffffffffffffffffffffffffff1673ffffffffffffffffffffffffffffffffffffffff16815260200190815260200160002081905550816000808573ffffffffffffffffffffffffffffffffffffffff1673ffffffffffffffffffffffffffffffffffffffff1681526020019081526020016000206000828254610d229190611213565b925050819055508273ffffffffffffffffffffffffffffffffffffffff168473ffffffffffffffffffffffffffffffffffffffff167fddf252ad1be2c89b69c2b068fc378daa952ba7f163c4a11628f55a4df523b3ef84604051610d8691906111c1565b60405180910390a3610d99848484610da4565b50505050565b505050565b505050565b600081359050610db881611631565b92915050565b600081359050610dcd81611648565b92915050565b600060208284031215610de557600080fd5b6000610df384828501610da9565b91505092915050565b60008060408385031215610e0f57600080fd5b6000610e1d85828601610da9565b9250506020610e2e85828601610da9565b9150509250929050565b600080600060608486031215610e4d57600080fd5b6000610e5b86828701610da9565b9350506020610e6c86828701610da9565b9250506040610e7d86828701610dbe565b9150509250925092565b60008060408385031215610e9a57600080fd5b6000610ea885828601610da9565b9250506020610eb985828601610dbe565b9150509250929050565b610ecc816112b5565b82525050565b6000610edd826111f7565b610ee78185611202565b9350610ef7818560208601611308565b610f00816113cb565b840191505092915050565b6000610f18602383611202565b9150610f23826113dc565b604082019050919050565b6000610f3b602283611202565b9150610f468261142b565b604082019050919050565b6000610f5e601d83611202565b9150610f698261147a565b602082019050919050565b6000610f81602683611202565b9150610f8c826114a3565b604082019050919050565b6000610fa4600783611202565b9150610faf826114f2565b602082019050919050565b6000610fc7601183611202565b9150610fd28261151b565b602082019050919050565b6000610fea602583611202565b9150610ff582611544565b604082019050919050565b600061100d602483611202565b915061101882611593565b604082019050919050565b6000611030602583611202565b915061103b826115e2565b604082019050919050565b61104f816112e1565b82525050565b61105e816112fb565b82525050565b60006020820190506110796000830184610ec3565b92915050565b600060208201905081810360008301526110998184610ed2565b905092915050565b600060208201905081810360008301526110ba81610f0b565b9050919050565b600060208201905081810360008301526110da81610f2e565b9050919050565b600060208201905081810360008301526110fa81610f51565b9050919050565b6000602082019050818103600083015261111a81610f74565b9050919050565b6000602082019050818103600083015261113a81610f97565b9050919050565b6000602082019050818103600083015261115a81610fba565b9050919050565b6000602082019050818103600083015261117a81610fdd565b9050919050565b6000602082019050818103600083015261119a81611000565b9050919050565b600060208201905081810360008301526111ba81611023565b9050919050565b60006020820190506111d66000830184611046565b92915050565b60006020820190506111f16000830184611055565b92915050565b600081519050919050565b600082825260208201905092915050565b600061121e826112e1565b9150611229836112e1565b9250827fffffffffffffffffffffffffffffffffffffffffffffffffffffffffffffffff0382111561125e5761125d61136d565b5b828201905092915050565b6000611274826112eb565b915061127f836112eb565b92508263ffffffff038211156112985761129761136d565b5b828201905092915050565b60006112ae826112c1565b9050919050565b60008115159050919050565b600073ffffffffffffffffffffffffffffffffffffffff82169050919050565b6000819050919050565b600063ffffffff82169050919050565b600060ff82169050919050565b60005b8381101561132657808201518184015260208101905061130b565b83811115611335576000848401525b50505050565b6000600282049050600182168061135357607f821691505b602082108114156113675761136661139c565b5b50919050565b7f4e487b7100000000000000000000000000000000000000000000000000000000600052601160045260246000fd5b7f4e487b7100000000000000000000000000000000000000000000000000000000600052602260045260246000fd5b6000601f19601f8301169050919050565b7f45524332303a207472616e7366657220746f20746865207a65726f206164647260008201527f6573730000000000000000000000000000000000000000000000000000000000602082015250565b7f45524332303a20617070726f766520746f20746865207a65726f20616464726560008201527f7373000000000000000000000000000000000000000000000000000000000000602082015250565b7f45524332303a20696e73756666696369656e7420616c6c6f77616e6365000000600082015250565b7f45524332303a207472616e7366657220616d6f756e742065786365656473206260008201527f616c616e63650000000000000000000000000000000000000000000000000000602082015250565b7f636c61696d656400000000000000000000000000000000000000000000000000600082015250565b7f636c61696d2074696d656f75742c737279000000000000000000000000000000600082015250565b7f45524332303a207472616e736665722066726f6d20746865207a65726f20616460008201527f6472657373000000000000000000000000000000000000000000000000000000602082015250565b7f45524332303a20617070726f76652066726f6d20746865207a65726f2061646460008201527f7265737300000000000000000000000000000000000000000000000000000000602082015250565b7f45524332303a2064656372656173656420616c6c6f77616e63652062656c6f7760008201527f207a65726f000000000000000000000000000000000000000000000000000000602082015250565b61163a816112a3565b811461164557600080fd5b50565b611651816112e1565b811461165c57600080fd5b5056fea26469706673582212202dc917f738b225a48ffb738f2c99013c29f974fea1809d0f386ec9cce28af6c364736f6c63430008040033",
  "linkReferences": {},
  "deployedLinkReferences": {}
}