{
  "_format": "hh-sol-artifact-1",
  "contractName": "TASKNFT",
  "sourceName": "contracts/TaskNft.sol",
  "abi": [
    {
      "inputs": [
        {
          "internalType": "string",
          "name": "initBaseURI",
          "type": "string"
        }
      ],
      "stateMutability": "nonpayable",
      "type": "constructor"
    },
    {
      "inputs": [],
      "name": "ApprovalCallerNotOwnerNorApproved",
      "type": "error"
    },
    {
      "inputs": [],
      "name": "ApprovalQueryForNonexistentToken",
      "type": "error"
    },
    {
      "inputs": [],
      "name": "ApprovalToCurrentOwner",
      "type": "error"
    },
    {
      "inputs": [],
      "name": "ApproveToCaller",
      "type": "error"
    },
    {
      "inputs": [],
      "name": "BalanceQueryForZeroAddress",
      "type": "error"
    },
    {
      "inputs": [],
      "name": "MintToZeroAddress",
      "type": "error"
    },
    {
      "inputs": [],
      "name": "MintZeroQuantity",
      "type": "error"
    },
    {
      "inputs": [],
      "name": "MintedQueryForZeroAddress",
      "type": "error"
    },
    {
      "inputs": [],
      "name": "OwnerQueryForNonexistentToken",
      "type": "error"
    },
    {
      "inputs": [],
      "name": "TransferCallerNotOwnerNorApproved",
      "type": "error"
    },
    {
      "inputs": [],
      "name": "TransferFromIncorrectOwner",
      "type": "error"
    },
    {
      "inputs": [],
      "name": "TransferToNonERC721ReceiverImplementer",
      "type": "error"
    },
    {
      "inputs": [],
      "name": "TransferToZeroAddress",
      "type": "error"
    },
    {
      "inputs": [],
      "name": "URIQueryForNonexistentToken",
      "type": "error"
    },
    {
      "anonymous": false,
      "inputs": [
        {
          "indexed": true,
          "internalType": "address",
          "name": "owner",
          "type": "address"
        },
        {
          "indexed": true,
          "internalType": "address",
          "name": "approved",
          "type": "address"
        },
        {
          "indexed": true,
          "internalType": "uint256",
          "name": "tokenId",
          "type": "uint256"
        }
      ],
      "name": "Approval",
      "type": "event"
    },
    {
      "anonymous": false,
      "inputs": [
        {
          "indexed": true,
          "internalType": "address",
          "name": "owner",
          "type": "address"
        },
        {
          "indexed": true,
          "internalType": "address",
          "name": "operator",
          "type": "address"
        },
        {
          "indexed": false,
          "internalType": "bool",
          "name": "approved",
          "type": "bool"
        }
      ],
      "name": "ApprovalForAll",
      "type": "event"
    },
    {
      "anonymous": false,
      "inputs": [
        {
          "indexed": false,
          "internalType": "string",
          "name": "newBaseURI",
          "type": "string"
        }
      ],
      "name": "BaseURIChanged",
      "type": "event"
    },
    {
      "anonymous": false,
      "inputs": [
        {
          "indexed": false,
          "internalType": "address",
          "name": "minter",
          "type": "address"
        },
        {
          "indexed": false,
          "internalType": "uint256",
          "name": "amount",
          "type": "uint256"
        }
      ],
      "name": "Minted",
      "type": "event"
    },
    {
      "anonymous": false,
      "inputs": [
        {
          "indexed": true,
          "internalType": "address",
          "name": "previousOwner",
          "type": "address"
        },
        {
          "indexed": true,
          "internalType": "address",
          "name": "newOwner",
          "type": "address"
        }
      ],
      "name": "OwnershipTransferred",
      "type": "event"
    },
    {
      "anonymous": false,
      "inputs": [
        {
          "indexed": false,
          "internalType": "enum TASKNFT.Status",
          "name": "status",
          "type": "uint8"
        }
      ],
      "name": "StatusChanged",
      "type": "event"
    },
    {
      "anonymous": false,
      "inputs": [
        {
          "indexed": true,
          "internalType": "address",
          "name": "from",
          "type": "address"
        },
        {
          "indexed": true,
          "internalType": "address",
          "name": "to",
          "type": "address"
        },
        {
          "indexed": true,
          "internalType": "uint256",
          "name": "tokenId",
          "type": "uint256"
        }
      ],
      "name": "Transfer",
      "type": "event"
    },
    {
      "inputs": [],
      "name": "MAX_MINT_PER_ADDR",
      "outputs": [
        {
          "internalType": "uint256",
          "name": "",
          "type": "uint256"
        }
      ],
      "stateMutability": "view",
      "type": "function"
    },
    {
      "inputs": [],
      "name": "MAX_SUPPLY",
      "outputs": [
        {
          "internalType": "uint256",
          "name": "",
          "type": "uint256"
        }
      ],
      "stateMutability": "view",
      "type": "function"
    },
    {
      "inputs": [],
      "name": "PRICE",
      "outputs": [
        {
          "internalType": "uint256",
          "name": "",
          "type": "uint256"
        }
      ],
      "stateMutability": "view",
      "type": "function"
    },
    {
      "inputs": [
        {
          "internalType": "address",
          "name": "to",
          "type": "address"
        },
        {
          "internalType": "uint256",
          "name": "tokenId",
          "type": "uint256"
        }
      ],
      "name": "approve",
      "outputs": [],
      "stateMutability": "nonpayable",
      "type": "function"
    },
    {
      "inputs": [
        {
          "internalType": "address",
          "name": "owner",
          "type": "address"
        }
      ],
      "name": "balanceOf",
      "outputs": [
        {
          "internalType": "uint256",
          "name": "",
          "type": "uint256"
        }
      ],
      "stateMutability": "view",
      "type": "function"
    },
    {
      "inputs": [],
      "name": "baseURI",
      "outputs": [
        {
          "internalType": "string",
          "name": "",
          "type": "string"
        }
      ],
      "stateMutability": "view",
      "type": "function"
    },
    {
      "inputs": [],
      "name": "checkTotalMined",
      "outputs": [
        {
          "internalType": "uint256",
          "name": "",
          "type": "uint256"
        }
      ],
      "stateMutability": "view",
      "type": "function"
    },
    {
      "inputs": [
        {
          "internalType": "uint256",
          "name": "tokenId",
          "type": "uint256"
        }
      ],
      "name": "getApproved",
      "outputs": [
        {
          "internalType": "address",
          "name": "",
          "type": "address"
        }
      ],
      "stateMutability": "view",
      "type": "function"
    },
    {
      "inputs": [
        {
          "internalType": "address",
          "name": "owner",
          "type": "address"
        },
        {
          "internalType": "address",
          "name": "operator",
          "type": "address"
        }
      ],
      "name": "isApprovedForAll",
      "outputs": [
        {
          "internalType": "bool",
          "name": "",
          "type": "bool"
        }
      ],
      "stateMutability": "view",
      "type": "function"
    },
    {
      "inputs": [
        {
          "internalType": "uint256",
          "name": "quantity",
          "type": "uint256"
        }
      ],
      "name": "mint",
      "outputs": [],
      "stateMutability": "payable",
      "type": "function"
    },
    {
      "inputs": [],
      "name": "name",
      "outputs": [
        {
          "internalType": "string",
          "name": "",
          "type": "string"
        }
      ],
      "stateMutability": "view",
      "type": "function"
    },
    {
      "inputs": [
        {
          "internalType": "address",
          "name": "owner",
          "type": "address"
        }
      ],
      "name": "numberMinted",
      "outputs": [
        {
          "internalType": "uint256",
          "name": "",
          "type": "uint256"
        }
      ],
      "stateMutability": "view",
      "type": "function"
    },
    {
      "inputs": [],
      "name": "owner",
      "outputs": [
        {
          "internalType": "address",
          "name": "",
          "type": "address"
        }
      ],
      "stateMutability": "view",
      "type": "function"
    },
    {
      "inputs": [
        {
          "internalType": "uint256",
          "name": "tokenId",
          "type": "uint256"
        }
      ],
      "name": "ownerOf",
      "outputs": [
        {
          "internalType": "address",
          "name": "",
          "type": "address"
        }
      ],
      "stateMutability": "view",
      "type": "function"
    },
    {
      "inputs": [],
      "name": "renounceOwnership",
      "outputs": [],
      "stateMutability": "nonpayable",
      "type": "function"
    },
    {
      "inputs": [
        {
          "internalType": "address",
          "name": "from",
          "type": "address"
        },
        {
          "internalType": "address",
          "name": "to",
          "type": "address"
        },
        {
          "internalType": "uint256",
          "name": "tokenId",
          "type": "uint256"
        }
      ],
      "name": "safeTransferFrom",
      "outputs": [],
      "stateMutability": "nonpayable",
      "type": "function"
    },
    {
      "inputs": [
        {
          "internalType": "address",
          "name": "from",
          "type": "address"
        },
        {
          "internalType": "address",
          "name": "to",
          "type": "address"
        },
        {
          "internalType": "uint256",
          "name": "tokenId",
          "type": "uint256"
        },
        {
          "internalType": "bytes",
          "name": "_data",
          "type": "bytes"
        }
      ],
      "name": "safeTransferFrom",
      "outputs": [],
      "stateMutability": "nonpayable",
      "type": "function"
    },
    {
      "inputs": [
        {
          "internalType": "address",
          "name": "operator",
          "type": "address"
        },
        {
          "internalType": "bool",
          "name": "approved",
          "type": "bool"
        }
      ],
      "name": "setApprovalForAll",
      "outputs": [],
      "stateMutability": "nonpayable",
      "type": "function"
    },
    {
      "inputs": [
        {
          "internalType": "string",
          "name": "newBaseURI",
          "type": "string"
        }
      ],
      "name": "setBaseURI",
      "outputs": [],
      "stateMutability": "nonpayable",
      "type": "function"
    },
    {
      "inputs": [
        {
          "internalType": "enum TASKNFT.Status",
          "name": "_status",
          "type": "uint8"
        }
      ],
      "name": "setStatus",
      "outputs": [],
      "stateMutability": "nonpayable",
      "type": "function"
    },
    {
      "inputs": [],
      "name": "status",
      "outputs": [
        {
          "internalType": "enum TASKNFT.Status",
          "name": "",
          "type": "uint8"
        }
      ],
      "stateMutability": "view",
      "type": "function"
    },
    {
      "inputs": [
        {
          "internalType": "bytes4",
          "name": "interfaceId",
          "type": "bytes4"
        }
      ],
      "name": "supportsInterface",
      "outputs": [
        {
          "internalType": "bool",
          "name": "",
          "type": "bool"
        }
      ],
      "stateMutability": "view",
      "type": "function"
    },
    {
      "inputs": [],
      "name": "symbol",
      "outputs": [
        {
          "internalType": "string",
          "name": "",
          "type": "string"
        }
      ],
      "stateMutability": "view",
      "type": "function"
    },
    {
      "inputs": [],
      "name": "token",
      "outputs": [
        {
          "internalType": "contract ERC20",
          "name": "",
          "type": "address"
        }
      ],
      "stateMutability": "view",
      "type": "function"
    },
    {
      "inputs": [
        {
          "internalType": "uint256",
          "name": "tokenId",
          "type": "uint256"
        }
      ],
      "name": "tokenURI",
      "outputs": [
        {
          "internalType": "string",
          "name": "",
          "type": "string"
        }
      ],
      "stateMutability": "view",
      "type": "function"
    },
    {
      "inputs": [],
      "name": "totalSupply",
      "outputs": [
        {
          "internalType": "uint256",
          "name": "",
          "type": "uint256"
        }
      ],
      "stateMutability": "view",
      "type": "function"
    },
    {
      "inputs": [
        {
          "internalType": "address",
          "name": "from",
          "type": "address"
        },
        {
          "internalType": "address",
          "name": "to",
          "type": "address"
        },
        {
          "internalType": "uint256",
          "name": "tokenId",
          "type": "uint256"
        }
      ],
      "name": "transferFrom",
      "outputs": [],
      "stateMutability": "nonpayable",
      "type": "function"
    },
    {
      "inputs": [
        {
          "internalType": "address",
          "name": "newOwner",
          "type": "address"
        }
      ],
      "name": "transferOwnership",
      "outputs": [],
      "stateMutability": "nonpayable",
      "type": "function"
    },
    {
      "inputs": [
        {
          "internalType": "address payable",
          "name": "recipient",
          "type": "address"
        }
      ],
      "name": "withdraw",
      "outputs": [],
      "stateMutability": "nonpayable",
      "type": "function"
    }
  ],
  "bytecode": "0x608060405242600a60006101000a81548163ffffffff021916908363ffffffff1602179055503480156200003257600080fd5b5060405162004a5138038062004a51833981810160405281019062000058919062000398565b6040518060400160405280600781526020017f5441534b4e4654000000000000000000000000000000000000000000000000008152506040518060400160405280600781526020017f5441534b4e4654000000000000000000000000000000000000000000000000008152508160029080519060200190620000dc92919062000276565b508060039080519060200190620000f592919062000276565b5062000106620001a360201b60201c565b60008190555050506200012e62000122620001a860201b60201c565b620001b060201b60201c565b80600990805190602001906200014692919062000276565b50736cb075bc3151f7fdad6a9841aedf54219a6720f6600a60046101000a81548173ffffffffffffffffffffffffffffffffffffffff021916908373ffffffffffffffffffffffffffffffffffffffff160217905550506200054d565b600090565b600033905090565b6000600860009054906101000a900473ffffffffffffffffffffffffffffffffffffffff16905081600860006101000a81548173ffffffffffffffffffffffffffffffffffffffff021916908373ffffffffffffffffffffffffffffffffffffffff1602179055508173ffffffffffffffffffffffffffffffffffffffff168173ffffffffffffffffffffffffffffffffffffffff167f8be0079c531659141344cd1fd0a4f28419497f9722a3daafe3b4186f6b6457e060405160405180910390a35050565b828054620002849062000472565b90600052602060002090601f016020900481019282620002a85760008555620002f4565b82601f10620002c357805160ff1916838001178555620002f4565b82800160010185558215620002f4579182015b82811115620002f3578251825591602001919060010190620002d6565b5b50905062000303919062000307565b5090565b5b808211156200032257600081600090555060010162000308565b5090565b60006200033d620003378462000406565b620003dd565b9050828152602081018484840111156200035657600080fd5b620003638482856200043c565b509392505050565b600082601f8301126200037d57600080fd5b81516200038f84826020860162000326565b91505092915050565b600060208284031215620003ab57600080fd5b600082015167ffffffffffffffff811115620003c657600080fd5b620003d4848285016200036b565b91505092915050565b6000620003e9620003fc565b9050620003f78282620004a8565b919050565b6000604051905090565b600067ffffffffffffffff8211156200042457620004236200050d565b5b6200042f826200053c565b9050602081019050919050565b60005b838110156200045c5780820151818401526020810190506200043f565b838111156200046c576000848401525b50505050565b600060028204905060018216806200048b57607f821691505b60208210811415620004a257620004a1620004de565b5b50919050565b620004b3826200053c565b810181811067ffffffffffffffff82111715620004d557620004d46200050d565b5b80604052505050565b7f4e487b7100000000000000000000000000000000000000000000000000000000600052602260045260246000fd5b7f4e487b7100000000000000000000000000000000000000000000000000000000600052604160045260246000fd5b6000601f19601f8301169050919050565b6144f4806200055d6000396000f3fe6080604052600436106101c25760003560e01c80636c0360eb116100f7578063a22cb46511610095578063dc33e68111610064578063dc33e68114610621578063e985e9c51461065e578063f2fde38b1461069b578063fc0c546a146106c4576101c2565b8063a22cb46514610567578063b88d4fde14610590578063c629efd7146105b9578063c87b56dd146105e4576101c2565b80638d859f3e116100d15780638d859f3e146104ca5780638da5cb5b146104f557806395d89b4114610520578063a0712d681461054b576101c2565b80636c0360eb1461044b57806370a0823114610476578063715018a6146104b3576101c2565b806323b872dd1161016457806342842e0e1161013e57806342842e0e1461039357806351cff8d9146103bc57806355f804b3146103e55780636352211e1461040e576101c2565b806323b872dd146103165780632e49d78b1461033f57806332cb6b0c14610368576101c2565b8063095ea7b3116101a0578063095ea7b31461026c578063161548621461029557806318160ddd146102c0578063200d2ed2146102eb576101c2565b806301ffc9a7146101c757806306fdde0314610204578063081812fc1461022f575b600080fd5b3480156101d357600080fd5b506101ee60048036038101906101e99190613515565b6106ef565b6040516101fb9190613a7e565b60405180910390f35b34801561021057600080fd5b506102196107d1565b6040516102269190613af3565b60405180910390f35b34801561023b57600080fd5b50610256600480360381019061025191906135d5565b610863565b604051610263919061392e565b60405180910390f35b34801561027857600080fd5b50610293600480360381019061028e91906134b0565b6108df565b005b3480156102a157600080fd5b506102aa6109ea565b6040516102b79190613cd5565b60405180910390f35b3480156102cc57600080fd5b506102d56109ef565b6040516102e29190613cd5565b60405180910390f35b3480156102f757600080fd5b50610300610a06565b60405161030d9190613ab4565b60405180910390f35b34801561032257600080fd5b5061033d600480360381019061033891906133aa565b610a19565b005b34801561034b57600080fd5b5061036660048036038101906103619190613567565b610a29565b005b34801561037457600080fd5b5061037d610b3e565b60405161038a9190613cd5565b60405180910390f35b34801561039f57600080fd5b506103ba60048036038101906103b591906133aa565b610b44565b005b3480156103c857600080fd5b506103e360048036038101906103de9190613345565b610b64565b005b3480156103f157600080fd5b5061040c60048036038101906104079190613590565b610d4e565b005b34801561041a57600080fd5b50610435600480360381019061043091906135d5565b610e19565b604051610442919061392e565b60405180910390f35b34801561045757600080fd5b50610460610e2f565b60405161046d9190613af3565b60405180910390f35b34801561048257600080fd5b5061049d6004803603810190610498919061331c565b610ebd565b6040516104aa9190613cd5565b60405180910390f35b3480156104bf57600080fd5b506104c8610f8d565b005b3480156104d657600080fd5b506104df611015565b6040516104ec9190613cd5565b60405180910390f35b34801561050157600080fd5b5061050a61101a565b604051610517919061392e565b60405180910390f35b34801561052c57600080fd5b50610535611044565b6040516105429190613af3565b60405180910390f35b610565600480360381019061056091906135d5565b6110d6565b005b34801561057357600080fd5b5061058e60048036038101906105899190613474565b61175a565b005b34801561059c57600080fd5b506105b760048036038101906105b291906133f9565b6118d2565b005b3480156105c557600080fd5b506105ce61194e565b6040516105db9190613cd5565b60405180910390f35b3480156105f057600080fd5b5061060b600480360381019061060691906135d5565b61195d565b6040516106189190613af3565b60405180910390f35b34801561062d57600080fd5b506106486004803603810190610643919061331c565b6119fc565b6040516106559190613cd5565b60405180910390f35b34801561066a57600080fd5b506106856004803603810190610680919061336e565b611a0e565b6040516106929190613a7e565b60405180910390f35b3480156106a757600080fd5b506106c260048036038101906106bd919061331c565b611aa2565b005b3480156106d057600080fd5b506106d9611b9a565b6040516106e69190613a99565b60405180910390f35b60007f80ac58cd000000000000000000000000000000000000000000000000000000007bffffffffffffffffffffffffffffffffffffffffffffffffffffffff1916827bffffffffffffffffffffffffffffffffffffffffffffffffffffffff191614806107ba57507f5b5e139f000000000000000000000000000000000000000000000000000000007bffffffffffffffffffffffffffffffffffffffffffffffffffffffff1916827bffffffffffffffffffffffffffffffffffffffffffffffffffffffff1916145b806107ca57506107c982611bc0565b5b9050919050565b6060600280546107e090614016565b80601f016020809104026020016040519081016040528092919081815260200182805461080c90614016565b80156108595780601f1061082e57610100808354040283529160200191610859565b820191906000526020600020905b81548152906001019060200180831161083c57829003601f168201915b5050505050905090565b600061086e82611c2a565b6108a4576040517fcf4700e400000000000000000000000000000000000000000000000000000000815260040160405180910390fd5b6006600083815260200190815260200160002060009054906101000a900473ffffffffffffffffffffffffffffffffffffffff169050919050565b60006108ea82610e19565b90508073ffffffffffffffffffffffffffffffffffffffff168373ffffffffffffffffffffffffffffffffffffffff161415610952576040517f943f7b8c00000000000000000000000000000000000000000000000000000000815260040160405180910390fd5b8073ffffffffffffffffffffffffffffffffffffffff16610971611c78565b73ffffffffffffffffffffffffffffffffffffffff16141580156109a357506109a18161099c611c78565b611a0e565b155b156109da576040517fcfb3b94200000000000000000000000000000000000000000000000000000000815260040160405180910390fd5b6109e5838383611c80565b505050565b600181565b60006109f9611d32565b6001546000540303905090565b600860149054906101000a900460ff1681565b610a24838383611d37565b505050565b610a31611c78565b73ffffffffffffffffffffffffffffffffffffffff16610a4f61101a565b73ffffffffffffffffffffffffffffffffffffffff1614610aa5576040517f08c379a0000000000000000000000000000000000000000000000000000000008152600401610a9c90613c15565b60405180910390fd5b80600860146101000a81548160ff02191690836000811115610af0577f4e487b7100000000000000000000000000000000000000000000000000000000600052602160045260246000fd5b02179055507fafa725e7f44cadb687a7043853fa1a7e7b8f0da74ce87ec546e9420f04da8c1e600860149054906101000a900460ff16604051610b339190613ab4565b60405180910390a150565b6103e881565b610b5f838383604051806020016040528060008152506118d2565b505050565b610b6c611c78565b73ffffffffffffffffffffffffffffffffffffffff16610b8a61101a565b73ffffffffffffffffffffffffffffffffffffffff1614610be0576040517f08c379a0000000000000000000000000000000000000000000000000000000008152600401610bd790613c15565b60405180910390fd5b60004790506000479050600a60049054906101000a900473ffffffffffffffffffffffffffffffffffffffff1673ffffffffffffffffffffffffffffffffffffffff166323b872dd3033846040518463ffffffff1660e01b8152600401610c49939291906139a9565b602060405180830381600087803b158015610c6357600080fd5b505af1158015610c77573d6000803e3d6000fd5b505050506040513d601f19601f82011682018060405250810190610c9b91906134ec565b5060008373ffffffffffffffffffffffffffffffffffffffff1683604051610cc290613919565b60006040518083038185875af1925050503d8060008114610cff576040519150601f19603f3d011682016040523d82523d6000602084013e610d04565b606091505b5050905080610d48576040517f08c379a0000000000000000000000000000000000000000000000000000000008152600401610d3f90613c55565b60405180910390fd5b50505050565b610d56611c78565b73ffffffffffffffffffffffffffffffffffffffff16610d7461101a565b73ffffffffffffffffffffffffffffffffffffffff1614610dca576040517f08c379a0000000000000000000000000000000000000000000000000000000008152600401610dc190613c15565b60405180910390fd5b818160099190610ddb9291906130c7565b507f5411e8ebf1636d9e83d5fc4900bf80cbac82e8790da2a4c94db4895e889eedf68282604051610e0d929190613acf565b60405180910390a15050565b6000610e2482612228565b600001519050919050565b60098054610e3c90614016565b80601f0160208091040260200160405190810160405280929190818152602001828054610e6890614016565b8015610eb55780601f10610e8a57610100808354040283529160200191610eb5565b820191906000526020600020905b815481529060010190602001808311610e9857829003601f168201915b505050505081565b60008073ffffffffffffffffffffffffffffffffffffffff168273ffffffffffffffffffffffffffffffffffffffff161415610f25576040517f8f4eb60400000000000000000000000000000000000000000000000000000000815260040160405180910390fd5b600560008373ffffffffffffffffffffffffffffffffffffffff1673ffffffffffffffffffffffffffffffffffffffff16815260200190815260200160002060000160009054906101000a900467ffffffffffffffff1667ffffffffffffffff169050919050565b610f95611c78565b73ffffffffffffffffffffffffffffffffffffffff16610fb361101a565b73ffffffffffffffffffffffffffffffffffffffff1614611009576040517f08c379a000000000000000000000000000000000000000000000000000000000815260040161100090613c15565b60405180910390fd5b61101360006124b7565b565b600081565b6000600860009054906101000a900473ffffffffffffffffffffffffffffffffffffffff16905090565b60606003805461105390614016565b80601f016020809104026020016040519081016040528092919081815260200182805461107f90614016565b80156110cc5780601f106110a1576101008083540402835291602001916110cc565b820191906000526020600020905b8154815290600101906020018083116110af57829003601f168201915b5050505050905090565b6000600a60049054906101000a900473ffffffffffffffffffffffffffffffffffffffff1673ffffffffffffffffffffffffffffffffffffffff166370a08231336040518263ffffffff1660e01b8152600401611133919061392e565b60206040518083038186803b15801561114b57600080fd5b505afa15801561115f573d6000803e3d6000fd5b505050506040513d601f19601f8201168201806040525081019061118391906135fe565b90506000600a60049054906101000a900473ffffffffffffffffffffffffffffffffffffffff1673ffffffffffffffffffffffffffffffffffffffff1663095ea7b3306802b5e3af16b18800006040518363ffffffff1660e01b81526004016111ed929190613a2c565b602060405180830381600087803b15801561120757600080fd5b505af115801561121b573d6000803e3d6000fd5b505050506040513d601f19601f8201168201806040525081019061123f91906134ec565b90506000600a60049054906101000a900473ffffffffffffffffffffffffffffffffffffffff1673ffffffffffffffffffffffffffffffffffffffff1663dd62ed3e33306040518363ffffffff1660e01b81526004016112a0929190613949565b60206040518083038186803b1580156112b857600080fd5b505afa1580156112cc573d6000803e3d6000fd5b505050506040513d601f19601f820116820180604052508101906112f091906135fe565b90506113316040518060400160405280600b81526020017f7573657242616c616e63650000000000000000000000000000000000000000008152508461257d565b6113706040518060400160405280600781526020017f617070726f76650000000000000000000000000000000000000000000000000081525083612619565b6113af6040518060400160405280600981526020017f616c6c6f77616e636500000000000000000000000000000000000000000000008152508261257d565b816113ef576040517f08c379a00000000000000000000000000000000000000000000000000000000081526004016113e690613c35565b60405180910390fd5b6802b5e3af16b188000083101561143b576040517f08c379a000000000000000000000000000000000000000000000000000000000815260040161143290613c95565b60405180910390fd5b8281111561147e576040517f08c379a000000000000000000000000000000000000000000000000000000000815260040161147590613bd5565b60405180910390fd5b6301e13380600a60009054906101000a900463ffffffff166114a09190613dea565b63ffffffff1642106114e7576040517f08c379a00000000000000000000000000000000000000000000000000000000081526004016114de90613b75565b60405180910390fd5b3373ffffffffffffffffffffffffffffffffffffffff163273ffffffffffffffffffffffffffffffffffffffff1614611555576040517f08c379a000000000000000000000000000000000000000000000000000000000815260040161154c90613bf5565b60405180910390fd5b600184611561336119fc565b61156b9190613d94565b11156115ac576040517f08c379a00000000000000000000000000000000000000000000000000000000081526004016115a390613bb5565b60405180910390fd5b6103e8846115b86109ef565b6115c29190613d94565b1115611603576040517f08c379a00000000000000000000000000000000000000000000000000000000081526004016115fa90613c75565b60405180910390fd5b61160d33856126b5565b61162284600061161d9190613e55565b6126d3565b6116606040518060400160405280600981526020017f68657265203d3d3d3e0000000000000000000000000000000000000000000000815250612774565b600a60049054906101000a900473ffffffffffffffffffffffffffffffffffffffff1673ffffffffffffffffffffffffffffffffffffffff166323b872dd33306802b5e3af16b18800006040518463ffffffff1660e01b81526004016116c893929190613972565b602060405180830381600087803b1580156116e257600080fd5b505af11580156116f6573d6000803e3d6000fd5b505050506040513d601f19601f8201168201806040525081019061171a91906134ec565b507f30385c845b448a36257a6a1716e6ad2e1bc2cbe333cde1e69fe849ad6511adfe338560405161174c929190613a55565b60405180910390a150505050565b611762611c78565b73ffffffffffffffffffffffffffffffffffffffff168273ffffffffffffffffffffffffffffffffffffffff1614156117c7576040517fb06307db00000000000000000000000000000000000000000000000000000000815260040160405180910390fd5b80600760006117d4611c78565b73ffffffffffffffffffffffffffffffffffffffff1673ffffffffffffffffffffffffffffffffffffffff16815260200190815260200160002060008473ffffffffffffffffffffffffffffffffffffffff1673ffffffffffffffffffffffffffffffffffffffff16815260200190815260200160002060006101000a81548160ff0219169083151502179055508173ffffffffffffffffffffffffffffffffffffffff16611881611c78565b73ffffffffffffffffffffffffffffffffffffffff167f17307eab39ab6107e8899845ad3d59bd9653f200f220920489ca2b5937696c31836040516118c69190613a7e565b60405180910390a35050565b6118dd848484611d37565b6118fc8373ffffffffffffffffffffffffffffffffffffffff1661280d565b8015611911575061190f84848484612830565b155b15611948576040517fd1a57ed600000000000000000000000000000000000000000000000000000000815260040160405180910390fd5b50505050565b6000611958612990565b905090565b606061196882611c2a565b61199e576040517fa14c4b5000000000000000000000000000000000000000000000000000000000815260040160405180910390fd5b60006119a86129a3565b90506000815114156119c957604051806020016040528060008152506119f4565b806119d384612a35565b6040516020016119e49291906138f5565b6040516020818303038152906040525b915050919050565b6000611a0782612be2565b9050919050565b6000600760008473ffffffffffffffffffffffffffffffffffffffff1673ffffffffffffffffffffffffffffffffffffffff16815260200190815260200160002060008373ffffffffffffffffffffffffffffffffffffffff1673ffffffffffffffffffffffffffffffffffffffff16815260200190815260200160002060009054906101000a900460ff16905092915050565b611aaa611c78565b73ffffffffffffffffffffffffffffffffffffffff16611ac861101a565b73ffffffffffffffffffffffffffffffffffffffff1614611b1e576040517f08c379a0000000000000000000000000000000000000000000000000000000008152600401611b1590613c15565b60405180910390fd5b600073ffffffffffffffffffffffffffffffffffffffff168173ffffffffffffffffffffffffffffffffffffffff161415611b8e576040517f08c379a0000000000000000000000000000000000000000000000000000000008152600401611b8590613b95565b60405180910390fd5b611b97816124b7565b50565b600a60049054906101000a900473ffffffffffffffffffffffffffffffffffffffff1681565b60007f01ffc9a7000000000000000000000000000000000000000000000000000000007bffffffffffffffffffffffffffffffffffffffffffffffffffffffff1916827bffffffffffffffffffffffffffffffffffffffffffffffffffffffff1916149050919050565b600081611c35611d32565b11158015611c44575060005482105b8015611c71575060046000838152602001908152602001600020600001601c9054906101000a900460ff16155b9050919050565b600033905090565b826006600084815260200190815260200160002060006101000a81548173ffffffffffffffffffffffffffffffffffffffff021916908373ffffffffffffffffffffffffffffffffffffffff160217905550818373ffffffffffffffffffffffffffffffffffffffff168273ffffffffffffffffffffffffffffffffffffffff167f8c5be1e5ebec7d5bd14f71427d1e84f3dd0314c0f7b2291e5b200ac8c7c3b92560405160405180910390a4505050565b600090565b6000611d4282612228565b90506000816000015173ffffffffffffffffffffffffffffffffffffffff16611d69611c78565b73ffffffffffffffffffffffffffffffffffffffff161480611d9c5750611d9b8260000151611d96611c78565b611a0e565b5b80611de15750611daa611c78565b73ffffffffffffffffffffffffffffffffffffffff16611dc984610863565b73ffffffffffffffffffffffffffffffffffffffff16145b905080611e1a576040517f59c896be00000000000000000000000000000000000000000000000000000000815260040160405180910390fd5b8473ffffffffffffffffffffffffffffffffffffffff16826000015173ffffffffffffffffffffffffffffffffffffffff1614611e83576040517fa114810000000000000000000000000000000000000000000000000000000000815260040160405180910390fd5b600073ffffffffffffffffffffffffffffffffffffffff168473ffffffffffffffffffffffffffffffffffffffff161415611eea576040517fea553b3400000000000000000000000000000000000000000000000000000000815260040160405180910390fd5b611ef78585856001612cb2565b611f076000848460000151611c80565b6001600560008773ffffffffffffffffffffffffffffffffffffffff1673ffffffffffffffffffffffffffffffffffffffff16815260200190815260200160002060000160008282829054906101000a900467ffffffffffffffff160392506101000a81548167ffffffffffffffff021916908367ffffffffffffffff1602179055506001600560008673ffffffffffffffffffffffffffffffffffffffff1673ffffffffffffffffffffffffffffffffffffffff16815260200190815260200160002060000160008282829054906101000a900467ffffffffffffffff160192506101000a81548167ffffffffffffffff021916908367ffffffffffffffff160217905550836004600085815260200190815260200160002060000160006101000a81548173ffffffffffffffffffffffffffffffffffffffff021916908373ffffffffffffffffffffffffffffffffffffffff160217905550426004600085815260200190815260200160002060000160146101000a81548167ffffffffffffffff021916908367ffffffffffffffff1602179055506000600184019050600073ffffffffffffffffffffffffffffffffffffffff166004600083815260200190815260200160002060000160009054906101000a900473ffffffffffffffffffffffffffffffffffffffff1673ffffffffffffffffffffffffffffffffffffffff1614156121b8576000548110156121b75782600001516004600083815260200190815260200160002060000160006101000a81548173ffffffffffffffffffffffffffffffffffffffff021916908373ffffffffffffffffffffffffffffffffffffffff16021790555082602001516004600083815260200190815260200160002060000160146101000a81548167ffffffffffffffff021916908367ffffffffffffffff1602179055505b5b50828473ffffffffffffffffffffffffffffffffffffffff168673ffffffffffffffffffffffffffffffffffffffff167fddf252ad1be2c89b69c2b068fc378daa952ba7f163c4a11628f55a4df523b3ef60405160405180910390a46122218585856001612cb8565b5050505050565b61223061314d565b60008290508061223e611d32565b1115801561224d575060005481105b15612480576000600460008381526020019081526020016000206040518060600160405290816000820160009054906101000a900473ffffffffffffffffffffffffffffffffffffffff1673ffffffffffffffffffffffffffffffffffffffff1673ffffffffffffffffffffffffffffffffffffffff1681526020016000820160149054906101000a900467ffffffffffffffff1667ffffffffffffffff1667ffffffffffffffff16815260200160008201601c9054906101000a900460ff1615151515815250509050806040015161247e57600073ffffffffffffffffffffffffffffffffffffffff16816000015173ffffffffffffffffffffffffffffffffffffffff16146123625780925050506124b2565b5b60011561247d57818060019003925050600460008381526020019081526020016000206040518060600160405290816000820160009054906101000a900473ffffffffffffffffffffffffffffffffffffffff1673ffffffffffffffffffffffffffffffffffffffff1673ffffffffffffffffffffffffffffffffffffffff1681526020016000820160149054906101000a900467ffffffffffffffff1667ffffffffffffffff1667ffffffffffffffff16815260200160008201601c9054906101000a900460ff1615151515815250509050600073ffffffffffffffffffffffffffffffffffffffff16816000015173ffffffffffffffffffffffffffffffffffffffff16146124785780925050506124b2565b612363565b5b505b6040517fdf2d9b4200000000000000000000000000000000000000000000000000000000815260040160405180910390fd5b919050565b6000600860009054906101000a900473ffffffffffffffffffffffffffffffffffffffff16905081600860006101000a81548173ffffffffffffffffffffffffffffffffffffffff021916908373ffffffffffffffffffffffffffffffffffffffff1602179055508173ffffffffffffffffffffffffffffffffffffffff168173ffffffffffffffffffffffffffffffffffffffff167f8be0079c531659141344cd1fd0a4f28419497f9722a3daafe3b4186f6b6457e060405160405180910390a35050565b6126158282604051602401612593929190613b45565b6040516020818303038152906040527f9710a9d0000000000000000000000000000000000000000000000000000000007bffffffffffffffffffffffffffffffffffffffffffffffffffffffff19166020820180517bffffffffffffffffffffffffffffffffffffffffffffffffffffffff8381831617835250505050612cbe565b5050565b6126b1828260405160240161262f929190613b15565b6040516020818303038152906040527fc3b55635000000000000000000000000000000000000000000000000000000007bffffffffffffffffffffffffffffffffffffffffffffffffffffffff19166020820180517bffffffffffffffffffffffffffffffffffffffffffffffffffffffff8381831617835250505050612cbe565b5050565b6126cf828260405180602001604052806000815250612ce7565b5050565b80341015612716576040517f08c379a000000000000000000000000000000000000000000000000000000000815260040161270d90613cb5565b60405180910390fd5b80341115612771573373ffffffffffffffffffffffffffffffffffffffff166108fc82346127449190613eaf565b9081150290604051600060405180830381858888f1935050505015801561276f573d6000803e3d6000fd5b505b50565b61280a816040516024016127889190613af3565b6040516020818303038152906040527f41304fac000000000000000000000000000000000000000000000000000000007bffffffffffffffffffffffffffffffffffffffffffffffffffffffff19166020820180517bffffffffffffffffffffffffffffffffffffffffffffffffffffffff8381831617835250505050612cbe565b50565b6000808273ffffffffffffffffffffffffffffffffffffffff163b119050919050565b60008373ffffffffffffffffffffffffffffffffffffffff1663150b7a02612856611c78565b8786866040518563ffffffff1660e01b815260040161287894939291906139e0565b602060405180830381600087803b15801561289257600080fd5b505af19250505080156128c357506040513d601f19601f820116820180604052508101906128c0919061353e565b60015b61293d573d80600081146128f3576040519150601f19603f3d011682016040523d82523d6000602084013e6128f8565b606091505b50600081511415612935576040517fd1a57ed600000000000000000000000000000000000000000000000000000000815260040160405180910390fd5b805181602001fd5b63150b7a0260e01b7bffffffffffffffffffffffffffffffffffffffffffffffffffffffff1916817bffffffffffffffffffffffffffffffffffffffffffffffffffffffff191614915050949350505050565b600061299a611d32565b60005403905090565b6060600980546129b290614016565b80601f01602080910402602001604051908101604052809291908181526020018280546129de90614016565b8015612a2b5780601f10612a0057610100808354040283529160200191612a2b565b820191906000526020600020905b815481529060010190602001808311612a0e57829003601f168201915b5050505050905090565b60606000821415612a7d576040518060400160405280600181526020017f30000000000000000000000000000000000000000000000000000000000000008152509050612bdd565b600082905060005b60008214612aaf578080612a9890614079565b915050600a82612aa89190613e24565b9150612a85565b60008167ffffffffffffffff811115612af1577f4e487b7100000000000000000000000000000000000000000000000000000000600052604160045260246000fd5b6040519080825280601f01601f191660200182016040528015612b235781602001600182028036833780820191505090505b5090505b60008514612bd657600182612b3c9190613eaf565b9150600a85612b4b91906140c2565b6030612b579190613d94565b60f81b818381518110612b93577f4e487b7100000000000000000000000000000000000000000000000000000000600052603260045260246000fd5b60200101907effffffffffffffffffffffffffffffffffffffffffffffffffffffffffffff1916908160001a905350600a85612bcf9190613e24565b9450612b27565b8093505050505b919050565b60008073ffffffffffffffffffffffffffffffffffffffff168273ffffffffffffffffffffffffffffffffffffffff161415612c4a576040517f35ebb31900000000000000000000000000000000000000000000000000000000815260040160405180910390fd5b600560008373ffffffffffffffffffffffffffffffffffffffff1673ffffffffffffffffffffffffffffffffffffffff16815260200190815260200160002060000160089054906101000a900467ffffffffffffffff1667ffffffffffffffff169050919050565b50505050565b50505050565b60008151905060006a636f6e736f6c652e6c6f679050602083016000808483855afa5050505050565b612cf48383836001612cf9565b505050565b600080549050600073ffffffffffffffffffffffffffffffffffffffff168573ffffffffffffffffffffffffffffffffffffffff161415612d66576040517f2e07630000000000000000000000000000000000000000000000000000000000815260040160405180910390fd5b6000841415612da1576040517fb562e8dd00000000000000000000000000000000000000000000000000000000815260040160405180910390fd5b612dae6000868387612cb2565b83600560008773ffffffffffffffffffffffffffffffffffffffff1673ffffffffffffffffffffffffffffffffffffffff16815260200190815260200160002060000160008282829054906101000a900467ffffffffffffffff160192506101000a81548167ffffffffffffffff021916908367ffffffffffffffff16021790555083600560008773ffffffffffffffffffffffffffffffffffffffff1673ffffffffffffffffffffffffffffffffffffffff16815260200190815260200160002060000160088282829054906101000a900467ffffffffffffffff160192506101000a81548167ffffffffffffffff021916908367ffffffffffffffff160217905550846004600083815260200190815260200160002060000160006101000a81548173ffffffffffffffffffffffffffffffffffffffff021916908373ffffffffffffffffffffffffffffffffffffffff160217905550426004600083815260200190815260200160002060000160146101000a81548167ffffffffffffffff021916908367ffffffffffffffff160217905550600081905060008582019050838015612f785750612f778773ffffffffffffffffffffffffffffffffffffffff1661280d565b5b1561303e575b818773ffffffffffffffffffffffffffffffffffffffff16600073ffffffffffffffffffffffffffffffffffffffff167fddf252ad1be2c89b69c2b068fc378daa952ba7f163c4a11628f55a4df523b3ef60405160405180910390a4612fed6000888480600101955088612830565b613023576040517fd1a57ed600000000000000000000000000000000000000000000000000000000815260040160405180910390fd5b80821415612f7e57826000541461303957600080fd5b6130aa565b5b818060010192508773ffffffffffffffffffffffffffffffffffffffff16600073ffffffffffffffffffffffffffffffffffffffff167fddf252ad1be2c89b69c2b068fc378daa952ba7f163c4a11628f55a4df523b3ef60405160405180910390a48082141561303f575b8160008190555050506130c06000868387612cb8565b5050505050565b8280546130d390614016565b90600052602060002090601f0160209004810192826130f5576000855561313c565b82601f1061310e57803560ff191683800117855561313c565b8280016001018555821561313c579182015b8281111561313b578235825591602001919060010190613120565b5b5090506131499190613190565b5090565b6040518060600160405280600073ffffffffffffffffffffffffffffffffffffffff168152602001600067ffffffffffffffff1681526020016000151581525090565b5b808211156131a9576000816000905550600101613191565b5090565b60006131c06131bb84613d15565b613cf0565b9050828152602081018484840111156131d857600080fd5b6131e3848285613fd4565b509392505050565b6000813590506131fa8161443b565b92915050565b60008135905061320f81614452565b92915050565b60008135905061322481614469565b92915050565b60008151905061323981614469565b92915050565b60008135905061324e81614480565b92915050565b60008151905061326381614480565b92915050565b600082601f83011261327a57600080fd5b813561328a8482602086016131ad565b91505092915050565b6000813590506132a281614497565b92915050565b60008083601f8401126132ba57600080fd5b8235905067ffffffffffffffff8111156132d357600080fd5b6020830191508360018202830111156132eb57600080fd5b9250929050565b600081359050613301816144a7565b92915050565b600081519050613316816144a7565b92915050565b60006020828403121561332e57600080fd5b600061333c848285016131eb565b91505092915050565b60006020828403121561335757600080fd5b600061336584828501613200565b91505092915050565b6000806040838503121561338157600080fd5b600061338f858286016131eb565b92505060206133a0858286016131eb565b9150509250929050565b6000806000606084860312156133bf57600080fd5b60006133cd868287016131eb565b93505060206133de868287016131eb565b92505060406133ef868287016132f2565b9150509250925092565b6000806000806080858703121561340f57600080fd5b600061341d878288016131eb565b945050602061342e878288016131eb565b935050604061343f878288016132f2565b925050606085013567ffffffffffffffff81111561345c57600080fd5b61346887828801613269565b91505092959194509250565b6000806040838503121561348757600080fd5b6000613495858286016131eb565b92505060206134a685828601613215565b9150509250929050565b600080604083850312156134c357600080fd5b60006134d1858286016131eb565b92505060206134e2858286016132f2565b9150509250929050565b6000602082840312156134fe57600080fd5b600061350c8482850161322a565b91505092915050565b60006020828403121561352757600080fd5b60006135358482850161323f565b91505092915050565b60006020828403121561355057600080fd5b600061355e84828501613254565b91505092915050565b60006020828403121561357957600080fd5b600061358784828501613293565b91505092915050565b600080602083850312156135a357600080fd5b600083013567ffffffffffffffff8111156135bd57600080fd5b6135c9858286016132a8565b92509250509250929050565b6000602082840312156135e757600080fd5b60006135f5848285016132f2565b91505092915050565b60006020828403121561361057600080fd5b600061361e84828501613307565b91505092915050565b61363081613ee3565b82525050565b61363f81613f07565b82525050565b600061365082613d46565b61365a8185613d5c565b935061366a818560208601613fe3565b613673816141de565b840191505092915050565b61368781613f8c565b82525050565b61369681613fb0565b82525050565b6136a581613fc2565b82525050565b60006136b78385613d78565b93506136c4838584613fd4565b6136cd836141de565b840190509392505050565b60006136e382613d51565b6136ed8185613d78565b93506136fd818560208601613fe3565b613706816141de565b840191505092915050565b600061371c82613d51565b6137268185613d89565b9350613736818560208601613fe3565b80840191505092915050565b600061374f600d83613d78565b915061375a826141ef565b602082019050919050565b6000613772602683613d78565b915061377d82614218565b604082019050919050565b6000613795602083613d78565b91506137a082614267565b602082019050919050565b60006137b8602283613d78565b91506137c382614290565b604082019050919050565b60006137db600f83613d78565b91506137e6826142df565b602082019050919050565b60006137fe602083613d78565b915061380982614308565b602082019050919050565b6000613821601883613d78565b915061382c82614331565b602082019050919050565b6000613844601283613d78565b915061384f8261435a565b602082019050919050565b6000613867601283613d78565b915061387282614383565b602082019050919050565b600061388a600083613d6d565b9150613895826143ac565b600082019050919050565b60006138ad602283613d78565b91506138b8826143af565b604082019050919050565b60006138d0601083613d78565b91506138db826143fe565b602082019050919050565b6138ef81613f72565b82525050565b60006139018285613711565b915061390d8284613711565b91508190509392505050565b60006139248261387d565b9150819050919050565b60006020820190506139436000830184613627565b92915050565b600060408201905061395e6000830185613627565b61396b6020830184613627565b9392505050565b60006060820190506139876000830186613627565b6139946020830185613627565b6139a1604083018461369c565b949350505050565b60006060820190506139be6000830186613627565b6139cb6020830185613627565b6139d860408301846138e6565b949350505050565b60006080820190506139f56000830187613627565b613a026020830186613627565b613a0f60408301856138e6565b8181036060830152613a218184613645565b905095945050505050565b6000604082019050613a416000830185613627565b613a4e602083018461369c565b9392505050565b6000604082019050613a6a6000830185613627565b613a7760208301846138e6565b9392505050565b6000602082019050613a936000830184613636565b92915050565b6000602082019050613aae600083018461367e565b92915050565b6000602082019050613ac9600083018461368d565b92915050565b60006020820190508181036000830152613aea8184866136ab565b90509392505050565b60006020820190508181036000830152613b0d81846136d8565b905092915050565b60006040820190508181036000830152613b2f81856136d8565b9050613b3e6020830184613636565b9392505050565b60006040820190508181036000830152613b5f81856136d8565b9050613b6e60208301846138e6565b9392505050565b60006020820190508181036000830152613b8e81613742565b9050919050565b60006020820190508181036000830152613bae81613765565b9050919050565b60006020820190508181036000830152613bce81613788565b9050919050565b60006020820190508181036000830152613bee816137ab565b9050919050565b60006020820190508181036000830152613c0e816137ce565b9050919050565b60006020820190508181036000830152613c2e816137f1565b9050919050565b60006020820190508181036000830152613c4e81613814565b9050919050565b60006020820190508181036000830152613c6e81613837565b9050919050565b60006020820190508181036000830152613c8e8161385a565b9050919050565b60006020820190508181036000830152613cae816138a0565b9050919050565b60006020820190508181036000830152613cce816138c3565b9050919050565b6000602082019050613cea60008301846138e6565b92915050565b6000613cfa613d0b565b9050613d068282614048565b919050565b6000604051905090565b600067ffffffffffffffff821115613d3057613d2f6141af565b5b613d39826141de565b9050602081019050919050565b600081519050919050565b600081519050919050565b600082825260208201905092915050565b600081905092915050565b600082825260208201905092915050565b600081905092915050565b6000613d9f82613f72565b9150613daa83613f72565b9250827fffffffffffffffffffffffffffffffffffffffffffffffffffffffffffffffff03821115613ddf57613dde6140f3565b5b828201905092915050565b6000613df582613f7c565b9150613e0083613f7c565b92508263ffffffff03821115613e1957613e186140f3565b5b828201905092915050565b6000613e2f82613f72565b9150613e3a83613f72565b925082613e4a57613e49614122565b5b828204905092915050565b6000613e6082613f72565b9150613e6b83613f72565b9250817fffffffffffffffffffffffffffffffffffffffffffffffffffffffffffffffff0483118215151615613ea457613ea36140f3565b5b828202905092915050565b6000613eba82613f72565b9150613ec583613f72565b925082821015613ed857613ed76140f3565b5b828203905092915050565b6000613eee82613f52565b9050919050565b6000613f0082613f52565b9050919050565b60008115159050919050565b60007fffffffff0000000000000000000000000000000000000000000000000000000082169050919050565b6000819050613f4d82614427565b919050565b600073ffffffffffffffffffffffffffffffffffffffff82169050919050565b6000819050919050565b600063ffffffff82169050919050565b6000613f9782613f9e565b9050919050565b6000613fa982613f52565b9050919050565b6000613fbb82613f3f565b9050919050565b6000613fcd82613f72565b9050919050565b82818337600083830152505050565b60005b83811015614001578082015181840152602081019050613fe6565b83811115614010576000848401525b50505050565b6000600282049050600182168061402e57607f821691505b6020821081141561404257614041614180565b5b50919050565b614051826141de565b810181811067ffffffffffffffff821117156140705761406f6141af565b5b80604052505050565b600061408482613f72565b91507fffffffffffffffffffffffffffffffffffffffffffffffffffffffffffffffff8214156140b7576140b66140f3565b5b600182019050919050565b60006140cd82613f72565b91506140d883613f72565b9250826140e8576140e7614122565b5b828206905092915050565b7f4e487b7100000000000000000000000000000000000000000000000000000000600052601160045260246000fd5b7f4e487b7100000000000000000000000000000000000000000000000000000000600052601260045260246000fd5b7f4e487b7100000000000000000000000000000000000000000000000000000000600052602160045260246000fd5b7f4e487b7100000000000000000000000000000000000000000000000000000000600052602260045260246000fd5b7f4e487b7100000000000000000000000000000000000000000000000000000000600052604160045260246000fd5b6000601f19601f8301169050919050565b7f5441534b4e46543a20656e642e00000000000000000000000000000000000000600082015250565b7f4f776e61626c653a206e6577206f776e657220697320746865207a65726f206160008201527f6464726573730000000000000000000000000000000000000000000000000000602082015250565b7f5441534b4e46543a206d6178206d696e7420706572206164647220697320312e600082015250565b7f5441534b4e46543a20636865636b2074686520746f6b656e20616c6c6f77616e60008201527f6365000000000000000000000000000000000000000000000000000000000000602082015250565b7f5441534b4e46543a2063616e27742e0000000000000000000000000000000000600082015250565b7f4f776e61626c653a2063616c6c6572206973206e6f7420746865206f776e6572600082015250565b7f5441534b4e46543a206861766520746f20617070726f76650000000000000000600082015250565b7f5441534b4e46543a2077697468647261772e0000000000000000000000000000600082015250565b7f5441534b4e46543a20736f6c64206f75742e0000000000000000000000000000600082015250565b50565b7f5441534b4e46543a20796f752068617665206174206c6561737420353020544160008201527f534b000000000000000000000000000000000000000000000000000000000000602082015250565b7f5441534b4e46543a20726566756e642e00000000000000000000000000000000600082015250565b6001811061443857614437614151565b5b50565b61444481613ee3565b811461444f57600080fd5b50565b61445b81613ef5565b811461446657600080fd5b50565b61447281613f07565b811461447d57600080fd5b50565b61448981613f13565b811461449457600080fd5b50565b600181106144a457600080fd5b50565b6144b081613f72565b81146144bb57600080fd5b5056fea26469706673582212205b533c2990d345d980eba77751b803e7131e59b147f3731f089490fb315ca20e64736f6c63430008040033",
  "linkReferences": {},
  "deployedLinkReferences": {}
}